{
    "abi": [
        {
            "type": "constructor",
            "inputs": [
                {
                    "name": "_token",
                    "type": "address",
                    "internalType": "address"
                },
                {
                    "name": "_minRequiredBalance",
                    "type": "uint256",
                    "internalType": "uint256"
                },
                {
                    "name": "_entryFee",
                    "type": "uint256",
                    "internalType": "uint256"
                },
                {
                    "name": "_interval",
                    "type": "uint256",
                    "internalType": "uint256"
                },
                {
                    "name": "_vrfCoordinator",
                    "type": "address",
                    "internalType": "address"
                },
                {
                    "name": "_gasLane",
                    "type": "bytes32",
                    "internalType": "bytes32"
                },
                {
                    "name": "_subscriptionId",
                    "type": "uint256",
                    "internalType": "uint256"
                },
                {
                    "name": "_callbackGasLimit",
                    "type": "uint32",
                    "internalType": "uint32"
                }
            ],
            "stateMutability": "nonpayable"
        },
        {
            "type": "receive",
            "stateMutability": "payable"
        },
        {
            "type": "function",
            "name": "acceptOwnership",
            "inputs": [],
            "outputs": [],
            "stateMutability": "nonpayable"
        },
        {
            "type": "function",
            "name": "approve",
            "inputs": [
                {
                    "name": "to",
                    "type": "address",
                    "internalType": "address"
                },
                {
                    "name": "tokenId",
                    "type": "uint256",
                    "internalType": "uint256"
                }
            ],
            "outputs": [],
            "stateMutability": "nonpayable"
        },
        {
            "type": "function",
            "name": "balanceOf",
            "inputs": [
                {
                    "name": "owner",
                    "type": "address",
                    "internalType": "address"
                }
            ],
            "outputs": [
                {
                    "name": "",
                    "type": "uint256",
                    "internalType": "uint256"
                }
            ],
            "stateMutability": "view"
        },
        {
            "type": "function",
            "name": "checkUpkeep",
            "inputs": [
                {
                    "name": "",
                    "type": "bytes",
                    "internalType": "bytes"
                }
            ],
            "outputs": [
                {
                    "name": "upkeepNeeded",
                    "type": "bool",
                    "internalType": "bool"
                },
                {
                    "name": "",
                    "type": "bytes",
                    "internalType": "bytes"
                }
            ],
            "stateMutability": "view"
        },
        {
            "type": "function",
            "name": "getAllPlayers",
            "inputs": [],
            "outputs": [
                {
                    "name": "",
                    "type": "address[]",
                    "internalType": "address payable[]"
                }
            ],
            "stateMutability": "view"
        },
        {
            "type": "function",
            "name": "getApproved",
            "inputs": [
                {
                    "name": "tokenId",
                    "type": "uint256",
                    "internalType": "uint256"
                }
            ],
            "outputs": [
                {
                    "name": "",
                    "type": "address",
                    "internalType": "address"
                }
            ],
            "stateMutability": "view"
        },
        {
            "type": "function",
            "name": "getEntryFee",
            "inputs": [],
            "outputs": [
                {
                    "name": "",
                    "type": "uint256",
                    "internalType": "uint256"
                }
            ],
            "stateMutability": "view"
        },
        {
            "type": "function",
            "name": "getLastTimeStamp",
            "inputs": [],
            "outputs": [
                {
                    "name": "",
                    "type": "uint256",
                    "internalType": "uint256"
                }
            ],
            "stateMutability": "view"
        },
        {
            "type": "function",
            "name": "getPlayer",
            "inputs": [
                {
                    "name": "index",
                    "type": "uint256",
                    "internalType": "uint256"
                }
            ],
            "outputs": [
                {
                    "name": "",
                    "type": "address",
                    "internalType": "address"
                }
            ],
            "stateMutability": "view"
        },
        {
            "type": "function",
            "name": "getRaffleState",
            "inputs": [],
            "outputs": [
                {
                    "name": "",
                    "type": "uint8",
                    "internalType": "enum ZephyraNFT.RaffleState"
                }
            ],
            "stateMutability": "view"
        },
        {
            "type": "function",
            "name": "getRecentWinner",
            "inputs": [],
            "outputs": [
                {
                    "name": "",
                    "type": "address",
                    "internalType": "address"
                }
            ],
            "stateMutability": "view"
        },
        {
            "type": "function",
            "name": "isApprovedForAll",
            "inputs": [
                {
                    "name": "owner",
                    "type": "address",
                    "internalType": "address"
                },
                {
                    "name": "operator",
                    "type": "address",
                    "internalType": "address"
                }
            ],
            "outputs": [
                {
                    "name": "",
                    "type": "bool",
                    "internalType": "bool"
                }
            ],
            "stateMutability": "view"
        },
        {
            "type": "function",
            "name": "name",
            "inputs": [],
            "outputs": [
                {
                    "name": "",
                    "type": "string",
                    "internalType": "string"
                }
            ],
            "stateMutability": "view"
        },
        {
            "type": "function",
            "name": "owner",
            "inputs": [],
            "outputs": [
                {
                    "name": "",
                    "type": "address",
                    "internalType": "address"
                }
            ],
            "stateMutability": "view"
        },
        {
            "type": "function",
            "name": "ownerOf",
            "inputs": [
                {
                    "name": "tokenId",
                    "type": "uint256",
                    "internalType": "uint256"
                }
            ],
            "outputs": [
                {
                    "name": "",
                    "type": "address",
                    "internalType": "address"
                }
            ],
            "stateMutability": "view"
        },
        {
            "type": "function",
            "name": "pause",
            "inputs": [],
            "outputs": [],
            "stateMutability": "nonpayable"
        },
        {
            "type": "function",
            "name": "paused",
            "inputs": [],
            "outputs": [
                {
                    "name": "",
                    "type": "bool",
                    "internalType": "bool"
                }
            ],
            "stateMutability": "view"
        },
        {
            "type": "function",
            "name": "performUpkeep",
            "inputs": [
                {
                    "name": "",
                    "type": "bytes",
                    "internalType": "bytes"
                }
            ],
            "outputs": [],
            "stateMutability": "nonpayable"
        },
        {
            "type": "function",
            "name": "rawFulfillRandomWords",
            "inputs": [
                {
                    "name": "requestId",
                    "type": "uint256",
                    "internalType": "uint256"
                },
                {
                    "name": "randomWords",
                    "type": "uint256[]",
                    "internalType": "uint256[]"
                }
            ],
            "outputs": [],
            "stateMutability": "nonpayable"
        },
        {
            "type": "function",
            "name": "s_hasClaimed",
            "inputs": [
                {
                    "name": "",
                    "type": "address",
                    "internalType": "address"
                }
            ],
            "outputs": [
                {
                    "name": "",
                    "type": "bool",
                    "internalType": "bool"
                }
            ],
            "stateMutability": "view"
        },
        {
            "type": "function",
            "name": "s_hasEntered",
            "inputs": [
                {
                    "name": "",
                    "type": "address",
                    "internalType": "address"
                }
            ],
            "outputs": [
                {
                    "name": "",
                    "type": "bool",
                    "internalType": "bool"
                }
            ],
            "stateMutability": "view"
        },
        {
            "type": "function",
            "name": "s_minRequiredBalance",
            "inputs": [],
            "outputs": [
                {
                    "name": "",
                    "type": "uint256",
                    "internalType": "uint256"
                }
            ],
            "stateMutability": "view"
        },
        {
            "type": "function",
            "name": "s_tokenIdCounter",
            "inputs": [],
            "outputs": [
                {
                    "name": "",
                    "type": "uint256",
                    "internalType": "uint256"
                }
            ],
            "stateMutability": "view"
        },
        {
            "type": "function",
            "name": "s_vrfCoordinator",
            "inputs": [],
            "outputs": [
                {
                    "name": "",
                    "type": "address",
                    "internalType": "contract IVRFCoordinatorV2Plus"
                }
            ],
            "stateMutability": "view"
        },
        {
            "type": "function",
            "name": "safeMint",
            "inputs": [
                {
                    "name": "_to",
                    "type": "address",
                    "internalType": "address"
                }
            ],
            "outputs": [],
            "stateMutability": "nonpayable"
        },
        {
            "type": "function",
            "name": "safeTransferFrom",
            "inputs": [
                {
                    "name": "from",
                    "type": "address",
                    "internalType": "address"
                },
                {
                    "name": "to",
                    "type": "address",
                    "internalType": "address"
                },
                {
                    "name": "tokenId",
                    "type": "uint256",
                    "internalType": "uint256"
                }
            ],
            "outputs": [],
            "stateMutability": "nonpayable"
        },
        {
            "type": "function",
            "name": "safeTransferFrom",
            "inputs": [
                {
                    "name": "from",
                    "type": "address",
                    "internalType": "address"
                },
                {
                    "name": "to",
                    "type": "address",
                    "internalType": "address"
                },
                {
                    "name": "tokenId",
                    "type": "uint256",
                    "internalType": "uint256"
                },
                {
                    "name": "data",
                    "type": "bytes",
                    "internalType": "bytes"
                }
            ],
            "outputs": [],
            "stateMutability": "nonpayable"
        },
        {
            "type": "function",
            "name": "setApprovalForAll",
            "inputs": [
                {
                    "name": "operator",
                    "type": "address",
                    "internalType": "address"
                },
                {
                    "name": "approved",
                    "type": "bool",
                    "internalType": "bool"
                }
            ],
            "outputs": [],
            "stateMutability": "nonpayable"
        },
        {
            "type": "function",
            "name": "setCoordinator",
            "inputs": [
                {
                    "name": "_vrfCoordinator",
                    "type": "address",
                    "internalType": "address"
                }
            ],
            "outputs": [],
            "stateMutability": "nonpayable"
        },
        {
            "type": "function",
            "name": "supportsInterface",
            "inputs": [
                {
                    "name": "interfaceId",
                    "type": "bytes4",
                    "internalType": "bytes4"
                }
            ],
            "outputs": [
                {
                    "name": "",
                    "type": "bool",
                    "internalType": "bool"
                }
            ],
            "stateMutability": "view"
        },
        {
            "type": "function",
            "name": "symbol",
            "inputs": [],
            "outputs": [
                {
                    "name": "",
                    "type": "string",
                    "internalType": "string"
                }
            ],
            "stateMutability": "view"
        },
        {
            "type": "function",
            "name": "tokenURI",
            "inputs": [
                {
                    "name": "tokenId",
                    "type": "uint256",
                    "internalType": "uint256"
                }
            ],
            "outputs": [
                {
                    "name": "",
                    "type": "string",
                    "internalType": "string"
                }
            ],
            "stateMutability": "view"
        },
        {
            "type": "function",
            "name": "transferFrom",
            "inputs": [
                {
                    "name": "from",
                    "type": "address",
                    "internalType": "address"
                },
                {
                    "name": "to",
                    "type": "address",
                    "internalType": "address"
                },
                {
                    "name": "tokenId",
                    "type": "uint256",
                    "internalType": "uint256"
                }
            ],
            "outputs": [],
            "stateMutability": "nonpayable"
        },
        {
            "type": "function",
            "name": "transferOwnership",
            "inputs": [
                {
                    "name": "to",
                    "type": "address",
                    "internalType": "address"
                }
            ],
            "outputs": [],
            "stateMutability": "nonpayable"
        },
        {
            "type": "function",
            "name": "tryLuck",
            "inputs": [],
            "outputs": [],
            "stateMutability": "payable"
        },
        {
            "type": "function",
            "name": "unpause",
            "inputs": [],
            "outputs": [],
            "stateMutability": "nonpayable"
        },
        {
            "type": "event",
            "name": "Approval",
            "inputs": [
                {
                    "name": "owner",
                    "type": "address",
                    "indexed": true,
                    "internalType": "address"
                },
                {
                    "name": "approved",
                    "type": "address",
                    "indexed": true,
                    "internalType": "address"
                },
                {
                    "name": "tokenId",
                    "type": "uint256",
                    "indexed": true,
                    "internalType": "uint256"
                }
            ],
            "anonymous": false
        },
        {
            "type": "event",
            "name": "ApprovalForAll",
            "inputs": [
                {
                    "name": "owner",
                    "type": "address",
                    "indexed": true,
                    "internalType": "address"
                },
                {
                    "name": "operator",
                    "type": "address",
                    "indexed": true,
                    "internalType": "address"
                },
                {
                    "name": "approved",
                    "type": "bool",
                    "indexed": false,
                    "internalType": "bool"
                }
            ],
            "anonymous": false
        },
        {
            "type": "event",
            "name": "CoordinatorSet",
            "inputs": [
                {
                    "name": "vrfCoordinator",
                    "type": "address",
                    "indexed": false,
                    "internalType": "address"
                }
            ],
            "anonymous": false
        },
        {
            "type": "event",
            "name": "NftMinted",
            "inputs": [
                {
                    "name": "to",
                    "type": "address",
                    "indexed": true,
                    "internalType": "address"
                },
                {
                    "name": "tokenIdCounter",
                    "type": "uint256",
                    "indexed": false,
                    "internalType": "uint256"
                }
            ],
            "anonymous": false
        },
        {
            "type": "event",
            "name": "OwnershipTransferRequested",
            "inputs": [
                {
                    "name": "from",
                    "type": "address",
                    "indexed": true,
                    "internalType": "address"
                },
                {
                    "name": "to",
                    "type": "address",
                    "indexed": true,
                    "internalType": "address"
                }
            ],
            "anonymous": false
        },
        {
            "type": "event",
            "name": "OwnershipTransferred",
            "inputs": [
                {
                    "name": "from",
                    "type": "address",
                    "indexed": true,
                    "internalType": "address"
                },
                {
                    "name": "to",
                    "type": "address",
                    "indexed": true,
                    "internalType": "address"
                }
            ],
            "anonymous": false
        },
        {
            "type": "event",
            "name": "Paused",
            "inputs": [
                {
                    "name": "account",
                    "type": "address",
                    "indexed": false,
                    "internalType": "address"
                }
            ],
            "anonymous": false
        },
        {
            "type": "event",
            "name": "RaffleEntered",
            "inputs": [
                {
                    "name": "player",
                    "type": "address",
                    "indexed": false,
                    "internalType": "address"
                }
            ],
            "anonymous": false
        },
        {
            "type": "event",
            "name": "RaffleRequestWinner",
            "inputs": [
                {
                    "name": "requestId",
                    "type": "uint256",
                    "indexed": false,
                    "internalType": "uint256"
                }
            ],
            "anonymous": false
        },
        {
            "type": "event",
            "name": "RaffleWinner",
            "inputs": [
                {
                    "name": "winner",
                    "type": "address",
                    "indexed": true,
                    "internalType": "address"
                }
            ],
            "anonymous": false
        },
        {
            "type": "event",
            "name": "RandomClick",
            "inputs": [
                {
                    "name": "user",
                    "type": "address",
                    "indexed": true,
                    "internalType": "address"
                },
                {
                    "name": "success",
                    "type": "bool",
                    "indexed": false,
                    "internalType": "bool"
                },
                {
                    "name": "timestamp",
                    "type": "uint256",
                    "indexed": false,
                    "internalType": "uint256"
                }
            ],
            "anonymous": false
        },
        {
            "type": "event",
            "name": "Transfer",
            "inputs": [
                {
                    "name": "from",
                    "type": "address",
                    "indexed": true,
                    "internalType": "address"
                },
                {
                    "name": "to",
                    "type": "address",
                    "indexed": true,
                    "internalType": "address"
                },
                {
                    "name": "tokenId",
                    "type": "uint256",
                    "indexed": true,
                    "internalType": "uint256"
                }
            ],
            "anonymous": false
        },
        {
            "type": "event",
            "name": "Unpaused",
            "inputs": [
                {
                    "name": "account",
                    "type": "address",
                    "indexed": false,
                    "internalType": "address"
                }
            ],
            "anonymous": false
        },
        {
            "type": "error",
            "name": "ERC721IncorrectOwner",
            "inputs": [
                {
                    "name": "sender",
                    "type": "address",
                    "internalType": "address"
                },
                {
                    "name": "tokenId",
                    "type": "uint256",
                    "internalType": "uint256"
                },
                {
                    "name": "owner",
                    "type": "address",
                    "internalType": "address"
                }
            ]
        },
        {
            "type": "error",
            "name": "ERC721InsufficientApproval",
            "inputs": [
                {
                    "name": "operator",
                    "type": "address",
                    "internalType": "address"
                },
                {
                    "name": "tokenId",
                    "type": "uint256",
                    "internalType": "uint256"
                }
            ]
        },
        {
            "type": "error",
            "name": "ERC721InvalidApprover",
            "inputs": [
                {
                    "name": "approver",
                    "type": "address",
                    "internalType": "address"
                }
            ]
        },
        {
            "type": "error",
            "name": "ERC721InvalidOperator",
            "inputs": [
                {
                    "name": "operator",
                    "type": "address",
                    "internalType": "address"
                }
            ]
        },
        {
            "type": "error",
            "name": "ERC721InvalidOwner",
            "inputs": [
                {
                    "name": "owner",
                    "type": "address",
                    "internalType": "address"
                }
            ]
        },
        {
            "type": "error",
            "name": "ERC721InvalidReceiver",
            "inputs": [
                {
                    "name": "receiver",
                    "type": "address",
                    "internalType": "address"
                }
            ]
        },
        {
            "type": "error",
            "name": "ERC721InvalidSender",
            "inputs": [
                {
                    "name": "sender",
                    "type": "address",
                    "internalType": "address"
                }
            ]
        },
        {
            "type": "error",
            "name": "ERC721NonexistentToken",
            "inputs": [
                {
                    "name": "tokenId",
                    "type": "uint256",
                    "internalType": "uint256"
                }
            ]
        },
        {
            "type": "error",
            "name": "EnforcedPause",
            "inputs": []
        },
        {
            "type": "error",
            "name": "ExpectedPause",
            "inputs": []
        },
        {
            "type": "error",
            "name": "OnlyCoordinatorCanFulfill",
            "inputs": [
                {
                    "name": "have",
                    "type": "address",
                    "internalType": "address"
                },
                {
                    "name": "want",
                    "type": "address",
                    "internalType": "address"
                }
            ]
        },
        {
            "type": "error",
            "name": "OnlyOwnerOrCoordinator",
            "inputs": [
                {
                    "name": "have",
                    "type": "address",
                    "internalType": "address"
                },
                {
                    "name": "owner",
                    "type": "address",
                    "internalType": "address"
                },
                {
                    "name": "coordinator",
                    "type": "address",
                    "internalType": "address"
                }
            ]
        },
        {
            "type": "error",
            "name": "ZephyraNFT__CooldownActive",
            "inputs": [
                {
                    "name": "lastClickTime",
                    "type": "uint256",
                    "internalType": "uint256"
                },
                {
                    "name": "cooldownTime",
                    "type": "uint256",
                    "internalType": "uint256"
                }
            ]
        },
        {
            "type": "error",
            "name": "ZephyraNFT__NotEnoughEntryFee",
            "inputs": []
        },
        {
            "type": "error",
            "name": "ZephyraNFT__NotEnoughTokens",
            "inputs": [
                {
                    "name": "balance",
                    "type": "uint256",
                    "internalType": "uint256"
                },
                {
                    "name": "required",
                    "type": "uint256",
                    "internalType": "uint256"
                }
            ]
        },
        {
            "type": "error",
            "name": "ZephyraNFT__NotOwner",
            "inputs": []
        },
        {
            "type": "error",
            "name": "ZephyraNFT__PlayerCantEnterMoreThanOnce",
            "inputs": []
        },
        {
            "type": "error",
            "name": "ZephyraNFT__RaffleNotOpen",
            "inputs": []
        },
        {
            "type": "error",
            "name": "ZephyraNFT__TokenDoesNotExist",
            "inputs": [
                {
                    "name": "tokenId",
                    "type": "uint256",
                    "internalType": "uint256"
                }
            ]
        },
        {
            "type": "error",
            "name": "ZephyraNFT__UpkeepNotNeeded",
            "inputs": [
                {
                    "name": "balance",
                    "type": "uint256",
                    "internalType": "uint256"
                },
                {
                    "name": "playerLegnth",
                    "type": "uint256",
                    "internalType": "uint256"
                },
                {
                    "name": "raffleState",
                    "type": "uint256",
                    "internalType": "uint256"
                }
            ]
        },
        {
            "type": "error",
            "name": "ZeroAddress",
            "inputs": []
        }
    ],
    "bytecode": {
        "object": "0x61014060405234801562000011575f80fd5b5060405162004ed638038062004ed68339818101604052810190620000379190620005d5565b8333805f6040518060400160405280600a81526020017f5a6570687972614e4654000000000000000000000000000000000000000000008152506040518060400160405280600581526020017f5a45504859000000000000000000000000000000000000000000000000000000815250815f9081620000b79190620008f4565b508060019081620000c99190620008f4565b5050505f73ffffffffffffffffffffffffffffffffffffffff168273ffffffffffffffffffffffffffffffffffffffff16036200013d576040517f08c379a0000000000000000000000000000000000000000000000000000000008152600401620001349062000a36565b60405180910390fd5b81600660016101000a81548173ffffffffffffffffffffffffffffffffffffffff021916908373ffffffffffffffffffffffffffffffffffffffff1602179055505f73ffffffffffffffffffffffffffffffffffffffff168173ffffffffffffffffffffffffffffffffffffffff1614620001c457620001c3816200039260201b60201c565b5b5050505f73ffffffffffffffffffffffffffffffffffffffff168173ffffffffffffffffffffffffffffffffffffffff16036200022d576040517fd92e233d00000000000000000000000000000000000000000000000000000000815260040160405180910390fd5b8060085f6101000a81548173ffffffffffffffffffffffffffffffffffffffff021916908373ffffffffffffffffffffffffffffffffffffffff160217905550505f73ffffffffffffffffffffffffffffffffffffffff168873ffffffffffffffffffffffffffffffffffffffff1603620002df576040517f08c379a0000000000000000000000000000000000000000000000000000000008152600401620002d69062000aa4565b60405180910390fd5b8773ffffffffffffffffffffffffffffffffffffffff1660808173ffffffffffffffffffffffffffffffffffffffff168152505086600c819055508560a081815250508460c081815250508261010081815250508063ffffffff1660e08163ffffffff168152505081610120818152505042600a819055505f600b60146101000a81548160ff021916908360018111156200037f576200037e62000ac4565b5b0217905550505050505050505062000b5f565b3373ffffffffffffffffffffffffffffffffffffffff168173ffffffffffffffffffffffffffffffffffffffff160362000403576040517f08c379a0000000000000000000000000000000000000000000000000000000008152600401620003fa9062000b3f565b60405180910390fd5b8060075f6101000a81548173ffffffffffffffffffffffffffffffffffffffff021916908373ffffffffffffffffffffffffffffffffffffffff1602179055508073ffffffffffffffffffffffffffffffffffffffff16600660019054906101000a900473ffffffffffffffffffffffffffffffffffffffff1673ffffffffffffffffffffffffffffffffffffffff167fed8889f560326eb138920d842192f0eb3dd22b4f139c87a2c57538e05bae127860405160405180910390a350565b5f80fd5b5f73ffffffffffffffffffffffffffffffffffffffff82169050919050565b5f620004f182620004c6565b9050919050565b6200050381620004e5565b81146200050e575f80fd5b50565b5f815190506200052181620004f8565b92915050565b5f819050919050565b6200053b8162000527565b811462000546575f80fd5b50565b5f81519050620005598162000530565b92915050565b5f819050919050565b62000573816200055f565b81146200057e575f80fd5b50565b5f81519050620005918162000568565b92915050565b5f63ffffffff82169050919050565b620005b18162000597565b8114620005bc575f80fd5b50565b5f81519050620005cf81620005a6565b92915050565b5f805f805f805f80610100898b031215620005f557620005f4620004c2565b5b5f620006048b828c0162000511565b9850506020620006178b828c0162000549565b97505060406200062a8b828c0162000549565b96505060606200063d8b828c0162000549565b9550506080620006508b828c0162000511565b94505060a0620006638b828c0162000581565b93505060c0620006768b828c0162000549565b92505060e0620006898b828c01620005bf565b9150509295985092959890939650565b5f81519050919050565b7f4e487b71000000000000000000000000000000000000000000000000000000005f52604160045260245ffd5b7f4e487b71000000000000000000000000000000000000000000000000000000005f52602260045260245ffd5b5f60028204905060018216806200071557607f821691505b6020821081036200072b576200072a620006d0565b5b50919050565b5f819050815f5260205f209050919050565b5f6020601f8301049050919050565b5f82821b905092915050565b5f600883026200078f7fffffffffffffffffffffffffffffffffffffffffffffffffffffffffffffffff8262000752565b6200079b868362000752565b95508019841693508086168417925050509392505050565b5f819050919050565b5f620007dc620007d6620007d08462000527565b620007b3565b62000527565b9050919050565b5f819050919050565b620007f783620007bc565b6200080f6200080682620007e3565b8484546200075e565b825550505050565b5f90565b6200082562000817565b62000832818484620007ec565b505050565b5b8181101562000859576200084d5f826200081b565b60018101905062000838565b5050565b601f821115620008a857620008728162000731565b6200087d8462000743565b810160208510156200088d578190505b620008a56200089c8562000743565b83018262000837565b50505b505050565b5f82821c905092915050565b5f620008ca5f1984600802620008ad565b1980831691505092915050565b5f620008e48383620008b9565b9150826002028217905092915050565b620008ff8262000699565b67ffffffffffffffff8111156200091b576200091a620006a3565b5b620009278254620006fd565b620009348282856200085d565b5f60209050601f8311600181146200096a575f841562000955578287015190505b620009618582620008d7565b865550620009d0565b601f1984166200097a8662000731565b5f5b82811015620009a3578489015182556001820191506020850194506020810190506200097c565b86831015620009c35784890151620009bf601f891682620008b9565b8355505b6001600288020188555050505b505050505050565b5f82825260208201905092915050565b7f43616e6e6f7420736574206f776e657220746f207a65726f00000000000000005f82015250565b5f62000a1e601883620009d8565b915062000a2b82620009e8565b602082019050919050565b5f6020820190508181035f83015262000a4f8162000a10565b9050919050565b7f496e76616c696420746f6b656e206164647265737300000000000000000000005f82015250565b5f62000a8c601583620009d8565b915062000a998262000a56565b602082019050919050565b5f6020820190508181035f83015262000abd8162000a7e565b9050919050565b7f4e487b71000000000000000000000000000000000000000000000000000000005f52602160045260245ffd5b7f43616e6e6f74207472616e7366657220746f2073656c660000000000000000005f82015250565b5f62000b27601783620009d8565b915062000b348262000af1565b602082019050919050565b5f6020820190508181035f83015262000b588162000b19565b9050919050565b60805160a05160c05160e051610100516101205161432162000bb55f395f610d5601525f610d3001525f610d8701525f610f4501525f81816118070152611ad001525f818161155f01526115fd01526143215ff3fe608060405260043610610212575f3560e01c806379ba509711610117578063b42909e71161009f578063e55ae4e81161006e578063e55ae4e814610756578063e586a4f014610792578063e985e9c5146107bc578063efa1c482146107f8578063f2fde38b1461082257610219565b8063b42909e7146106be578063b88d4fde146106c8578063c1c244e8146106f0578063c87b56dd1461071a57610219565b80638ea98117116100e65780638ea98117146105f057806395d89b41146106185780639eccacf614610642578063a22cb4651461066c578063a467e1081461069457610219565b806379ba50971461057057806382d8a118146105865780638456cb59146105b05780638da5cb5b146105c657610219565b806342842e0e1161019a5780634a5aae37116101695780634a5aae37146104555780635c975abb146104915780636352211e146104bb5780636e04ff0d146104f757806370a082311461053457610219565b806342842e0e1461039f5780634585e33b146103c7578063458ec208146103ef578063473f1ddc1461042b57610219565b8063115cbaf5116101e1578063115cbaf5146102e75780631fe543e31461031157806323b872dd146103395780633f4ba83a1461036157806340d097c31461037757610219565b806301ffc9a71461021d57806306fdde0314610259578063081812fc14610283578063095ea7b3146102bf57610219565b3661021957005b5f80fd5b348015610228575f80fd5b50610243600480360381019061023e9190613049565b61084a565b604051610250919061308e565b60405180910390f35b348015610264575f80fd5b5061026d61092b565b60405161027a9190613131565b60405180910390f35b34801561028e575f80fd5b506102a960048036038101906102a49190613184565b6109ba565b6040516102b691906131ee565b60405180910390f35b3480156102ca575f80fd5b506102e560048036038101906102e09190613231565b6109d5565b005b3480156102f2575f80fd5b506102fb6109eb565b60405161030891906132e2565b60405180910390f35b34801561031c575f80fd5b506103376004803603810190610332919061335c565b610a01565b005b348015610344575f80fd5b5061035f600480360381019061035a91906133b9565b610ac5565b005b34801561036c575f80fd5b50610375610bc4565b005b348015610382575f80fd5b5061039d60048036038101906103989190613409565b610bd6565b005b3480156103aa575f80fd5b506103c560048036038101906103c091906133b9565b610c51565b005b3480156103d2575f80fd5b506103ed60048036038101906103e89190613489565b610c70565b005b3480156103fa575f80fd5b5061041560048036038101906104109190613409565b610eb7565b604051610422919061308e565b60405180910390f35b348015610436575f80fd5b5061043f610ed4565b60405161044c91906131ee565b60405180910390f35b348015610460575f80fd5b5061047b60048036038101906104769190613409565b610efc565b604051610488919061308e565b60405180910390f35b34801561049c575f80fd5b506104a5610f19565b6040516104b2919061308e565b60405180910390f35b3480156104c6575f80fd5b506104e160048036038101906104dc9190613184565b610f2e565b6040516104ee91906131ee565b60405180910390f35b348015610502575f80fd5b5061051d600480360381019061051891906135fc565b610f3f565b60405161052b929190613695565b60405180910390f35b34801561053f575f80fd5b5061055a60048036038101906105559190613409565b611022565b60405161056791906136d2565b60405180910390f35b34801561057b575f80fd5b506105846110d8565b005b348015610591575f80fd5b5061059a61126b565b6040516105a791906136d2565b60405180910390f35b3480156105bb575f80fd5b506105c4611271565b005b3480156105d1575f80fd5b506105da611283565b6040516105e791906131ee565b60405180910390f35b3480156105fb575f80fd5b5061061660048036038101906106119190613409565b6112ac565b005b348015610623575f80fd5b5061062c611489565b6040516106399190613131565b60405180910390f35b34801561064d575f80fd5b50610656611519565b6040516106639190613746565b60405180910390f35b348015610677575f80fd5b50610692600480360381019061068d9190613789565b61153e565b005b34801561069f575f80fd5b506106a8611554565b6040516106b591906136d2565b60405180910390f35b6106c661155a565b005b3480156106d3575f80fd5b506106ee60048036038101906106e991906137c7565b611964565b005b3480156106fb575f80fd5b50610704611989565b60405161071191906136d2565b60405180910390f35b348015610725575f80fd5b50610740600480360381019061073b9190613184565b611992565b60405161074d9190613131565b60405180910390f35b348015610761575f80fd5b5061077c60048036038101906107779190613184565b611a89565b60405161078991906131ee565b60405180910390f35b34801561079d575f80fd5b506107a6611acd565b6040516107b391906136d2565b60405180910390f35b3480156107c7575f80fd5b506107e260048036038101906107dd9190613847565b611af4565b6040516107ef919061308e565b60405180910390f35b348015610803575f80fd5b5061080c611b82565b604051610819919061394d565b60405180910390f35b34801561082d575f80fd5b5061084860048036038101906108439190613409565b611c0d565b005b5f7f80ac58cd000000000000000000000000000000000000000000000000000000007bffffffffffffffffffffffffffffffffffffffffffffffffffffffff1916827bffffffffffffffffffffffffffffffffffffffffffffffffffffffff1916148061091457507f5b5e139f000000000000000000000000000000000000000000000000000000007bffffffffffffffffffffffffffffffffffffffffffffffffffffffff1916827bffffffffffffffffffffffffffffffffffffffffffffffffffffffff1916145b80610924575061092382611c21565b5b9050919050565b60605f80546109399061399a565b80601f01602080910402602001604051908101604052809291908181526020018280546109659061399a565b80156109b05780601f10610987576101008083540402835291602001916109b0565b820191905f5260205f20905b81548152906001019060200180831161099357829003601f168201915b5050505050905090565b5f6109c482611c8a565b506109ce82611d10565b9050919050565b6109e782826109e2611d49565b611d50565b5050565b5f600b60149054906101000a900460ff16905090565b60085f9054906101000a900473ffffffffffffffffffffffffffffffffffffffff1673ffffffffffffffffffffffffffffffffffffffff163373ffffffffffffffffffffffffffffffffffffffff1614610ab5573360085f9054906101000a900473ffffffffffffffffffffffffffffffffffffffff166040517f1cf993f4000000000000000000000000000000000000000000000000000000008152600401610aac9291906139ca565b60405180910390fd5b610ac0838383611d62565b505050565b5f73ffffffffffffffffffffffffffffffffffffffff168273ffffffffffffffffffffffffffffffffffffffff1603610b35575f6040517f64a0ae92000000000000000000000000000000000000000000000000000000008152600401610b2c91906131ee565b60405180910390fd5b5f610b488383610b43611d49565b611fad565b90508373ffffffffffffffffffffffffffffffffffffffff168173ffffffffffffffffffffffffffffffffffffffff1614610bbe578382826040517f64283d7b000000000000000000000000000000000000000000000000000000008152600401610bb5939291906139f1565b60405180910390fd5b50505050565b610bcc611fc2565b610bd4612054565b565b610bde611fc2565b5f600d549050610bee82826120b5565b600d5f81548092919060010191905055508173ffffffffffffffffffffffffffffffffffffffff167ff2b290a76feb54be358b555507421d765609171aefa0646f109a653228ff81b882604051610c4591906136d2565b60405180910390a25050565b610c6b83838360405180602001604052805f815250611964565b505050565b5f610c8860405180602001604052805f815250610f3f565b50905080610cf75747600980549050600b60149054906101000a900460ff166001811115610cb957610cb861326f565b5b6040517f8ee44b36000000000000000000000000000000000000000000000000000000008152600401610cee93929190613a26565b60405180910390fd5b6001600b60146101000a81548160ff02191690836001811115610d1d57610d1c61326f565b5b02179055505f6040518060c001604052807f000000000000000000000000000000000000000000000000000000000000000081526020017f00000000000000000000000000000000000000000000000000000000000000008152602001600361ffff1681526020017f000000000000000000000000000000000000000000000000000000000000000063ffffffff168152602001600163ffffffff168152602001610dd760405180602001604052805f15158152506120d2565b81525090505f60085f9054906101000a900473ffffffffffffffffffffffffffffffffffffffff1673ffffffffffffffffffffffffffffffffffffffff16639b1c385e836040518263ffffffff1660e01b8152600401610e379190613b8a565b6020604051808303815f875af1158015610e53573d5f803e3d5ffd5b505050506040513d601f19601f82011682018060405250810190610e779190613bbe565b90507f6a26914eaa14b7bba3811166ef5bb36f7720311d335c6956bce19c3be5fba5d581604051610ea891906136d2565b60405180910390a15050505050565b600e602052805f5260405f205f915054906101000a900460ff1681565b5f600b5f9054906101000a900473ffffffffffffffffffffffffffffffffffffffff16905090565b600f602052805f5260405f205f915054906101000a900460ff1681565b5f60065f9054906101000a900460ff16905090565b5f610f3882611c8a565b9050919050565b5f60605f7f0000000000000000000000000000000000000000000000000000000000000000600a5442610f729190613c16565b1190505f806001811115610f8957610f8861326f565b5b600b60149054906101000a900460ff166001811115610fab57610faa61326f565b5b1490505f80471190505f6001600980549050119050838015610fca5750825b8015610fd35750815b8015610fdc5750805b9550856040518060400160405280600381526020017f30783000000000000000000000000000000000000000000000000000000000008152509550955050505050915091565b5f8073ffffffffffffffffffffffffffffffffffffffff168273ffffffffffffffffffffffffffffffffffffffff1603611093575f6040517f89c62b6400000000000000000000000000000000000000000000000000000000815260040161108a91906131ee565b60405180910390fd5b60035f8373ffffffffffffffffffffffffffffffffffffffff1673ffffffffffffffffffffffffffffffffffffffff1681526020019081526020015f20549050919050565b60075f9054906101000a900473ffffffffffffffffffffffffffffffffffffffff1673ffffffffffffffffffffffffffffffffffffffff163373ffffffffffffffffffffffffffffffffffffffff1614611167576040517f08c379a000000000000000000000000000000000000000000000000000000000815260040161115e90613c93565b60405180910390fd5b5f600660019054906101000a900473ffffffffffffffffffffffffffffffffffffffff16905033600660016101000a81548173ffffffffffffffffffffffffffffffffffffffff021916908373ffffffffffffffffffffffffffffffffffffffff1602179055505f60075f6101000a81548173ffffffffffffffffffffffffffffffffffffffff021916908373ffffffffffffffffffffffffffffffffffffffff1602179055503373ffffffffffffffffffffffffffffffffffffffff168173ffffffffffffffffffffffffffffffffffffffff167f8be0079c531659141344cd1fd0a4f28419497f9722a3daafe3b4186f6b6457e060405160405180910390a350565b600d5481565b611279611fc2565b61128161216a565b565b5f600660019054906101000a900473ffffffffffffffffffffffffffffffffffffffff16905090565b6112b4611283565b73ffffffffffffffffffffffffffffffffffffffff163373ffffffffffffffffffffffffffffffffffffffff161415801561133c575060085f9054906101000a900473ffffffffffffffffffffffffffffffffffffffff1673ffffffffffffffffffffffffffffffffffffffff163373ffffffffffffffffffffffffffffffffffffffff1614155b156113aa573361134a611283565b60085f9054906101000a900473ffffffffffffffffffffffffffffffffffffffff166040517f061db9c10000000000000000000000000000000000000000000000000000000081526004016113a193929190613cb1565b60405180910390fd5b5f73ffffffffffffffffffffffffffffffffffffffff168173ffffffffffffffffffffffffffffffffffffffff160361140f576040517fd92e233d00000000000000000000000000000000000000000000000000000000815260040160405180910390fd5b8060085f6101000a81548173ffffffffffffffffffffffffffffffffffffffff021916908373ffffffffffffffffffffffffffffffffffffffff1602179055507fd1a6a14209a385a964d036e404cb5cfb71f4000cdb03c9366292430787261be68160405161147e91906131ee565b60405180910390a150565b6060600180546114989061399a565b80601f01602080910402602001604051908101604052809291908181526020018280546114c49061399a565b801561150f5780601f106114e65761010080835404028352916020019161150f565b820191905f5260205f20905b8154815290600101906020018083116114f257829003601f168201915b5050505050905090565b60085f9054906101000a900473ffffffffffffffffffffffffffffffffffffffff1681565b611550611549611d49565b83836121cc565b5050565b600c5481565b600c547f000000000000000000000000000000000000000000000000000000000000000073ffffffffffffffffffffffffffffffffffffffff166370a08231336040518263ffffffff1660e01b81526004016115b691906131ee565b602060405180830381865afa1580156115d1573d5f803e3d5ffd5b505050506040513d601f19601f820116820180604052508101906115f59190613bbe565b10156116d3577f000000000000000000000000000000000000000000000000000000000000000073ffffffffffffffffffffffffffffffffffffffff166370a08231336040518263ffffffff1660e01b815260040161165491906131ee565b602060405180830381865afa15801561166f573d5f803e3d5ffd5b505050506040513d601f19601f820116820180604052508101906116939190613bbe565b600c546040517fef36ae950000000000000000000000000000000000000000000000000000000081526004016116ca929190613ce6565b60405180910390fd5b62015180600a546116e49190613d0d565b42101561172f57600a54620151806040517fb39145dd000000000000000000000000000000000000000000000000000000008152600401611726929190613ce6565b60405180910390fd5b600e5f3373ffffffffffffffffffffffffffffffffffffffff1673ffffffffffffffffffffffffffffffffffffffff1681526020019081526020015f205f9054906101000a900460ff16156117b0576040517fbdce860300000000000000000000000000000000000000000000000000000000815260040160405180910390fd5b6001600e5f3373ffffffffffffffffffffffffffffffffffffffff1673ffffffffffffffffffffffffffffffffffffffff1681526020019081526020015f205f6101000a81548160ff0219169083151502179055507f000000000000000000000000000000000000000000000000000000000000000034101561185f576040517f6ae86c9300000000000000000000000000000000000000000000000000000000815260040160405180910390fd5b5f60018111156118725761187161326f565b5b600b60149054906101000a900460ff1660018111156118945761189361326f565b5b146118cb576040517f20237f1d00000000000000000000000000000000000000000000000000000000815260040160405180910390fd5b600933908060018154018082558091505060019003905f5260205f20015f9091909190916101000a81548173ffffffffffffffffffffffffffffffffffffffff021916908373ffffffffffffffffffffffffffffffffffffffff1602179055507f634f3211e3a4e43fee5a21ad9f87ca153b300fc78b1c557a2057dbe9c63bcb473360405161195a91906131ee565b60405180910390a1565b61196f848484610ac5565b61198361197a611d49565b85858585612335565b50505050565b5f600a54905090565b60605f73ffffffffffffffffffffffffffffffffffffffff166119b483610f2e565b73ffffffffffffffffffffffffffffffffffffffff1603611a0c57816040517f942fbd85000000000000000000000000000000000000000000000000000000008152600401611a0391906136d2565b60405180910390fd5b5f6040518060800160405280604281526020016142aa604291399050611a306124e1565b611a61611a3b61092b565b83604051602001611a4d929190613f3a565b60405160208183030381529060405261251e565b604051602001611a72929190613f89565b604051602081830303815290604052915050919050565b5f60098281548110611a9e57611a9d613fac565b5b905f5260205f20015f9054906101000a900473ffffffffffffffffffffffffffffffffffffffff169050919050565b5f7f0000000000000000000000000000000000000000000000000000000000000000905090565b5f60055f8473ffffffffffffffffffffffffffffffffffffffff1673ffffffffffffffffffffffffffffffffffffffff1681526020019081526020015f205f8373ffffffffffffffffffffffffffffffffffffffff1673ffffffffffffffffffffffffffffffffffffffff1681526020019081526020015f205f9054906101000a900460ff16905092915050565b60606009805480602002602001604051908101604052809291908181526020018280548015611c0357602002820191905f5260205f20905b815f9054906101000a900473ffffffffffffffffffffffffffffffffffffffff1673ffffffffffffffffffffffffffffffffffffffff1681526020019060010190808311611bba575b5050505050905090565b611c15611fc2565b611c1e8161254b565b50565b5f7f01ffc9a7000000000000000000000000000000000000000000000000000000007bffffffffffffffffffffffffffffffffffffffffffffffffffffffff1916827bffffffffffffffffffffffffffffffffffffffffffffffffffffffff1916149050919050565b5f80611c9583612678565b90505f73ffffffffffffffffffffffffffffffffffffffff168173ffffffffffffffffffffffffffffffffffffffff1603611d0757826040517f7e273289000000000000000000000000000000000000000000000000000000008152600401611cfe91906136d2565b60405180910390fd5b80915050919050565b5f60045f8381526020019081526020015f205f9054906101000a900473ffffffffffffffffffffffffffffffffffffffff169050919050565b5f33905090565b611d5d83838360016126b1565b505050565b5f60098054905083835f818110611d7c57611d7b613fac565b5b90506020020135611d8d9190614006565b90505f60098281548110611da457611da3613fac565b5b905f5260205f20015f9054906101000a900473ffffffffffffffffffffffffffffffffffffffff16905080600b5f6101000a81548173ffffffffffffffffffffffffffffffffffffffff021916908373ffffffffffffffffffffffffffffffffffffffff1602179055505f67ffffffffffffffff811115611e2857611e276134d8565b5b604051908082528060200260200182016040528015611e565781602001602082028036833780820191505090505b5060099080519060200190611e6c929190612f41565b5042600a819055505f600b60146101000a81548160ff02191690836001811115611e9957611e9861326f565b5b02179055508073ffffffffffffffffffffffffffffffffffffffff167f16d6ae18ca26331fba5a8b53b0749a009d33b172b68a49d64a767782f5b6010360405160405180910390a25f600d549050611ef182826120b5565b600d5f81548092919060010191905055506001600f5f8473ffffffffffffffffffffffffffffffffffffffff1673ffffffffffffffffffffffffffffffffffffffff1681526020019081526020015f205f6101000a81548160ff0219169083151502179055508173ffffffffffffffffffffffffffffffffffffffff167ff2b290a76feb54be358b555507421d765609171aefa0646f109a653228ff81b882604051611f9d91906136d2565b60405180910390a2505050505050565b5f611fb9848484612870565b90509392505050565b600660019054906101000a900473ffffffffffffffffffffffffffffffffffffffff1673ffffffffffffffffffffffffffffffffffffffff163373ffffffffffffffffffffffffffffffffffffffff1614612052576040517f08c379a000000000000000000000000000000000000000000000000000000000815260040161204990614080565b60405180910390fd5b565b61205c61288d565b5f60065f6101000a81548160ff0219169083151502179055507f5db9ee0a495bf2e6ff9c91a7834c1ba4fdd244a5e8aa4e537bd38aeae4b073aa61209e611d49565b6040516120ab91906131ee565b60405180910390a1565b6120ce828260405180602001604052805f8152506128cd565b5050565b60607f92fd13387c7fe7befbc38d303d6468778fb9731bc4583f17d92989c6fcfdeaaa8260405160240161210691906140c7565b604051602081830303815290604052907bffffffffffffffffffffffffffffffffffffffffffffffffffffffff19166020820180517bffffffffffffffffffffffffffffffffffffffffffffffffffffffff83818316178352505050509050919050565b6121726128f0565b600160065f6101000a81548160ff0219169083151502179055507f62e78cea01bee320cd4e420270b5ea74000d11b0c9f74754ebdbfc544b05a2586121b5611d49565b6040516121c291906131ee565b60405180910390a1565b5f73ffffffffffffffffffffffffffffffffffffffff168273ffffffffffffffffffffffffffffffffffffffff160361223c57816040517f5b08ba1800000000000000000000000000000000000000000000000000000000815260040161223391906131ee565b60405180910390fd5b8060055f8573ffffffffffffffffffffffffffffffffffffffff1673ffffffffffffffffffffffffffffffffffffffff1681526020019081526020015f205f8473ffffffffffffffffffffffffffffffffffffffff1673ffffffffffffffffffffffffffffffffffffffff1681526020019081526020015f205f6101000a81548160ff0219169083151502179055508173ffffffffffffffffffffffffffffffffffffffff168373ffffffffffffffffffffffffffffffffffffffff167f17307eab39ab6107e8899845ad3d59bd9653f200f220920489ca2b5937696c3183604051612328919061308e565b60405180910390a3505050565b5f8373ffffffffffffffffffffffffffffffffffffffff163b11156124da578273ffffffffffffffffffffffffffffffffffffffff1663150b7a02868685856040518563ffffffff1660e01b815260040161239394939291906140e0565b6020604051808303815f875af19250505080156123ce57506040513d601f19601f820116820180604052508101906123cb919061413e565b60015b61244f573d805f81146123fc576040519150601f19603f3d011682016040523d82523d5f602084013e612401565b606091505b505f81510361244757836040517f64a0ae9200000000000000000000000000000000000000000000000000000000815260040161243e91906131ee565b60405180910390fd5b805181602001fd5b63150b7a0260e01b7bffffffffffffffffffffffffffffffffffffffffffffffffffffffff1916817bffffffffffffffffffffffffffffffffffffffffffffffffffffffff1916146124d857836040517f64a0ae920000000000000000000000000000000000000000000000000000000081526004016124cf91906131ee565b60405180910390fd5b505b5050505050565b60606040518060400160405280601d81526020017f646174613a6170706c69636174696f6e2f6a736f6e3b6261736536342c000000815250905090565b60606125448260405180606001604052806040815260200161426a604091396001612931565b9050919050565b3373ffffffffffffffffffffffffffffffffffffffff168173ffffffffffffffffffffffffffffffffffffffff16036125b9576040517f08c379a00000000000000000000000000000000000000000000000000000000081526004016125b0906141b3565b60405180910390fd5b8060075f6101000a81548173ffffffffffffffffffffffffffffffffffffffff021916908373ffffffffffffffffffffffffffffffffffffffff1602179055508073ffffffffffffffffffffffffffffffffffffffff16600660019054906101000a900473ffffffffffffffffffffffffffffffffffffffff1673ffffffffffffffffffffffffffffffffffffffff167fed8889f560326eb138920d842192f0eb3dd22b4f139c87a2c57538e05bae127860405160405180910390a350565b5f60025f8381526020019081526020015f205f9054906101000a900473ffffffffffffffffffffffffffffffffffffffff169050919050565b80806126e957505f73ffffffffffffffffffffffffffffffffffffffff168273ffffffffffffffffffffffffffffffffffffffff1614155b1561281b575f6126f884611c8a565b90505f73ffffffffffffffffffffffffffffffffffffffff168373ffffffffffffffffffffffffffffffffffffffff161415801561276257508273ffffffffffffffffffffffffffffffffffffffff168173ffffffffffffffffffffffffffffffffffffffff1614155b801561277557506127738184611af4565b155b156127b757826040517fa9fbf51f0000000000000000000000000000000000000000000000000000000081526004016127ae91906131ee565b60405180910390fd5b811561281957838573ffffffffffffffffffffffffffffffffffffffff168273ffffffffffffffffffffffffffffffffffffffff167f8c5be1e5ebec7d5bd14f71427d1e84f3dd0314c0f7b2291e5b200ac8c7c3b92560405160405180910390a45b505b8360045f8581526020019081526020015f205f6101000a81548173ffffffffffffffffffffffffffffffffffffffff021916908373ffffffffffffffffffffffffffffffffffffffff16021790555050505050565b5f6128796128f0565b612884848484612ac0565b90509392505050565b612895610f19565b6128cb576040517f8dfc202b00000000000000000000000000000000000000000000000000000000815260040160405180910390fd5b565b6128d78383612ccb565b6128eb6128e2611d49565b5f858585612335565b505050565b6128f8610f19565b1561292f576040517fd93c066500000000000000000000000000000000000000000000000000000000815260040160405180910390fd5b565b60605f8451036129515760405180602001604052805f8152509050612ab9565b5f8261298257600360028651600461296991906141d1565b6129739190613d0d565b61297d9190614212565b6129a9565b6003600286516129929190613d0d565b61299c9190614212565b60046129a891906141d1565b5b90505f8167ffffffffffffffff8111156129c6576129c56134d8565b5b6040519080825280601f01601f1916602001820160405280156129f85781602001600182028036833780820191505090505b509050600185016020820187885189016020810180515f82525b82841015612a6d576003840193508351603f8160121c168701518653600186019550603f81600c1c168701518653600186019550603f8160061c168701518653600186019550603f8116870151865360018601955050612a12565b8082528915612aad5760038c510660018114612a905760028114612aa357612aab565b603d6001870353603d6002870353612aab565b603d60018703535b505b50505050505080925050505b9392505050565b5f80612acb84612678565b90505f73ffffffffffffffffffffffffffffffffffffffff168373ffffffffffffffffffffffffffffffffffffffff1614612b0c57612b0b818486612dbe565b5b5f73ffffffffffffffffffffffffffffffffffffffff168173ffffffffffffffffffffffffffffffffffffffff1614612b9757612b4b5f855f806126b1565b600160035f8373ffffffffffffffffffffffffffffffffffffffff1673ffffffffffffffffffffffffffffffffffffffff1681526020019081526020015f205f82825403925050819055505b5f73ffffffffffffffffffffffffffffffffffffffff168573ffffffffffffffffffffffffffffffffffffffff1614612c1657600160035f8773ffffffffffffffffffffffffffffffffffffffff1673ffffffffffffffffffffffffffffffffffffffff1681526020019081526020015f205f82825401925050819055505b8460025f8681526020019081526020015f205f6101000a81548173ffffffffffffffffffffffffffffffffffffffff021916908373ffffffffffffffffffffffffffffffffffffffff160217905550838573ffffffffffffffffffffffffffffffffffffffff168273ffffffffffffffffffffffffffffffffffffffff167fddf252ad1be2c89b69c2b068fc378daa952ba7f163c4a11628f55a4df523b3ef60405160405180910390a4809150509392505050565b5f73ffffffffffffffffffffffffffffffffffffffff168273ffffffffffffffffffffffffffffffffffffffff1603612d3b575f6040517f64a0ae92000000000000000000000000000000000000000000000000000000008152600401612d3291906131ee565b60405180910390fd5b5f612d4783835f611fad565b90505f73ffffffffffffffffffffffffffffffffffffffff168173ffffffffffffffffffffffffffffffffffffffff1614612db9575f6040517f73c6ac6e000000000000000000000000000000000000000000000000000000008152600401612db091906131ee565b60405180910390fd5b505050565b612dc9838383612e81565b612e7c575f73ffffffffffffffffffffffffffffffffffffffff168373ffffffffffffffffffffffffffffffffffffffff1603612e3d57806040517f7e273289000000000000000000000000000000000000000000000000000000008152600401612e3491906136d2565b60405180910390fd5b81816040517f177e802f000000000000000000000000000000000000000000000000000000008152600401612e73929190614242565b60405180910390fd5b505050565b5f8073ffffffffffffffffffffffffffffffffffffffff168373ffffffffffffffffffffffffffffffffffffffff1614158015612f3857508273ffffffffffffffffffffffffffffffffffffffff168473ffffffffffffffffffffffffffffffffffffffff161480612ef95750612ef88484611af4565b5b80612f3757508273ffffffffffffffffffffffffffffffffffffffff16612f1f83611d10565b73ffffffffffffffffffffffffffffffffffffffff16145b5b90509392505050565b828054828255905f5260205f20908101928215612fb7579160200282015b82811115612fb6578251825f6101000a81548173ffffffffffffffffffffffffffffffffffffffff021916908373ffffffffffffffffffffffffffffffffffffffff16021790555091602001919060010190612f5f565b5b509050612fc49190612fc8565b5090565b5b80821115612fdf575f815f905550600101612fc9565b5090565b5f604051905090565b5f80fd5b5f80fd5b5f7fffffffff0000000000000000000000000000000000000000000000000000000082169050919050565b61302881612ff4565b8114613032575f80fd5b50565b5f813590506130438161301f565b92915050565b5f6020828403121561305e5761305d612fec565b5b5f61306b84828501613035565b91505092915050565b5f8115159050919050565b61308881613074565b82525050565b5f6020820190506130a15f83018461307f565b92915050565b5f81519050919050565b5f82825260208201905092915050565b5f5b838110156130de5780820151818401526020810190506130c3565b5f8484015250505050565b5f601f19601f8301169050919050565b5f613103826130a7565b61310d81856130b1565b935061311d8185602086016130c1565b613126816130e9565b840191505092915050565b5f6020820190508181035f83015261314981846130f9565b905092915050565b5f819050919050565b61316381613151565b811461316d575f80fd5b50565b5f8135905061317e8161315a565b92915050565b5f6020828403121561319957613198612fec565b5b5f6131a684828501613170565b91505092915050565b5f73ffffffffffffffffffffffffffffffffffffffff82169050919050565b5f6131d8826131af565b9050919050565b6131e8816131ce565b82525050565b5f6020820190506132015f8301846131df565b92915050565b613210816131ce565b811461321a575f80fd5b50565b5f8135905061322b81613207565b92915050565b5f806040838503121561324757613246612fec565b5b5f6132548582860161321d565b925050602061326585828601613170565b9150509250929050565b7f4e487b71000000000000000000000000000000000000000000000000000000005f52602160045260245ffd5b600281106132ad576132ac61326f565b5b50565b5f8190506132bd8261329c565b919050565b5f6132cc826132b0565b9050919050565b6132dc816132c2565b82525050565b5f6020820190506132f55f8301846132d3565b92915050565b5f80fd5b5f80fd5b5f80fd5b5f8083601f84011261331c5761331b6132fb565b5b8235905067ffffffffffffffff811115613339576133386132ff565b5b60208301915083602082028301111561335557613354613303565b5b9250929050565b5f805f6040848603121561337357613372612fec565b5b5f61338086828701613170565b935050602084013567ffffffffffffffff8111156133a1576133a0612ff0565b5b6133ad86828701613307565b92509250509250925092565b5f805f606084860312156133d0576133cf612fec565b5b5f6133dd8682870161321d565b93505060206133ee8682870161321d565b92505060406133ff86828701613170565b9150509250925092565b5f6020828403121561341e5761341d612fec565b5b5f61342b8482850161321d565b91505092915050565b5f8083601f840112613449576134486132fb565b5b8235905067ffffffffffffffff811115613466576134656132ff565b5b60208301915083600182028301111561348257613481613303565b5b9250929050565b5f806020838503121561349f5761349e612fec565b5b5f83013567ffffffffffffffff8111156134bc576134bb612ff0565b5b6134c885828601613434565b92509250509250929050565b5f80fd5b7f4e487b71000000000000000000000000000000000000000000000000000000005f52604160045260245ffd5b61350e826130e9565b810181811067ffffffffffffffff8211171561352d5761352c6134d8565b5b80604052505050565b5f61353f612fe3565b905061354b8282613505565b919050565b5f67ffffffffffffffff82111561356a576135696134d8565b5b613573826130e9565b9050602081019050919050565b828183375f83830152505050565b5f6135a061359b84613550565b613536565b9050828152602081018484840111156135bc576135bb6134d4565b5b6135c7848285613580565b509392505050565b5f82601f8301126135e3576135e26132fb565b5b81356135f384826020860161358e565b91505092915050565b5f6020828403121561361157613610612fec565b5b5f82013567ffffffffffffffff81111561362e5761362d612ff0565b5b61363a848285016135cf565b91505092915050565b5f81519050919050565b5f82825260208201905092915050565b5f61366782613643565b613671818561364d565b93506136818185602086016130c1565b61368a816130e9565b840191505092915050565b5f6040820190506136a85f83018561307f565b81810360208301526136ba818461365d565b90509392505050565b6136cc81613151565b82525050565b5f6020820190506136e55f8301846136c3565b92915050565b5f819050919050565b5f61370e613709613704846131af565b6136eb565b6131af565b9050919050565b5f61371f826136f4565b9050919050565b5f61373082613715565b9050919050565b61374081613726565b82525050565b5f6020820190506137595f830184613737565b92915050565b61376881613074565b8114613772575f80fd5b50565b5f813590506137838161375f565b92915050565b5f806040838503121561379f5761379e612fec565b5b5f6137ac8582860161321d565b92505060206137bd85828601613775565b9150509250929050565b5f805f80608085870312156137df576137de612fec565b5b5f6137ec8782880161321d565b94505060206137fd8782880161321d565b935050604061380e87828801613170565b925050606085013567ffffffffffffffff81111561382f5761382e612ff0565b5b61383b878288016135cf565b91505092959194509250565b5f806040838503121561385d5761385c612fec565b5b5f61386a8582860161321d565b925050602061387b8582860161321d565b9150509250929050565b5f81519050919050565b5f82825260208201905092915050565b5f819050602082019050919050565b5f6138b8826131af565b9050919050565b6138c8816138ae565b82525050565b5f6138d983836138bf565b60208301905092915050565b5f602082019050919050565b5f6138fb82613885565b613905818561388f565b93506139108361389f565b805f5b8381101561394057815161392788826138ce565b9750613932836138e5565b925050600181019050613913565b5085935050505092915050565b5f6020820190508181035f83015261396581846138f1565b905092915050565b7f4e487b71000000000000000000000000000000000000000000000000000000005f52602260045260245ffd5b5f60028204905060018216806139b157607f821691505b6020821081036139c4576139c361396d565b5b50919050565b5f6040820190506139dd5f8301856131df565b6139ea60208301846131df565b9392505050565b5f606082019050613a045f8301866131df565b613a1160208301856136c3565b613a1e60408301846131df565b949350505050565b5f606082019050613a395f8301866136c3565b613a4660208301856136c3565b613a5360408301846136c3565b949350505050565b5f819050919050565b613a6d81613a5b565b82525050565b613a7c81613151565b82525050565b5f61ffff82169050919050565b613a9881613a82565b82525050565b5f63ffffffff82169050919050565b613ab681613a9e565b82525050565b5f82825260208201905092915050565b5f613ad682613643565b613ae08185613abc565b9350613af08185602086016130c1565b613af9816130e9565b840191505092915050565b5f60c083015f830151613b195f860182613a64565b506020830151613b2c6020860182613a73565b506040830151613b3f6040860182613a8f565b506060830151613b526060860182613aad565b506080830151613b656080860182613aad565b5060a083015184820360a0860152613b7d8282613acc565b9150508091505092915050565b5f6020820190508181035f830152613ba28184613b04565b905092915050565b5f81519050613bb88161315a565b92915050565b5f60208284031215613bd357613bd2612fec565b5b5f613be084828501613baa565b91505092915050565b7f4e487b71000000000000000000000000000000000000000000000000000000005f52601160045260245ffd5b5f613c2082613151565b9150613c2b83613151565b9250828203905081811115613c4357613c42613be9565b5b92915050565b7f4d7573742062652070726f706f736564206f776e6572000000000000000000005f82015250565b5f613c7d6016836130b1565b9150613c8882613c49565b602082019050919050565b5f6020820190508181035f830152613caa81613c71565b9050919050565b5f606082019050613cc45f8301866131df565b613cd160208301856131df565b613cde60408301846131df565b949350505050565b5f604082019050613cf95f8301856136c3565b613d0660208301846136c3565b9392505050565b5f613d1782613151565b9150613d2283613151565b9250828201905080821115613d3a57613d39613be9565b5b92915050565b5f81905092915050565b7f7b226e616d65223a2200000000000000000000000000000000000000000000005f82015250565b5f613d7e600983613d40565b9150613d8982613d4a565b600982019050919050565b5f613d9e826130a7565b613da88185613d40565b9350613db88185602086016130c1565b80840191505092915050565b7f222c20226465736372697074696f6e223a22416e204e465420666f72207472755f8201527f737465642075736572732c2077697468206d6f7265207468616e2031302c303060208201527f30205a5553442c2031303025206f6e20436861696e21222c2000000000000000604082015250565b5f613e44605983613d40565b9150613e4f82613dc4565b605982019050919050565b7f2261747472696275746573223a205b7b2274726169745f74797065223a20226d5f8201527f6f6f64696e657373222c202276616c7565223a203130307d5d2c2022696d616760208201527f65223a2200000000000000000000000000000000000000000000000000000000604082015250565b5f613eda604483613d40565b9150613ee582613e5a565b604482019050919050565b7f227d0000000000000000000000000000000000000000000000000000000000005f82015250565b5f613f24600283613d40565b9150613f2f82613ef0565b600282019050919050565b5f613f4482613d72565b9150613f508285613d94565b9150613f5b82613e38565b9150613f6682613ece565b9150613f728284613d94565b9150613f7d82613f18565b91508190509392505050565b5f613f948285613d94565b9150613fa08284613d94565b91508190509392505050565b7f4e487b71000000000000000000000000000000000000000000000000000000005f52603260045260245ffd5b7f4e487b71000000000000000000000000000000000000000000000000000000005f52601260045260245ffd5b5f61401082613151565b915061401b83613151565b92508261402b5761402a613fd9565b5b828206905092915050565b7f4f6e6c792063616c6c61626c65206279206f776e6572000000000000000000005f82015250565b5f61406a6016836130b1565b915061407582614036565b602082019050919050565b5f6020820190508181035f8301526140978161405e565b9050919050565b6140a781613074565b82525050565b602082015f8201516140c15f85018261409e565b50505050565b5f6020820190506140da5f8301846140ad565b92915050565b5f6080820190506140f35f8301876131df565b61410060208301866131df565b61410d60408301856136c3565b818103606083015261411f818461365d565b905095945050505050565b5f815190506141388161301f565b92915050565b5f6020828403121561415357614152612fec565b5b5f6141608482850161412a565b91505092915050565b7f43616e6e6f74207472616e7366657220746f2073656c660000000000000000005f82015250565b5f61419d6017836130b1565b91506141a882614169565b602082019050919050565b5f6020820190508181035f8301526141ca81614191565b9050919050565b5f6141db82613151565b91506141e683613151565b92508282026141f481613151565b9150828204841483151761420b5761420a613be9565b5b5092915050565b5f61421c82613151565b915061422783613151565b92508261423757614236613fd9565b5b828204905092915050565b5f6040820190506142555f8301856131df565b61426260208301846136c3565b939250505056fe4142434445464748494a4b4c4d4e4f505152535455565758595a6162636465666768696a6b6c6d6e6f707172737475767778797a303132333435363738392b2f697066733a2f2f6261666b72656968686c696d3273716a7966767032336378677171706b75756f3568713675326d6b6f79657834793371367063756a696137623561a264697066735822122009be6e3883875c0274ae83708f3dfb2cc12bff94b058aa6546ae276a6234058864736f6c63430008180033",
        "linkReferences": {}
    },
    "methodIdentifiers": {
        "acceptOwnership()": "79ba5097",
        "approve(address,uint256)": "095ea7b3",
        "balanceOf(address)": "70a08231",
        "checkUpkeep(bytes)": "6e04ff0d",
        "getAllPlayers()": "efa1c482",
        "getApproved(uint256)": "081812fc",
        "getEntryFee()": "e586a4f0",
        "getLastTimeStamp()": "c1c244e8",
        "getPlayer(uint256)": "e55ae4e8",
        "getRaffleState()": "115cbaf5",
        "getRecentWinner()": "473f1ddc",
        "isApprovedForAll(address,address)": "e985e9c5",
        "name()": "06fdde03",
        "owner()": "8da5cb5b",
        "ownerOf(uint256)": "6352211e",
        "pause()": "8456cb59",
        "paused()": "5c975abb",
        "performUpkeep(bytes)": "4585e33b",
        "rawFulfillRandomWords(uint256,uint256[])": "1fe543e3",
        "s_hasClaimed(address)": "4a5aae37",
        "s_hasEntered(address)": "458ec208",
        "s_minRequiredBalance()": "a467e108",
        "s_tokenIdCounter()": "82d8a118",
        "s_vrfCoordinator()": "9eccacf6",
        "safeMint(address)": "40d097c3",
        "safeTransferFrom(address,address,uint256)": "42842e0e",
        "safeTransferFrom(address,address,uint256,bytes)": "b88d4fde",
        "setApprovalForAll(address,bool)": "a22cb465",
        "setCoordinator(address)": "8ea98117",
        "supportsInterface(bytes4)": "01ffc9a7",
        "symbol()": "95d89b41",
        "tokenURI(uint256)": "c87b56dd",
        "transferFrom(address,address,uint256)": "23b872dd",
        "transferOwnership(address)": "f2fde38b",
        "tryLuck()": "b42909e7",
        "unpause()": "3f4ba83a"
    },
    "id": 59
}