{
    "abi": [
        {
            "type": "constructor",
            "inputs": [
                {
                    "name": "_token",
                    "type": "address",
                    "internalType": "address"
                },
                {
                    "name": "_minRequiredBalance",
                    "type": "uint256",
                    "internalType": "uint256"
                },
                {
                    "name": "_entryFee",
                    "type": "uint256",
                    "internalType": "uint256"
                },
                {
                    "name": "_interval",
                    "type": "uint256",
                    "internalType": "uint256"
                },
                {
                    "name": "_vrfCoordinator",
                    "type": "address",
                    "internalType": "address"
                },
                {
                    "name": "_gasLane",
                    "type": "bytes32",
                    "internalType": "bytes32"
                },
                {
                    "name": "_subscriptionId",
                    "type": "uint256",
                    "internalType": "uint256"
                },
                {
                    "name": "_callbackGasLimit",
                    "type": "uint32",
                    "internalType": "uint32"
                }
            ],
            "stateMutability": "nonpayable"
        },
        {
            "type": "receive",
            "stateMutability": "payable"
        },
        {
            "type": "function",
            "name": "acceptOwnership",
            "inputs": [],
            "outputs": [],
            "stateMutability": "nonpayable"
        },
        {
            "type": "function",
            "name": "approve",
            "inputs": [
                {
                    "name": "to",
                    "type": "address",
                    "internalType": "address"
                },
                {
                    "name": "tokenId",
                    "type": "uint256",
                    "internalType": "uint256"
                }
            ],
            "outputs": [],
            "stateMutability": "nonpayable"
        },
        {
            "type": "function",
            "name": "balanceOf",
            "inputs": [
                {
                    "name": "owner",
                    "type": "address",
                    "internalType": "address"
                }
            ],
            "outputs": [
                {
                    "name": "",
                    "type": "uint256",
                    "internalType": "uint256"
                }
            ],
            "stateMutability": "view"
        },
        {
            "type": "function",
            "name": "checkUpkeep",
            "inputs": [
                {
                    "name": "",
                    "type": "bytes",
                    "internalType": "bytes"
                }
            ],
            "outputs": [
                {
                    "name": "upkeepNeeded",
                    "type": "bool",
                    "internalType": "bool"
                },
                {
                    "name": "",
                    "type": "bytes",
                    "internalType": "bytes"
                }
            ],
            "stateMutability": "view"
        },
        {
            "type": "function",
            "name": "getAllPlayers",
            "inputs": [],
            "outputs": [
                {
                    "name": "",
                    "type": "address[]",
                    "internalType": "address payable[]"
                }
            ],
            "stateMutability": "view"
        },
        {
            "type": "function",
            "name": "getApproved",
            "inputs": [
                {
                    "name": "tokenId",
                    "type": "uint256",
                    "internalType": "uint256"
                }
            ],
            "outputs": [
                {
                    "name": "",
                    "type": "address",
                    "internalType": "address"
                }
            ],
            "stateMutability": "view"
        },
        {
            "type": "function",
            "name": "getEntryFee",
            "inputs": [],
            "outputs": [
                {
                    "name": "",
                    "type": "uint256",
                    "internalType": "uint256"
                }
            ],
            "stateMutability": "view"
        },
        {
            "type": "function",
            "name": "getLastTimeStamp",
            "inputs": [],
            "outputs": [
                {
                    "name": "",
                    "type": "uint256",
                    "internalType": "uint256"
                }
            ],
            "stateMutability": "view"
        },
        {
            "type": "function",
            "name": "getPlayer",
            "inputs": [
                {
                    "name": "index",
                    "type": "uint256",
                    "internalType": "uint256"
                }
            ],
            "outputs": [
                {
                    "name": "",
                    "type": "address",
                    "internalType": "address"
                }
            ],
            "stateMutability": "view"
        },
        {
            "type": "function",
            "name": "getRaffleState",
            "inputs": [],
            "outputs": [
                {
                    "name": "",
                    "type": "uint8",
                    "internalType": "enum ZephyraNFT.RaffleState"
                }
            ],
            "stateMutability": "view"
        },
        {
            "type": "function",
            "name": "getRecentWinner",
            "inputs": [],
            "outputs": [
                {
                    "name": "",
                    "type": "address",
                    "internalType": "address"
                }
            ],
            "stateMutability": "view"
        },
        {
            "type": "function",
            "name": "isApprovedForAll",
            "inputs": [
                {
                    "name": "owner",
                    "type": "address",
                    "internalType": "address"
                },
                {
                    "name": "operator",
                    "type": "address",
                    "internalType": "address"
                }
            ],
            "outputs": [
                {
                    "name": "",
                    "type": "bool",
                    "internalType": "bool"
                }
            ],
            "stateMutability": "view"
        },
        {
            "type": "function",
            "name": "name",
            "inputs": [],
            "outputs": [
                {
                    "name": "",
                    "type": "string",
                    "internalType": "string"
                }
            ],
            "stateMutability": "view"
        },
        {
            "type": "function",
            "name": "owner",
            "inputs": [],
            "outputs": [
                {
                    "name": "",
                    "type": "address",
                    "internalType": "address"
                }
            ],
            "stateMutability": "view"
        },
        {
            "type": "function",
            "name": "ownerOf",
            "inputs": [
                {
                    "name": "tokenId",
                    "type": "uint256",
                    "internalType": "uint256"
                }
            ],
            "outputs": [
                {
                    "name": "",
                    "type": "address",
                    "internalType": "address"
                }
            ],
            "stateMutability": "view"
        },
        {
            "type": "function",
            "name": "pause",
            "inputs": [],
            "outputs": [],
            "stateMutability": "nonpayable"
        },
        {
            "type": "function",
            "name": "paused",
            "inputs": [],
            "outputs": [
                {
                    "name": "",
                    "type": "bool",
                    "internalType": "bool"
                }
            ],
            "stateMutability": "view"
        },
        {
            "type": "function",
            "name": "performUpkeep",
            "inputs": [
                {
                    "name": "",
                    "type": "bytes",
                    "internalType": "bytes"
                }
            ],
            "outputs": [],
            "stateMutability": "nonpayable"
        },
        {
            "type": "function",
            "name": "rawFulfillRandomWords",
            "inputs": [
                {
                    "name": "requestId",
                    "type": "uint256",
                    "internalType": "uint256"
                },
                {
                    "name": "randomWords",
                    "type": "uint256[]",
                    "internalType": "uint256[]"
                }
            ],
            "outputs": [],
            "stateMutability": "nonpayable"
        },
        {
            "type": "function",
            "name": "s_hasClaimed",
            "inputs": [
                {
                    "name": "",
                    "type": "address",
                    "internalType": "address"
                }
            ],
            "outputs": [
                {
                    "name": "",
                    "type": "bool",
                    "internalType": "bool"
                }
            ],
            "stateMutability": "view"
        },
        {
            "type": "function",
            "name": "s_hasEntered",
            "inputs": [
                {
                    "name": "",
                    "type": "address",
                    "internalType": "address"
                }
            ],
            "outputs": [
                {
                    "name": "",
                    "type": "bool",
                    "internalType": "bool"
                }
            ],
            "stateMutability": "view"
        },
        {
            "type": "function",
            "name": "s_minRequiredBalance",
            "inputs": [],
            "outputs": [
                {
                    "name": "",
                    "type": "uint256",
                    "internalType": "uint256"
                }
            ],
            "stateMutability": "view"
        },
        {
            "type": "function",
            "name": "s_tokenIdCounter",
            "inputs": [],
            "outputs": [
                {
                    "name": "",
                    "type": "uint256",
                    "internalType": "uint256"
                }
            ],
            "stateMutability": "view"
        },
        {
            "type": "function",
            "name": "s_vrfCoordinator",
            "inputs": [],
            "outputs": [
                {
                    "name": "",
                    "type": "address",
                    "internalType": "contract IVRFCoordinatorV2Plus"
                }
            ],
            "stateMutability": "view"
        },
        {
            "type": "function",
            "name": "safeMint",
            "inputs": [
                {
                    "name": "_to",
                    "type": "address",
                    "internalType": "address"
                }
            ],
            "outputs": [],
            "stateMutability": "nonpayable"
        },
        {
            "type": "function",
            "name": "safeTransferFrom",
            "inputs": [
                {
                    "name": "from",
                    "type": "address",
                    "internalType": "address"
                },
                {
                    "name": "to",
                    "type": "address",
                    "internalType": "address"
                },
                {
                    "name": "tokenId",
                    "type": "uint256",
                    "internalType": "uint256"
                }
            ],
            "outputs": [],
            "stateMutability": "nonpayable"
        },
        {
            "type": "function",
            "name": "safeTransferFrom",
            "inputs": [
                {
                    "name": "from",
                    "type": "address",
                    "internalType": "address"
                },
                {
                    "name": "to",
                    "type": "address",
                    "internalType": "address"
                },
                {
                    "name": "tokenId",
                    "type": "uint256",
                    "internalType": "uint256"
                },
                {
                    "name": "data",
                    "type": "bytes",
                    "internalType": "bytes"
                }
            ],
            "outputs": [],
            "stateMutability": "nonpayable"
        },
        {
            "type": "function",
            "name": "setApprovalForAll",
            "inputs": [
                {
                    "name": "operator",
                    "type": "address",
                    "internalType": "address"
                },
                {
                    "name": "approved",
                    "type": "bool",
                    "internalType": "bool"
                }
            ],
            "outputs": [],
            "stateMutability": "nonpayable"
        },
        {
            "type": "function",
            "name": "setCoordinator",
            "inputs": [
                {
                    "name": "_vrfCoordinator",
                    "type": "address",
                    "internalType": "address"
                }
            ],
            "outputs": [],
            "stateMutability": "nonpayable"
        },
        {
            "type": "function",
            "name": "supportsInterface",
            "inputs": [
                {
                    "name": "interfaceId",
                    "type": "bytes4",
                    "internalType": "bytes4"
                }
            ],
            "outputs": [
                {
                    "name": "",
                    "type": "bool",
                    "internalType": "bool"
                }
            ],
            "stateMutability": "view"
        },
        {
            "type": "function",
            "name": "symbol",
            "inputs": [],
            "outputs": [
                {
                    "name": "",
                    "type": "string",
                    "internalType": "string"
                }
            ],
            "stateMutability": "view"
        },
        {
            "type": "function",
            "name": "tokenURI",
            "inputs": [
                {
                    "name": "tokenId",
                    "type": "uint256",
                    "internalType": "uint256"
                }
            ],
            "outputs": [
                {
                    "name": "",
                    "type": "string",
                    "internalType": "string"
                }
            ],
            "stateMutability": "view"
        },
        {
            "type": "function",
            "name": "transferFrom",
            "inputs": [
                {
                    "name": "from",
                    "type": "address",
                    "internalType": "address"
                },
                {
                    "name": "to",
                    "type": "address",
                    "internalType": "address"
                },
                {
                    "name": "tokenId",
                    "type": "uint256",
                    "internalType": "uint256"
                }
            ],
            "outputs": [],
            "stateMutability": "nonpayable"
        },
        {
            "type": "function",
            "name": "transferOwnership",
            "inputs": [
                {
                    "name": "to",
                    "type": "address",
                    "internalType": "address"
                }
            ],
            "outputs": [],
            "stateMutability": "nonpayable"
        },
        {
            "type": "function",
            "name": "tryLuck",
            "inputs": [],
            "outputs": [],
            "stateMutability": "payable"
        },
        {
            "type": "function",
            "name": "unpause",
            "inputs": [],
            "outputs": [],
            "stateMutability": "nonpayable"
        },
        {
            "type": "event",
            "name": "Approval",
            "inputs": [
                {
                    "name": "owner",
                    "type": "address",
                    "indexed": true,
                    "internalType": "address"
                },
                {
                    "name": "approved",
                    "type": "address",
                    "indexed": true,
                    "internalType": "address"
                },
                {
                    "name": "tokenId",
                    "type": "uint256",
                    "indexed": true,
                    "internalType": "uint256"
                }
            ],
            "anonymous": false
        },
        {
            "type": "event",
            "name": "ApprovalForAll",
            "inputs": [
                {
                    "name": "owner",
                    "type": "address",
                    "indexed": true,
                    "internalType": "address"
                },
                {
                    "name": "operator",
                    "type": "address",
                    "indexed": true,
                    "internalType": "address"
                },
                {
                    "name": "approved",
                    "type": "bool",
                    "indexed": false,
                    "internalType": "bool"
                }
            ],
            "anonymous": false
        },
        {
            "type": "event",
            "name": "CoordinatorSet",
            "inputs": [
                {
                    "name": "vrfCoordinator",
                    "type": "address",
                    "indexed": false,
                    "internalType": "address"
                }
            ],
            "anonymous": false
        },
        {
            "type": "event",
            "name": "NftMinted",
            "inputs": [
                {
                    "name": "to",
                    "type": "address",
                    "indexed": true,
                    "internalType": "address"
                },
                {
                    "name": "tokenIdCounter",
                    "type": "uint256",
                    "indexed": false,
                    "internalType": "uint256"
                }
            ],
            "anonymous": false
        },
        {
            "type": "event",
            "name": "OwnershipTransferRequested",
            "inputs": [
                {
                    "name": "from",
                    "type": "address",
                    "indexed": true,
                    "internalType": "address"
                },
                {
                    "name": "to",
                    "type": "address",
                    "indexed": true,
                    "internalType": "address"
                }
            ],
            "anonymous": false
        },
        {
            "type": "event",
            "name": "OwnershipTransferred",
            "inputs": [
                {
                    "name": "from",
                    "type": "address",
                    "indexed": true,
                    "internalType": "address"
                },
                {
                    "name": "to",
                    "type": "address",
                    "indexed": true,
                    "internalType": "address"
                }
            ],
            "anonymous": false
        },
        {
            "type": "event",
            "name": "Paused",
            "inputs": [
                {
                    "name": "account",
                    "type": "address",
                    "indexed": false,
                    "internalType": "address"
                }
            ],
            "anonymous": false
        },
        {
            "type": "event",
            "name": "RaffleEntered",
            "inputs": [
                {
                    "name": "player",
                    "type": "address",
                    "indexed": false,
                    "internalType": "address"
                }
            ],
            "anonymous": false
        },
        {
            "type": "event",
            "name": "RaffleRequestWinner",
            "inputs": [
                {
                    "name": "requestId",
                    "type": "uint256",
                    "indexed": false,
                    "internalType": "uint256"
                }
            ],
            "anonymous": false
        },
        {
            "type": "event",
            "name": "RaffleWinner",
            "inputs": [
                {
                    "name": "winner",
                    "type": "address",
                    "indexed": true,
                    "internalType": "address"
                }
            ],
            "anonymous": false
        },
        {
            "type": "event",
            "name": "RandomClick",
            "inputs": [
                {
                    "name": "user",
                    "type": "address",
                    "indexed": true,
                    "internalType": "address"
                },
                {
                    "name": "success",
                    "type": "bool",
                    "indexed": false,
                    "internalType": "bool"
                },
                {
                    "name": "timestamp",
                    "type": "uint256",
                    "indexed": false,
                    "internalType": "uint256"
                }
            ],
            "anonymous": false
        },
        {
            "type": "event",
            "name": "Transfer",
            "inputs": [
                {
                    "name": "from",
                    "type": "address",
                    "indexed": true,
                    "internalType": "address"
                },
                {
                    "name": "to",
                    "type": "address",
                    "indexed": true,
                    "internalType": "address"
                },
                {
                    "name": "tokenId",
                    "type": "uint256",
                    "indexed": true,
                    "internalType": "uint256"
                }
            ],
            "anonymous": false
        },
        {
            "type": "event",
            "name": "Unpaused",
            "inputs": [
                {
                    "name": "account",
                    "type": "address",
                    "indexed": false,
                    "internalType": "address"
                }
            ],
            "anonymous": false
        },
        {
            "type": "error",
            "name": "ERC721IncorrectOwner",
            "inputs": [
                {
                    "name": "sender",
                    "type": "address",
                    "internalType": "address"
                },
                {
                    "name": "tokenId",
                    "type": "uint256",
                    "internalType": "uint256"
                },
                {
                    "name": "owner",
                    "type": "address",
                    "internalType": "address"
                }
            ]
        },
        {
            "type": "error",
            "name": "ERC721InsufficientApproval",
            "inputs": [
                {
                    "name": "operator",
                    "type": "address",
                    "internalType": "address"
                },
                {
                    "name": "tokenId",
                    "type": "uint256",
                    "internalType": "uint256"
                }
            ]
        },
        {
            "type": "error",
            "name": "ERC721InvalidApprover",
            "inputs": [
                {
                    "name": "approver",
                    "type": "address",
                    "internalType": "address"
                }
            ]
        },
        {
            "type": "error",
            "name": "ERC721InvalidOperator",
            "inputs": [
                {
                    "name": "operator",
                    "type": "address",
                    "internalType": "address"
                }
            ]
        },
        {
            "type": "error",
            "name": "ERC721InvalidOwner",
            "inputs": [
                {
                    "name": "owner",
                    "type": "address",
                    "internalType": "address"
                }
            ]
        },
        {
            "type": "error",
            "name": "ERC721InvalidReceiver",
            "inputs": [
                {
                    "name": "receiver",
                    "type": "address",
                    "internalType": "address"
                }
            ]
        },
        {
            "type": "error",
            "name": "ERC721InvalidSender",
            "inputs": [
                {
                    "name": "sender",
                    "type": "address",
                    "internalType": "address"
                }
            ]
        },
        {
            "type": "error",
            "name": "ERC721NonexistentToken",
            "inputs": [
                {
                    "name": "tokenId",
                    "type": "uint256",
                    "internalType": "uint256"
                }
            ]
        },
        {
            "type": "error",
            "name": "EnforcedPause",
            "inputs": []
        },
        {
            "type": "error",
            "name": "ExpectedPause",
            "inputs": []
        },
        {
            "type": "error",
            "name": "OnlyCoordinatorCanFulfill",
            "inputs": [
                {
                    "name": "have",
                    "type": "address",
                    "internalType": "address"
                },
                {
                    "name": "want",
                    "type": "address",
                    "internalType": "address"
                }
            ]
        },
        {
            "type": "error",
            "name": "OnlyOwnerOrCoordinator",
            "inputs": [
                {
                    "name": "have",
                    "type": "address",
                    "internalType": "address"
                },
                {
                    "name": "owner",
                    "type": "address",
                    "internalType": "address"
                },
                {
                    "name": "coordinator",
                    "type": "address",
                    "internalType": "address"
                }
            ]
        },
        {
            "type": "error",
            "name": "ZephyraNFT__CooldownActive",
            "inputs": [
                {
                    "name": "lastClickTime",
                    "type": "uint256",
                    "internalType": "uint256"
                },
                {
                    "name": "cooldownTime",
                    "type": "uint256",
                    "internalType": "uint256"
                }
            ]
        },
        {
            "type": "error",
            "name": "ZephyraNFT__NotEnoughEntryFee",
            "inputs": []
        },
        {
            "type": "error",
            "name": "ZephyraNFT__NotEnoughTokens",
            "inputs": [
                {
                    "name": "balance",
                    "type": "uint256",
                    "internalType": "uint256"
                },
                {
                    "name": "required",
                    "type": "uint256",
                    "internalType": "uint256"
                }
            ]
        },
        {
            "type": "error",
            "name": "ZephyraNFT__NotOwner",
            "inputs": []
        },
        {
            "type": "error",
            "name": "ZephyraNFT__PlayerCantEnterMoreThanOnce",
            "inputs": []
        },
        {
            "type": "error",
            "name": "ZephyraNFT__RaffleNotOpen",
            "inputs": []
        },
        {
            "type": "error",
            "name": "ZephyraNFT__TokenDoesNotExist",
            "inputs": [
                {
                    "name": "tokenId",
                    "type": "uint256",
                    "internalType": "uint256"
                }
            ]
        },
        {
            "type": "error",
            "name": "ZephyraNFT__UpkeepNotNeeded",
            "inputs": [
                {
                    "name": "balance",
                    "type": "uint256",
                    "internalType": "uint256"
                },
                {
                    "name": "playerLegnth",
                    "type": "uint256",
                    "internalType": "uint256"
                },
                {
                    "name": "raffleState",
                    "type": "uint256",
                    "internalType": "uint256"
                }
            ]
        },
        {
            "type": "error",
            "name": "ZeroAddress",
            "inputs": []
        }
    ],
    "bytecode": {
        "object": "0x61014060405234801562000011575f80fd5b5060405162004e7a38038062004e7a8339818101604052810190620000379190620005d5565b8333805f6040518060400160405280600a81526020017f5a6570687972614e4654000000000000000000000000000000000000000000008152506040518060400160405280600581526020017f5a45504859000000000000000000000000000000000000000000000000000000815250815f9081620000b79190620008f4565b508060019081620000c99190620008f4565b5050505f73ffffffffffffffffffffffffffffffffffffffff168273ffffffffffffffffffffffffffffffffffffffff16036200013d576040517f08c379a0000000000000000000000000000000000000000000000000000000008152600401620001349062000a36565b60405180910390fd5b81600660016101000a81548173ffffffffffffffffffffffffffffffffffffffff021916908373ffffffffffffffffffffffffffffffffffffffff1602179055505f73ffffffffffffffffffffffffffffffffffffffff168173ffffffffffffffffffffffffffffffffffffffff1614620001c457620001c3816200039260201b60201c565b5b5050505f73ffffffffffffffffffffffffffffffffffffffff168173ffffffffffffffffffffffffffffffffffffffff16036200022d576040517fd92e233d00000000000000000000000000000000000000000000000000000000815260040160405180910390fd5b8060085f6101000a81548173ffffffffffffffffffffffffffffffffffffffff021916908373ffffffffffffffffffffffffffffffffffffffff160217905550505f73ffffffffffffffffffffffffffffffffffffffff168873ffffffffffffffffffffffffffffffffffffffff1603620002df576040517f08c379a0000000000000000000000000000000000000000000000000000000008152600401620002d69062000aa4565b60405180910390fd5b8773ffffffffffffffffffffffffffffffffffffffff1660808173ffffffffffffffffffffffffffffffffffffffff168152505086600c819055508560a081815250508460c081815250508261010081815250508063ffffffff1660e08163ffffffff168152505081610120818152505042600a819055505f600b60146101000a81548160ff021916908360018111156200037f576200037e62000ac4565b5b0217905550505050505050505062000b5f565b3373ffffffffffffffffffffffffffffffffffffffff168173ffffffffffffffffffffffffffffffffffffffff160362000403576040517f08c379a0000000000000000000000000000000000000000000000000000000008152600401620003fa9062000b3f565b60405180910390fd5b8060075f6101000a81548173ffffffffffffffffffffffffffffffffffffffff021916908373ffffffffffffffffffffffffffffffffffffffff1602179055508073ffffffffffffffffffffffffffffffffffffffff16600660019054906101000a900473ffffffffffffffffffffffffffffffffffffffff1673ffffffffffffffffffffffffffffffffffffffff167fed8889f560326eb138920d842192f0eb3dd22b4f139c87a2c57538e05bae127860405160405180910390a350565b5f80fd5b5f73ffffffffffffffffffffffffffffffffffffffff82169050919050565b5f620004f182620004c6565b9050919050565b6200050381620004e5565b81146200050e575f80fd5b50565b5f815190506200052181620004f8565b92915050565b5f819050919050565b6200053b8162000527565b811462000546575f80fd5b50565b5f81519050620005598162000530565b92915050565b5f819050919050565b62000573816200055f565b81146200057e575f80fd5b50565b5f81519050620005918162000568565b92915050565b5f63ffffffff82169050919050565b620005b18162000597565b8114620005bc575f80fd5b50565b5f81519050620005cf81620005a6565b92915050565b5f805f805f805f80610100898b031215620005f557620005f4620004c2565b5b5f620006048b828c0162000511565b9850506020620006178b828c0162000549565b97505060406200062a8b828c0162000549565b96505060606200063d8b828c0162000549565b9550506080620006508b828c0162000511565b94505060a0620006638b828c0162000581565b93505060c0620006768b828c0162000549565b92505060e0620006898b828c01620005bf565b9150509295985092959890939650565b5f81519050919050565b7f4e487b71000000000000000000000000000000000000000000000000000000005f52604160045260245ffd5b7f4e487b71000000000000000000000000000000000000000000000000000000005f52602260045260245ffd5b5f60028204905060018216806200071557607f821691505b6020821081036200072b576200072a620006d0565b5b50919050565b5f819050815f5260205f209050919050565b5f6020601f8301049050919050565b5f82821b905092915050565b5f600883026200078f7fffffffffffffffffffffffffffffffffffffffffffffffffffffffffffffffff8262000752565b6200079b868362000752565b95508019841693508086168417925050509392505050565b5f819050919050565b5f620007dc620007d6620007d08462000527565b620007b3565b62000527565b9050919050565b5f819050919050565b620007f783620007bc565b6200080f6200080682620007e3565b8484546200075e565b825550505050565b5f90565b6200082562000817565b62000832818484620007ec565b505050565b5b8181101562000859576200084d5f826200081b565b60018101905062000838565b5050565b601f821115620008a857620008728162000731565b6200087d8462000743565b810160208510156200088d578190505b620008a56200089c8562000743565b83018262000837565b50505b505050565b5f82821c905092915050565b5f620008ca5f1984600802620008ad565b1980831691505092915050565b5f620008e48383620008b9565b9150826002028217905092915050565b620008ff8262000699565b67ffffffffffffffff8111156200091b576200091a620006a3565b5b620009278254620006fd565b620009348282856200085d565b5f60209050601f8311600181146200096a575f841562000955578287015190505b620009618582620008d7565b865550620009d0565b601f1984166200097a8662000731565b5f5b82811015620009a3578489015182556001820191506020850194506020810190506200097c565b86831015620009c35784890151620009bf601f891682620008b9565b8355505b6001600288020188555050505b505050505050565b5f82825260208201905092915050565b7f43616e6e6f7420736574206f776e657220746f207a65726f00000000000000005f82015250565b5f62000a1e601883620009d8565b915062000a2b82620009e8565b602082019050919050565b5f6020820190508181035f83015262000a4f8162000a10565b9050919050565b7f496e76616c696420746f6b656e206164647265737300000000000000000000005f82015250565b5f62000a8c601583620009d8565b915062000a998262000a56565b602082019050919050565b5f6020820190508181035f83015262000abd8162000a7e565b9050919050565b7f4e487b71000000000000000000000000000000000000000000000000000000005f52602160045260245ffd5b7f43616e6e6f74207472616e7366657220746f2073656c660000000000000000005f82015250565b5f62000b27601783620009d8565b915062000b348262000af1565b602082019050919050565b5f6020820190508181035f83015262000b588162000b19565b9050919050565b60805160a05160c05160e05161010051610120516142c562000bb55f395f610d5601525f610d3001525f610d8701525f610f4501525f81816117ab0152611a7401525f818161155f01526115fd01526142c55ff3fe608060405260043610610212575f3560e01c806379ba509711610117578063b42909e71161009f578063e55ae4e81161006e578063e55ae4e814610756578063e586a4f014610792578063e985e9c5146107bc578063efa1c482146107f8578063f2fde38b1461082257610219565b8063b42909e7146106be578063b88d4fde146106c8578063c1c244e8146106f0578063c87b56dd1461071a57610219565b80638ea98117116100e65780638ea98117146105f057806395d89b41146106185780639eccacf614610642578063a22cb4651461066c578063a467e1081461069457610219565b806379ba50971461057057806382d8a118146105865780638456cb59146105b05780638da5cb5b146105c657610219565b806342842e0e1161019a5780634a5aae37116101695780634a5aae37146104555780635c975abb146104915780636352211e146104bb5780636e04ff0d146104f757806370a082311461053457610219565b806342842e0e1461039f5780634585e33b146103c7578063458ec208146103ef578063473f1ddc1461042b57610219565b8063115cbaf5116101e1578063115cbaf5146102e75780631fe543e31461031157806323b872dd146103395780633f4ba83a1461036157806340d097c31461037757610219565b806301ffc9a71461021d57806306fdde0314610259578063081812fc14610283578063095ea7b3146102bf57610219565b3661021957005b5f80fd5b348015610228575f80fd5b50610243600480360381019061023e9190612fed565b61084a565b6040516102509190613032565b60405180910390f35b348015610264575f80fd5b5061026d61092b565b60405161027a91906130d5565b60405180910390f35b34801561028e575f80fd5b506102a960048036038101906102a49190613128565b6109ba565b6040516102b69190613192565b60405180910390f35b3480156102ca575f80fd5b506102e560048036038101906102e091906131d5565b6109d5565b005b3480156102f2575f80fd5b506102fb6109eb565b6040516103089190613286565b60405180910390f35b34801561031c575f80fd5b5061033760048036038101906103329190613300565b610a01565b005b348015610344575f80fd5b5061035f600480360381019061035a919061335d565b610ac5565b005b34801561036c575f80fd5b50610375610bc4565b005b348015610382575f80fd5b5061039d600480360381019061039891906133ad565b610bd6565b005b3480156103aa575f80fd5b506103c560048036038101906103c0919061335d565b610c51565b005b3480156103d2575f80fd5b506103ed60048036038101906103e8919061342d565b610c70565b005b3480156103fa575f80fd5b50610415600480360381019061041091906133ad565b610eb7565b6040516104229190613032565b60405180910390f35b348015610436575f80fd5b5061043f610ed4565b60405161044c9190613192565b60405180910390f35b348015610460575f80fd5b5061047b600480360381019061047691906133ad565b610efc565b6040516104889190613032565b60405180910390f35b34801561049c575f80fd5b506104a5610f19565b6040516104b29190613032565b60405180910390f35b3480156104c6575f80fd5b506104e160048036038101906104dc9190613128565b610f2e565b6040516104ee9190613192565b60405180910390f35b348015610502575f80fd5b5061051d600480360381019061051891906135a0565b610f3f565b60405161052b929190613639565b60405180910390f35b34801561053f575f80fd5b5061055a600480360381019061055591906133ad565b611022565b6040516105679190613676565b60405180910390f35b34801561057b575f80fd5b506105846110d8565b005b348015610591575f80fd5b5061059a61126b565b6040516105a79190613676565b60405180910390f35b3480156105bb575f80fd5b506105c4611271565b005b3480156105d1575f80fd5b506105da611283565b6040516105e79190613192565b60405180910390f35b3480156105fb575f80fd5b50610616600480360381019061061191906133ad565b6112ac565b005b348015610623575f80fd5b5061062c611489565b60405161063991906130d5565b60405180910390f35b34801561064d575f80fd5b50610656611519565b60405161066391906136ea565b60405180910390f35b348015610677575f80fd5b50610692600480360381019061068d919061372d565b61153e565b005b34801561069f575f80fd5b506106a8611554565b6040516106b59190613676565b60405180910390f35b6106c661155a565b005b3480156106d3575f80fd5b506106ee60048036038101906106e9919061376b565b611908565b005b3480156106fb575f80fd5b5061070461192d565b6040516107119190613676565b60405180910390f35b348015610725575f80fd5b50610740600480360381019061073b9190613128565b611936565b60405161074d91906130d5565b60405180910390f35b348015610761575f80fd5b5061077c60048036038101906107779190613128565b611a2d565b6040516107899190613192565b60405180910390f35b34801561079d575f80fd5b506107a6611a71565b6040516107b39190613676565b60405180910390f35b3480156107c7575f80fd5b506107e260048036038101906107dd91906137eb565b611a98565b6040516107ef9190613032565b60405180910390f35b348015610803575f80fd5b5061080c611b26565b60405161081991906138f1565b60405180910390f35b34801561082d575f80fd5b50610848600480360381019061084391906133ad565b611bb1565b005b5f7f80ac58cd000000000000000000000000000000000000000000000000000000007bffffffffffffffffffffffffffffffffffffffffffffffffffffffff1916827bffffffffffffffffffffffffffffffffffffffffffffffffffffffff1916148061091457507f5b5e139f000000000000000000000000000000000000000000000000000000007bffffffffffffffffffffffffffffffffffffffffffffffffffffffff1916827bffffffffffffffffffffffffffffffffffffffffffffffffffffffff1916145b80610924575061092382611bc5565b5b9050919050565b60605f80546109399061393e565b80601f01602080910402602001604051908101604052809291908181526020018280546109659061393e565b80156109b05780601f10610987576101008083540402835291602001916109b0565b820191905f5260205f20905b81548152906001019060200180831161099357829003601f168201915b5050505050905090565b5f6109c482611c2e565b506109ce82611cb4565b9050919050565b6109e782826109e2611ced565b611cf4565b5050565b5f600b60149054906101000a900460ff16905090565b60085f9054906101000a900473ffffffffffffffffffffffffffffffffffffffff1673ffffffffffffffffffffffffffffffffffffffff163373ffffffffffffffffffffffffffffffffffffffff1614610ab5573360085f9054906101000a900473ffffffffffffffffffffffffffffffffffffffff166040517f1cf993f4000000000000000000000000000000000000000000000000000000008152600401610aac92919061396e565b60405180910390fd5b610ac0838383611d06565b505050565b5f73ffffffffffffffffffffffffffffffffffffffff168273ffffffffffffffffffffffffffffffffffffffff1603610b35575f6040517f64a0ae92000000000000000000000000000000000000000000000000000000008152600401610b2c9190613192565b60405180910390fd5b5f610b488383610b43611ced565b611f51565b90508373ffffffffffffffffffffffffffffffffffffffff168173ffffffffffffffffffffffffffffffffffffffff1614610bbe578382826040517f64283d7b000000000000000000000000000000000000000000000000000000008152600401610bb593929190613995565b60405180910390fd5b50505050565b610bcc611f66565b610bd4611ff8565b565b610bde611f66565b5f600d549050610bee8282612059565b600d5f81548092919060010191905055508173ffffffffffffffffffffffffffffffffffffffff167ff2b290a76feb54be358b555507421d765609171aefa0646f109a653228ff81b882604051610c459190613676565b60405180910390a25050565b610c6b83838360405180602001604052805f815250611908565b505050565b5f610c8860405180602001604052805f815250610f3f565b50905080610cf75747600980549050600b60149054906101000a900460ff166001811115610cb957610cb8613213565b5b6040517f8ee44b36000000000000000000000000000000000000000000000000000000008152600401610cee939291906139ca565b60405180910390fd5b6001600b60146101000a81548160ff02191690836001811115610d1d57610d1c613213565b5b02179055505f6040518060c001604052807f000000000000000000000000000000000000000000000000000000000000000081526020017f00000000000000000000000000000000000000000000000000000000000000008152602001600361ffff1681526020017f000000000000000000000000000000000000000000000000000000000000000063ffffffff168152602001600163ffffffff168152602001610dd760405180602001604052805f1515815250612076565b81525090505f60085f9054906101000a900473ffffffffffffffffffffffffffffffffffffffff1673ffffffffffffffffffffffffffffffffffffffff16639b1c385e836040518263ffffffff1660e01b8152600401610e379190613b2e565b6020604051808303815f875af1158015610e53573d5f803e3d5ffd5b505050506040513d601f19601f82011682018060405250810190610e779190613b62565b90507f6a26914eaa14b7bba3811166ef5bb36f7720311d335c6956bce19c3be5fba5d581604051610ea89190613676565b60405180910390a15050505050565b600e602052805f5260405f205f915054906101000a900460ff1681565b5f600b5f9054906101000a900473ffffffffffffffffffffffffffffffffffffffff16905090565b600f602052805f5260405f205f915054906101000a900460ff1681565b5f60065f9054906101000a900460ff16905090565b5f610f3882611c2e565b9050919050565b5f60605f7f0000000000000000000000000000000000000000000000000000000000000000600a5442610f729190613bba565b1190505f806001811115610f8957610f88613213565b5b600b60149054906101000a900460ff166001811115610fab57610faa613213565b5b1490505f80471190505f6001600980549050119050838015610fca5750825b8015610fd35750815b8015610fdc5750805b9550856040518060400160405280600381526020017f30783000000000000000000000000000000000000000000000000000000000008152509550955050505050915091565b5f8073ffffffffffffffffffffffffffffffffffffffff168273ffffffffffffffffffffffffffffffffffffffff1603611093575f6040517f89c62b6400000000000000000000000000000000000000000000000000000000815260040161108a9190613192565b60405180910390fd5b60035f8373ffffffffffffffffffffffffffffffffffffffff1673ffffffffffffffffffffffffffffffffffffffff1681526020019081526020015f20549050919050565b60075f9054906101000a900473ffffffffffffffffffffffffffffffffffffffff1673ffffffffffffffffffffffffffffffffffffffff163373ffffffffffffffffffffffffffffffffffffffff1614611167576040517f08c379a000000000000000000000000000000000000000000000000000000000815260040161115e90613c37565b60405180910390fd5b5f600660019054906101000a900473ffffffffffffffffffffffffffffffffffffffff16905033600660016101000a81548173ffffffffffffffffffffffffffffffffffffffff021916908373ffffffffffffffffffffffffffffffffffffffff1602179055505f60075f6101000a81548173ffffffffffffffffffffffffffffffffffffffff021916908373ffffffffffffffffffffffffffffffffffffffff1602179055503373ffffffffffffffffffffffffffffffffffffffff168173ffffffffffffffffffffffffffffffffffffffff167f8be0079c531659141344cd1fd0a4f28419497f9722a3daafe3b4186f6b6457e060405160405180910390a350565b600d5481565b611279611f66565b61128161210e565b565b5f600660019054906101000a900473ffffffffffffffffffffffffffffffffffffffff16905090565b6112b4611283565b73ffffffffffffffffffffffffffffffffffffffff163373ffffffffffffffffffffffffffffffffffffffff161415801561133c575060085f9054906101000a900473ffffffffffffffffffffffffffffffffffffffff1673ffffffffffffffffffffffffffffffffffffffff163373ffffffffffffffffffffffffffffffffffffffff1614155b156113aa573361134a611283565b60085f9054906101000a900473ffffffffffffffffffffffffffffffffffffffff166040517f061db9c10000000000000000000000000000000000000000000000000000000081526004016113a193929190613c55565b60405180910390fd5b5f73ffffffffffffffffffffffffffffffffffffffff168173ffffffffffffffffffffffffffffffffffffffff160361140f576040517fd92e233d00000000000000000000000000000000000000000000000000000000815260040160405180910390fd5b8060085f6101000a81548173ffffffffffffffffffffffffffffffffffffffff021916908373ffffffffffffffffffffffffffffffffffffffff1602179055507fd1a6a14209a385a964d036e404cb5cfb71f4000cdb03c9366292430787261be68160405161147e9190613192565b60405180910390a150565b6060600180546114989061393e565b80601f01602080910402602001604051908101604052809291908181526020018280546114c49061393e565b801561150f5780601f106114e65761010080835404028352916020019161150f565b820191905f5260205f20905b8154815290600101906020018083116114f257829003601f168201915b5050505050905090565b60085f9054906101000a900473ffffffffffffffffffffffffffffffffffffffff1681565b611550611549611ced565b8383612170565b5050565b600c5481565b600c547f000000000000000000000000000000000000000000000000000000000000000073ffffffffffffffffffffffffffffffffffffffff166370a08231336040518263ffffffff1660e01b81526004016115b69190613192565b602060405180830381865afa1580156115d1573d5f803e3d5ffd5b505050506040513d601f19601f820116820180604052508101906115f59190613b62565b10156116d3577f000000000000000000000000000000000000000000000000000000000000000073ffffffffffffffffffffffffffffffffffffffff166370a08231336040518263ffffffff1660e01b81526004016116549190613192565b602060405180830381865afa15801561166f573d5f803e3d5ffd5b505050506040513d601f19601f820116820180604052508101906116939190613b62565b600c546040517fef36ae950000000000000000000000000000000000000000000000000000000081526004016116ca929190613c8a565b60405180910390fd5b600e5f3373ffffffffffffffffffffffffffffffffffffffff1673ffffffffffffffffffffffffffffffffffffffff1681526020019081526020015f205f9054906101000a900460ff1615611754576040517fbdce860300000000000000000000000000000000000000000000000000000000815260040160405180910390fd5b6001600e5f3373ffffffffffffffffffffffffffffffffffffffff1673ffffffffffffffffffffffffffffffffffffffff1681526020019081526020015f205f6101000a81548160ff0219169083151502179055507f0000000000000000000000000000000000000000000000000000000000000000341015611803576040517f6ae86c9300000000000000000000000000000000000000000000000000000000815260040160405180910390fd5b5f600181111561181657611815613213565b5b600b60149054906101000a900460ff16600181111561183857611837613213565b5b1461186f576040517f20237f1d00000000000000000000000000000000000000000000000000000000815260040160405180910390fd5b600933908060018154018082558091505060019003905f5260205f20015f9091909190916101000a81548173ffffffffffffffffffffffffffffffffffffffff021916908373ffffffffffffffffffffffffffffffffffffffff1602179055507f634f3211e3a4e43fee5a21ad9f87ca153b300fc78b1c557a2057dbe9c63bcb47336040516118fe9190613192565b60405180910390a1565b611913848484610ac5565b61192761191e611ced565b858585856122d9565b50505050565b5f600a54905090565b60605f73ffffffffffffffffffffffffffffffffffffffff1661195883610f2e565b73ffffffffffffffffffffffffffffffffffffffff16036119b057816040517f942fbd850000000000000000000000000000000000000000000000000000000081526004016119a79190613676565b60405180910390fd5b5f60405180608001604052806042815260200161424e6042913990506119d4612485565b611a056119df61092b565b836040516020016119f1929190613eab565b6040516020818303038152906040526124c2565b604051602001611a16929190613efa565b604051602081830303815290604052915050919050565b5f60098281548110611a4257611a41613f1d565b5b905f5260205f20015f9054906101000a900473ffffffffffffffffffffffffffffffffffffffff169050919050565b5f7f0000000000000000000000000000000000000000000000000000000000000000905090565b5f60055f8473ffffffffffffffffffffffffffffffffffffffff1673ffffffffffffffffffffffffffffffffffffffff1681526020019081526020015f205f8373ffffffffffffffffffffffffffffffffffffffff1673ffffffffffffffffffffffffffffffffffffffff1681526020019081526020015f205f9054906101000a900460ff16905092915050565b60606009805480602002602001604051908101604052809291908181526020018280548015611ba757602002820191905f5260205f20905b815f9054906101000a900473ffffffffffffffffffffffffffffffffffffffff1673ffffffffffffffffffffffffffffffffffffffff1681526020019060010190808311611b5e575b5050505050905090565b611bb9611f66565b611bc2816124ef565b50565b5f7f01ffc9a7000000000000000000000000000000000000000000000000000000007bffffffffffffffffffffffffffffffffffffffffffffffffffffffff1916827bffffffffffffffffffffffffffffffffffffffffffffffffffffffff1916149050919050565b5f80611c398361261c565b90505f73ffffffffffffffffffffffffffffffffffffffff168173ffffffffffffffffffffffffffffffffffffffff1603611cab57826040517f7e273289000000000000000000000000000000000000000000000000000000008152600401611ca29190613676565b60405180910390fd5b80915050919050565b5f60045f8381526020019081526020015f205f9054906101000a900473ffffffffffffffffffffffffffffffffffffffff169050919050565b5f33905090565b611d018383836001612655565b505050565b5f60098054905083835f818110611d2057611d1f613f1d565b5b90506020020135611d319190613f77565b90505f60098281548110611d4857611d47613f1d565b5b905f5260205f20015f9054906101000a900473ffffffffffffffffffffffffffffffffffffffff16905080600b5f6101000a81548173ffffffffffffffffffffffffffffffffffffffff021916908373ffffffffffffffffffffffffffffffffffffffff1602179055505f67ffffffffffffffff811115611dcc57611dcb61347c565b5b604051908082528060200260200182016040528015611dfa5781602001602082028036833780820191505090505b5060099080519060200190611e10929190612ee5565b5042600a819055505f600b60146101000a81548160ff02191690836001811115611e3d57611e3c613213565b5b02179055508073ffffffffffffffffffffffffffffffffffffffff167f16d6ae18ca26331fba5a8b53b0749a009d33b172b68a49d64a767782f5b6010360405160405180910390a25f600d549050611e958282612059565b600d5f81548092919060010191905055506001600f5f8473ffffffffffffffffffffffffffffffffffffffff1673ffffffffffffffffffffffffffffffffffffffff1681526020019081526020015f205f6101000a81548160ff0219169083151502179055508173ffffffffffffffffffffffffffffffffffffffff167ff2b290a76feb54be358b555507421d765609171aefa0646f109a653228ff81b882604051611f419190613676565b60405180910390a2505050505050565b5f611f5d848484612814565b90509392505050565b600660019054906101000a900473ffffffffffffffffffffffffffffffffffffffff1673ffffffffffffffffffffffffffffffffffffffff163373ffffffffffffffffffffffffffffffffffffffff1614611ff6576040517f08c379a0000000000000000000000000000000000000000000000000000000008152600401611fed90613ff1565b60405180910390fd5b565b612000612831565b5f60065f6101000a81548160ff0219169083151502179055507f5db9ee0a495bf2e6ff9c91a7834c1ba4fdd244a5e8aa4e537bd38aeae4b073aa612042611ced565b60405161204f9190613192565b60405180910390a1565b612072828260405180602001604052805f815250612871565b5050565b60607f92fd13387c7fe7befbc38d303d6468778fb9731bc4583f17d92989c6fcfdeaaa826040516024016120aa9190614038565b604051602081830303815290604052907bffffffffffffffffffffffffffffffffffffffffffffffffffffffff19166020820180517bffffffffffffffffffffffffffffffffffffffffffffffffffffffff83818316178352505050509050919050565b612116612894565b600160065f6101000a81548160ff0219169083151502179055507f62e78cea01bee320cd4e420270b5ea74000d11b0c9f74754ebdbfc544b05a258612159611ced565b6040516121669190613192565b60405180910390a1565b5f73ffffffffffffffffffffffffffffffffffffffff168273ffffffffffffffffffffffffffffffffffffffff16036121e057816040517f5b08ba180000000000000000000000000000000000000000000000000000000081526004016121d79190613192565b60405180910390fd5b8060055f8573ffffffffffffffffffffffffffffffffffffffff1673ffffffffffffffffffffffffffffffffffffffff1681526020019081526020015f205f8473ffffffffffffffffffffffffffffffffffffffff1673ffffffffffffffffffffffffffffffffffffffff1681526020019081526020015f205f6101000a81548160ff0219169083151502179055508173ffffffffffffffffffffffffffffffffffffffff168373ffffffffffffffffffffffffffffffffffffffff167f17307eab39ab6107e8899845ad3d59bd9653f200f220920489ca2b5937696c31836040516122cc9190613032565b60405180910390a3505050565b5f8373ffffffffffffffffffffffffffffffffffffffff163b111561247e578273ffffffffffffffffffffffffffffffffffffffff1663150b7a02868685856040518563ffffffff1660e01b81526004016123379493929190614051565b6020604051808303815f875af192505050801561237257506040513d601f19601f8201168201806040525081019061236f91906140af565b60015b6123f3573d805f81146123a0576040519150601f19603f3d011682016040523d82523d5f602084013e6123a5565b606091505b505f8151036123eb57836040517f64a0ae920000000000000000000000000000000000000000000000000000000081526004016123e29190613192565b60405180910390fd5b805181602001fd5b63150b7a0260e01b7bffffffffffffffffffffffffffffffffffffffffffffffffffffffff1916817bffffffffffffffffffffffffffffffffffffffffffffffffffffffff19161461247c57836040517f64a0ae920000000000000000000000000000000000000000000000000000000081526004016124739190613192565b60405180910390fd5b505b5050505050565b60606040518060400160405280601d81526020017f646174613a6170706c69636174696f6e2f6a736f6e3b6261736536342c000000815250905090565b60606124e88260405180606001604052806040815260200161420e6040913960016128d5565b9050919050565b3373ffffffffffffffffffffffffffffffffffffffff168173ffffffffffffffffffffffffffffffffffffffff160361255d576040517f08c379a000000000000000000000000000000000000000000000000000000000815260040161255490614124565b60405180910390fd5b8060075f6101000a81548173ffffffffffffffffffffffffffffffffffffffff021916908373ffffffffffffffffffffffffffffffffffffffff1602179055508073ffffffffffffffffffffffffffffffffffffffff16600660019054906101000a900473ffffffffffffffffffffffffffffffffffffffff1673ffffffffffffffffffffffffffffffffffffffff167fed8889f560326eb138920d842192f0eb3dd22b4f139c87a2c57538e05bae127860405160405180910390a350565b5f60025f8381526020019081526020015f205f9054906101000a900473ffffffffffffffffffffffffffffffffffffffff169050919050565b808061268d57505f73ffffffffffffffffffffffffffffffffffffffff168273ffffffffffffffffffffffffffffffffffffffff1614155b156127bf575f61269c84611c2e565b90505f73ffffffffffffffffffffffffffffffffffffffff168373ffffffffffffffffffffffffffffffffffffffff161415801561270657508273ffffffffffffffffffffffffffffffffffffffff168173ffffffffffffffffffffffffffffffffffffffff1614155b801561271957506127178184611a98565b155b1561275b57826040517fa9fbf51f0000000000000000000000000000000000000000000000000000000081526004016127529190613192565b60405180910390fd5b81156127bd57838573ffffffffffffffffffffffffffffffffffffffff168273ffffffffffffffffffffffffffffffffffffffff167f8c5be1e5ebec7d5bd14f71427d1e84f3dd0314c0f7b2291e5b200ac8c7c3b92560405160405180910390a45b505b8360045f8581526020019081526020015f205f6101000a81548173ffffffffffffffffffffffffffffffffffffffff021916908373ffffffffffffffffffffffffffffffffffffffff16021790555050505050565b5f61281d612894565b612828848484612a64565b90509392505050565b612839610f19565b61286f576040517f8dfc202b00000000000000000000000000000000000000000000000000000000815260040160405180910390fd5b565b61287b8383612c6f565b61288f612886611ced565b5f8585856122d9565b505050565b61289c610f19565b156128d3576040517fd93c066500000000000000000000000000000000000000000000000000000000815260040160405180910390fd5b565b60605f8451036128f55760405180602001604052805f8152509050612a5d565b5f8261292657600360028651600461290d9190614142565b6129179190614183565b61292191906141b6565b61294d565b6003600286516129369190614183565b61294091906141b6565b600461294c9190614142565b5b90505f8167ffffffffffffffff81111561296a5761296961347c565b5b6040519080825280601f01601f19166020018201604052801561299c5781602001600182028036833780820191505090505b509050600185016020820187885189016020810180515f82525b82841015612a11576003840193508351603f8160121c168701518653600186019550603f81600c1c168701518653600186019550603f8160061c168701518653600186019550603f81168701518653600186019550506129b6565b8082528915612a515760038c510660018114612a345760028114612a4757612a4f565b603d6001870353603d6002870353612a4f565b603d60018703535b505b50505050505080925050505b9392505050565b5f80612a6f8461261c565b90505f73ffffffffffffffffffffffffffffffffffffffff168373ffffffffffffffffffffffffffffffffffffffff1614612ab057612aaf818486612d62565b5b5f73ffffffffffffffffffffffffffffffffffffffff168173ffffffffffffffffffffffffffffffffffffffff1614612b3b57612aef5f855f80612655565b600160035f8373ffffffffffffffffffffffffffffffffffffffff1673ffffffffffffffffffffffffffffffffffffffff1681526020019081526020015f205f82825403925050819055505b5f73ffffffffffffffffffffffffffffffffffffffff168573ffffffffffffffffffffffffffffffffffffffff1614612bba57600160035f8773ffffffffffffffffffffffffffffffffffffffff1673ffffffffffffffffffffffffffffffffffffffff1681526020019081526020015f205f82825401925050819055505b8460025f8681526020019081526020015f205f6101000a81548173ffffffffffffffffffffffffffffffffffffffff021916908373ffffffffffffffffffffffffffffffffffffffff160217905550838573ffffffffffffffffffffffffffffffffffffffff168273ffffffffffffffffffffffffffffffffffffffff167fddf252ad1be2c89b69c2b068fc378daa952ba7f163c4a11628f55a4df523b3ef60405160405180910390a4809150509392505050565b5f73ffffffffffffffffffffffffffffffffffffffff168273ffffffffffffffffffffffffffffffffffffffff1603612cdf575f6040517f64a0ae92000000000000000000000000000000000000000000000000000000008152600401612cd69190613192565b60405180910390fd5b5f612ceb83835f611f51565b90505f73ffffffffffffffffffffffffffffffffffffffff168173ffffffffffffffffffffffffffffffffffffffff1614612d5d575f6040517f73c6ac6e000000000000000000000000000000000000000000000000000000008152600401612d549190613192565b60405180910390fd5b505050565b612d6d838383612e25565b612e20575f73ffffffffffffffffffffffffffffffffffffffff168373ffffffffffffffffffffffffffffffffffffffff1603612de157806040517f7e273289000000000000000000000000000000000000000000000000000000008152600401612dd89190613676565b60405180910390fd5b81816040517f177e802f000000000000000000000000000000000000000000000000000000008152600401612e179291906141e6565b60405180910390fd5b505050565b5f8073ffffffffffffffffffffffffffffffffffffffff168373ffffffffffffffffffffffffffffffffffffffff1614158015612edc57508273ffffffffffffffffffffffffffffffffffffffff168473ffffffffffffffffffffffffffffffffffffffff161480612e9d5750612e9c8484611a98565b5b80612edb57508273ffffffffffffffffffffffffffffffffffffffff16612ec383611cb4565b73ffffffffffffffffffffffffffffffffffffffff16145b5b90509392505050565b828054828255905f5260205f20908101928215612f5b579160200282015b82811115612f5a578251825f6101000a81548173ffffffffffffffffffffffffffffffffffffffff021916908373ffffffffffffffffffffffffffffffffffffffff16021790555091602001919060010190612f03565b5b509050612f689190612f6c565b5090565b5b80821115612f83575f815f905550600101612f6d565b5090565b5f604051905090565b5f80fd5b5f80fd5b5f7fffffffff0000000000000000000000000000000000000000000000000000000082169050919050565b612fcc81612f98565b8114612fd6575f80fd5b50565b5f81359050612fe781612fc3565b92915050565b5f6020828403121561300257613001612f90565b5b5f61300f84828501612fd9565b91505092915050565b5f8115159050919050565b61302c81613018565b82525050565b5f6020820190506130455f830184613023565b92915050565b5f81519050919050565b5f82825260208201905092915050565b5f5b83811015613082578082015181840152602081019050613067565b5f8484015250505050565b5f601f19601f8301169050919050565b5f6130a78261304b565b6130b18185613055565b93506130c1818560208601613065565b6130ca8161308d565b840191505092915050565b5f6020820190508181035f8301526130ed818461309d565b905092915050565b5f819050919050565b613107816130f5565b8114613111575f80fd5b50565b5f81359050613122816130fe565b92915050565b5f6020828403121561313d5761313c612f90565b5b5f61314a84828501613114565b91505092915050565b5f73ffffffffffffffffffffffffffffffffffffffff82169050919050565b5f61317c82613153565b9050919050565b61318c81613172565b82525050565b5f6020820190506131a55f830184613183565b92915050565b6131b481613172565b81146131be575f80fd5b50565b5f813590506131cf816131ab565b92915050565b5f80604083850312156131eb576131ea612f90565b5b5f6131f8858286016131c1565b925050602061320985828601613114565b9150509250929050565b7f4e487b71000000000000000000000000000000000000000000000000000000005f52602160045260245ffd5b6002811061325157613250613213565b5b50565b5f81905061326182613240565b919050565b5f61327082613254565b9050919050565b61328081613266565b82525050565b5f6020820190506132995f830184613277565b92915050565b5f80fd5b5f80fd5b5f80fd5b5f8083601f8401126132c0576132bf61329f565b5b8235905067ffffffffffffffff8111156132dd576132dc6132a3565b5b6020830191508360208202830111156132f9576132f86132a7565b5b9250929050565b5f805f6040848603121561331757613316612f90565b5b5f61332486828701613114565b935050602084013567ffffffffffffffff81111561334557613344612f94565b5b613351868287016132ab565b92509250509250925092565b5f805f6060848603121561337457613373612f90565b5b5f613381868287016131c1565b9350506020613392868287016131c1565b92505060406133a386828701613114565b9150509250925092565b5f602082840312156133c2576133c1612f90565b5b5f6133cf848285016131c1565b91505092915050565b5f8083601f8401126133ed576133ec61329f565b5b8235905067ffffffffffffffff81111561340a576134096132a3565b5b602083019150836001820283011115613426576134256132a7565b5b9250929050565b5f806020838503121561344357613442612f90565b5b5f83013567ffffffffffffffff8111156134605761345f612f94565b5b61346c858286016133d8565b92509250509250929050565b5f80fd5b7f4e487b71000000000000000000000000000000000000000000000000000000005f52604160045260245ffd5b6134b28261308d565b810181811067ffffffffffffffff821117156134d1576134d061347c565b5b80604052505050565b5f6134e3612f87565b90506134ef82826134a9565b919050565b5f67ffffffffffffffff82111561350e5761350d61347c565b5b6135178261308d565b9050602081019050919050565b828183375f83830152505050565b5f61354461353f846134f4565b6134da565b9050828152602081018484840111156135605761355f613478565b5b61356b848285613524565b509392505050565b5f82601f8301126135875761358661329f565b5b8135613597848260208601613532565b91505092915050565b5f602082840312156135b5576135b4612f90565b5b5f82013567ffffffffffffffff8111156135d2576135d1612f94565b5b6135de84828501613573565b91505092915050565b5f81519050919050565b5f82825260208201905092915050565b5f61360b826135e7565b61361581856135f1565b9350613625818560208601613065565b61362e8161308d565b840191505092915050565b5f60408201905061364c5f830185613023565b818103602083015261365e8184613601565b90509392505050565b613670816130f5565b82525050565b5f6020820190506136895f830184613667565b92915050565b5f819050919050565b5f6136b26136ad6136a884613153565b61368f565b613153565b9050919050565b5f6136c382613698565b9050919050565b5f6136d4826136b9565b9050919050565b6136e4816136ca565b82525050565b5f6020820190506136fd5f8301846136db565b92915050565b61370c81613018565b8114613716575f80fd5b50565b5f8135905061372781613703565b92915050565b5f806040838503121561374357613742612f90565b5b5f613750858286016131c1565b925050602061376185828601613719565b9150509250929050565b5f805f806080858703121561378357613782612f90565b5b5f613790878288016131c1565b94505060206137a1878288016131c1565b93505060406137b287828801613114565b925050606085013567ffffffffffffffff8111156137d3576137d2612f94565b5b6137df87828801613573565b91505092959194509250565b5f806040838503121561380157613800612f90565b5b5f61380e858286016131c1565b925050602061381f858286016131c1565b9150509250929050565b5f81519050919050565b5f82825260208201905092915050565b5f819050602082019050919050565b5f61385c82613153565b9050919050565b61386c81613852565b82525050565b5f61387d8383613863565b60208301905092915050565b5f602082019050919050565b5f61389f82613829565b6138a98185613833565b93506138b483613843565b805f5b838110156138e45781516138cb8882613872565b97506138d683613889565b9250506001810190506138b7565b5085935050505092915050565b5f6020820190508181035f8301526139098184613895565b905092915050565b7f4e487b71000000000000000000000000000000000000000000000000000000005f52602260045260245ffd5b5f600282049050600182168061395557607f821691505b60208210810361396857613967613911565b5b50919050565b5f6040820190506139815f830185613183565b61398e6020830184613183565b9392505050565b5f6060820190506139a85f830186613183565b6139b56020830185613667565b6139c26040830184613183565b949350505050565b5f6060820190506139dd5f830186613667565b6139ea6020830185613667565b6139f76040830184613667565b949350505050565b5f819050919050565b613a11816139ff565b82525050565b613a20816130f5565b82525050565b5f61ffff82169050919050565b613a3c81613a26565b82525050565b5f63ffffffff82169050919050565b613a5a81613a42565b82525050565b5f82825260208201905092915050565b5f613a7a826135e7565b613a848185613a60565b9350613a94818560208601613065565b613a9d8161308d565b840191505092915050565b5f60c083015f830151613abd5f860182613a08565b506020830151613ad06020860182613a17565b506040830151613ae36040860182613a33565b506060830151613af66060860182613a51565b506080830151613b096080860182613a51565b5060a083015184820360a0860152613b218282613a70565b9150508091505092915050565b5f6020820190508181035f830152613b468184613aa8565b905092915050565b5f81519050613b5c816130fe565b92915050565b5f60208284031215613b7757613b76612f90565b5b5f613b8484828501613b4e565b91505092915050565b7f4e487b71000000000000000000000000000000000000000000000000000000005f52601160045260245ffd5b5f613bc4826130f5565b9150613bcf836130f5565b9250828203905081811115613be757613be6613b8d565b5b92915050565b7f4d7573742062652070726f706f736564206f776e6572000000000000000000005f82015250565b5f613c21601683613055565b9150613c2c82613bed565b602082019050919050565b5f6020820190508181035f830152613c4e81613c15565b9050919050565b5f606082019050613c685f830186613183565b613c756020830185613183565b613c826040830184613183565b949350505050565b5f604082019050613c9d5f830185613667565b613caa6020830184613667565b9392505050565b5f81905092915050565b7f7b226e616d65223a2200000000000000000000000000000000000000000000005f82015250565b5f613cef600983613cb1565b9150613cfa82613cbb565b600982019050919050565b5f613d0f8261304b565b613d198185613cb1565b9350613d29818560208601613065565b80840191505092915050565b7f222c20226465736372697074696f6e223a22416e204e465420666f72207472755f8201527f737465642075736572732c2077697468206d6f7265207468616e2031302c303060208201527f30205a5553442c2031303025206f6e20436861696e21222c2000000000000000604082015250565b5f613db5605983613cb1565b9150613dc082613d35565b605982019050919050565b7f2261747472696275746573223a205b7b2274726169745f74797065223a20226d5f8201527f6f6f64696e657373222c202276616c7565223a203130307d5d2c2022696d616760208201527f65223a2200000000000000000000000000000000000000000000000000000000604082015250565b5f613e4b604483613cb1565b9150613e5682613dcb565b604482019050919050565b7f227d0000000000000000000000000000000000000000000000000000000000005f82015250565b5f613e95600283613cb1565b9150613ea082613e61565b600282019050919050565b5f613eb582613ce3565b9150613ec18285613d05565b9150613ecc82613da9565b9150613ed782613e3f565b9150613ee38284613d05565b9150613eee82613e89565b91508190509392505050565b5f613f058285613d05565b9150613f118284613d05565b91508190509392505050565b7f4e487b71000000000000000000000000000000000000000000000000000000005f52603260045260245ffd5b7f4e487b71000000000000000000000000000000000000000000000000000000005f52601260045260245ffd5b5f613f81826130f5565b9150613f8c836130f5565b925082613f9c57613f9b613f4a565b5b828206905092915050565b7f4f6e6c792063616c6c61626c65206279206f776e6572000000000000000000005f82015250565b5f613fdb601683613055565b9150613fe682613fa7565b602082019050919050565b5f6020820190508181035f83015261400881613fcf565b9050919050565b61401881613018565b82525050565b602082015f8201516140325f85018261400f565b50505050565b5f60208201905061404b5f83018461401e565b92915050565b5f6080820190506140645f830187613183565b6140716020830186613183565b61407e6040830185613667565b81810360608301526140908184613601565b905095945050505050565b5f815190506140a981612fc3565b92915050565b5f602082840312156140c4576140c3612f90565b5b5f6140d18482850161409b565b91505092915050565b7f43616e6e6f74207472616e7366657220746f2073656c660000000000000000005f82015250565b5f61410e601783613055565b9150614119826140da565b602082019050919050565b5f6020820190508181035f83015261413b81614102565b9050919050565b5f61414c826130f5565b9150614157836130f5565b9250828202614165816130f5565b9150828204841483151761417c5761417b613b8d565b5b5092915050565b5f61418d826130f5565b9150614198836130f5565b92508282019050808211156141b0576141af613b8d565b5b92915050565b5f6141c0826130f5565b91506141cb836130f5565b9250826141db576141da613f4a565b5b828204905092915050565b5f6040820190506141f95f830185613183565b6142066020830184613667565b939250505056fe4142434445464748494a4b4c4d4e4f505152535455565758595a6162636465666768696a6b6c6d6e6f707172737475767778797a303132333435363738392b2f697066733a2f2f6261666b72656968686c696d3273716a7966767032336378677171706b75756f3568713675326d6b6f79657834793371367063756a696137623561a264697066735822122079f5c496759dc8347ef3114a52eef3392dd507f747d9c562a58d3972561f9a2764736f6c63430008180033",
        "linkReferences": {}
    },
    "methodIdentifiers": {
        "acceptOwnership()": "79ba5097",
        "approve(address,uint256)": "095ea7b3",
        "balanceOf(address)": "70a08231",
        "checkUpkeep(bytes)": "6e04ff0d",
        "getAllPlayers()": "efa1c482",
        "getApproved(uint256)": "081812fc",
        "getEntryFee()": "e586a4f0",
        "getLastTimeStamp()": "c1c244e8",
        "getPlayer(uint256)": "e55ae4e8",
        "getRaffleState()": "115cbaf5",
        "getRecentWinner()": "473f1ddc",
        "isApprovedForAll(address,address)": "e985e9c5",
        "name()": "06fdde03",
        "owner()": "8da5cb5b",
        "ownerOf(uint256)": "6352211e",
        "pause()": "8456cb59",
        "paused()": "5c975abb",
        "performUpkeep(bytes)": "4585e33b",
        "rawFulfillRandomWords(uint256,uint256[])": "1fe543e3",
        "s_hasClaimed(address)": "4a5aae37",
        "s_hasEntered(address)": "458ec208",
        "s_minRequiredBalance()": "a467e108",
        "s_tokenIdCounter()": "82d8a118",
        "s_vrfCoordinator()": "9eccacf6",
        "safeMint(address)": "40d097c3",
        "safeTransferFrom(address,address,uint256)": "42842e0e",
        "safeTransferFrom(address,address,uint256,bytes)": "b88d4fde",
        "setApprovalForAll(address,bool)": "a22cb465",
        "setCoordinator(address)": "8ea98117",
        "supportsInterface(bytes4)": "01ffc9a7",
        "symbol()": "95d89b41",
        "tokenURI(uint256)": "c87b56dd",
        "transferFrom(address,address,uint256)": "23b872dd",
        "transferOwnership(address)": "f2fde38b",
        "tryLuck()": "b42909e7",
        "unpause()": "3f4ba83a"
    },
    "id": 90
}