{
    "abi": [
        {
            "type": "constructor",
            "inputs": [
                {
                    "name": "_router",
                    "type": "address",
                    "internalType": "address"
                },
                {
                    "name": "_link",
                    "type": "address",
                    "internalType": "address"
                },
                {
                    "name": "_zephyraStableCoin",
                    "type": "address",
                    "internalType": "address"
                }
            ],
            "stateMutability": "nonpayable"
        },
        {
            "type": "fallback",
            "stateMutability": "payable"
        },
        {
            "type": "receive",
            "stateMutability": "payable"
        },
        {
            "type": "function",
            "name": "acceptOwnership",
            "inputs": [],
            "outputs": [],
            "stateMutability": "nonpayable"
        },
        {
            "type": "function",
            "name": "allowlistDestinationChain",
            "inputs": [
                {
                    "name": "_destinationChainSelector",
                    "type": "uint64",
                    "internalType": "uint64"
                },
                {
                    "name": "allowed",
                    "type": "bool",
                    "internalType": "bool"
                }
            ],
            "outputs": [],
            "stateMutability": "nonpayable"
        },
        {
            "type": "function",
            "name": "allowlistedChains",
            "inputs": [
                {
                    "name": "",
                    "type": "uint64",
                    "internalType": "uint64"
                }
            ],
            "outputs": [
                {
                    "name": "",
                    "type": "bool",
                    "internalType": "bool"
                }
            ],
            "stateMutability": "view"
        },
        {
            "type": "function",
            "name": "getEstimatedFee",
            "inputs": [
                {
                    "name": "_destinationChainSelector",
                    "type": "uint64",
                    "internalType": "uint64"
                },
                {
                    "name": "_receiver",
                    "type": "address",
                    "internalType": "address"
                },
                {
                    "name": "_amount",
                    "type": "uint256",
                    "internalType": "uint256"
                },
                {
                    "name": "payInLink",
                    "type": "bool",
                    "internalType": "bool"
                }
            ],
            "outputs": [
                {
                    "name": "",
                    "type": "uint256",
                    "internalType": "uint256"
                }
            ],
            "stateMutability": "view"
        },
        {
            "type": "function",
            "name": "owner",
            "inputs": [],
            "outputs": [
                {
                    "name": "",
                    "type": "address",
                    "internalType": "address"
                }
            ],
            "stateMutability": "view"
        },
        {
            "type": "function",
            "name": "transferOwnership",
            "inputs": [
                {
                    "name": "to",
                    "type": "address",
                    "internalType": "address"
                }
            ],
            "outputs": [],
            "stateMutability": "nonpayable"
        },
        {
            "type": "function",
            "name": "transferTokensPayLINK",
            "inputs": [
                {
                    "name": "_destinationChainSelector",
                    "type": "uint64",
                    "internalType": "uint64"
                },
                {
                    "name": "_receiver",
                    "type": "address",
                    "internalType": "address"
                },
                {
                    "name": "_amount",
                    "type": "uint256",
                    "internalType": "uint256"
                }
            ],
            "outputs": [
                {
                    "name": "messageId",
                    "type": "bytes32",
                    "internalType": "bytes32"
                }
            ],
            "stateMutability": "nonpayable"
        },
        {
            "type": "function",
            "name": "transferTokensPayNative",
            "inputs": [
                {
                    "name": "_destinationChainSelector",
                    "type": "uint64",
                    "internalType": "uint64"
                },
                {
                    "name": "_receiver",
                    "type": "address",
                    "internalType": "address"
                },
                {
                    "name": "_amount",
                    "type": "uint256",
                    "internalType": "uint256"
                }
            ],
            "outputs": [
                {
                    "name": "messageId",
                    "type": "bytes32",
                    "internalType": "bytes32"
                }
            ],
            "stateMutability": "payable"
        },
        {
            "type": "function",
            "name": "withdraw",
            "inputs": [
                {
                    "name": "_beneficiary",
                    "type": "address",
                    "internalType": "address"
                }
            ],
            "outputs": [],
            "stateMutability": "nonpayable"
        },
        {
            "type": "function",
            "name": "withdrawLink",
            "inputs": [
                {
                    "name": "_beneficiary",
                    "type": "address",
                    "internalType": "address"
                }
            ],
            "outputs": [],
            "stateMutability": "nonpayable"
        },
        {
            "type": "function",
            "name": "withdrawToken",
            "inputs": [
                {
                    "name": "_beneficiary",
                    "type": "address",
                    "internalType": "address"
                },
                {
                    "name": "_token",
                    "type": "address",
                    "internalType": "address"
                }
            ],
            "outputs": [],
            "stateMutability": "nonpayable"
        },
        {
            "type": "event",
            "name": "OwnershipTransferRequested",
            "inputs": [
                {
                    "name": "from",
                    "type": "address",
                    "indexed": true,
                    "internalType": "address"
                },
                {
                    "name": "to",
                    "type": "address",
                    "indexed": true,
                    "internalType": "address"
                }
            ],
            "anonymous": false
        },
        {
            "type": "event",
            "name": "OwnershipTransferred",
            "inputs": [
                {
                    "name": "from",
                    "type": "address",
                    "indexed": true,
                    "internalType": "address"
                },
                {
                    "name": "to",
                    "type": "address",
                    "indexed": true,
                    "internalType": "address"
                }
            ],
            "anonymous": false
        },
        {
            "type": "event",
            "name": "TokensTransferred",
            "inputs": [
                {
                    "name": "messageId",
                    "type": "bytes32",
                    "indexed": true,
                    "internalType": "bytes32"
                },
                {
                    "name": "destinationChainSelector",
                    "type": "uint64",
                    "indexed": true,
                    "internalType": "uint64"
                },
                {
                    "name": "receiver",
                    "type": "address",
                    "indexed": false,
                    "internalType": "address"
                },
                {
                    "name": "token",
                    "type": "address",
                    "indexed": false,
                    "internalType": "address"
                },
                {
                    "name": "tokenAmount",
                    "type": "uint256",
                    "indexed": false,
                    "internalType": "uint256"
                },
                {
                    "name": "feeToken",
                    "type": "address",
                    "indexed": false,
                    "internalType": "address"
                },
                {
                    "name": "fees",
                    "type": "uint256",
                    "indexed": false,
                    "internalType": "uint256"
                }
            ],
            "anonymous": false
        },
        {
            "type": "error",
            "name": "ZephyraCrossChainTransfer__DestinationChainNotAllowlisted",
            "inputs": [
                {
                    "name": "destinationChainSelector",
                    "type": "uint64",
                    "internalType": "uint64"
                }
            ]
        },
        {
            "type": "error",
            "name": "ZephyraCrossChainTransfer__FailedToWithdrawEth",
            "inputs": [
                {
                    "name": "owner",
                    "type": "address",
                    "internalType": "address"
                },
                {
                    "name": "target",
                    "type": "address",
                    "internalType": "address"
                },
                {
                    "name": "value",
                    "type": "uint256",
                    "internalType": "uint256"
                }
            ]
        },
        {
            "type": "error",
            "name": "ZephyraCrossChainTransfer__InsufficientLINKBalance",
            "inputs": []
        },
        {
            "type": "error",
            "name": "ZephyraCrossChainTransfer__InsufficientZUSDBalance",
            "inputs": [
                {
                    "name": "currentBalance",
                    "type": "uint256",
                    "internalType": "uint256"
                },
                {
                    "name": "calculatedFees",
                    "type": "uint256",
                    "internalType": "uint256"
                }
            ]
        },
        {
            "type": "error",
            "name": "ZephyraCrossChainTransfer__InvalidReceiverAddress",
            "inputs": []
        },
        {
            "type": "error",
            "name": "ZephyraCrossChainTransfer__NotEnoughBalance",
            "inputs": [
                {
                    "name": "currentBalance",
                    "type": "uint256",
                    "internalType": "uint256"
                },
                {
                    "name": "calculatedFees",
                    "type": "uint256",
                    "internalType": "uint256"
                }
            ]
        },
        {
            "type": "error",
            "name": "ZephyraCrossChainTransfer__NothingToWithdraw",
            "inputs": []
        }
    ],
    "bytecode": {
        "object": "0x608060405234801562000010575f80fd5b5060405162002f3838038062002f3883398181016040528101906200003691906200038d565b33805f8073ffffffffffffffffffffffffffffffffffffffff168273ffffffffffffffffffffffffffffffffffffffff1603620000aa576040517f08c379a0000000000000000000000000000000000000000000000000000000008152600401620000a19062000444565b60405180910390fd5b815f806101000a81548173ffffffffffffffffffffffffffffffffffffffff021916908373ffffffffffffffffffffffffffffffffffffffff1602179055505f73ffffffffffffffffffffffffffffffffffffffff168173ffffffffffffffffffffffffffffffffffffffff16146200012f576200012e81620001fb60201b60201c565b5b5050508260035f6101000a81548173ffffffffffffffffffffffffffffffffffffffff021916908373ffffffffffffffffffffffffffffffffffffffff1602179055508160045f6101000a81548173ffffffffffffffffffffffffffffffffffffffff021916908373ffffffffffffffffffffffffffffffffffffffff1602179055508060055f6101000a81548173ffffffffffffffffffffffffffffffffffffffff021916908373ffffffffffffffffffffffffffffffffffffffff160217905550505050620004d2565b3373ffffffffffffffffffffffffffffffffffffffff168173ffffffffffffffffffffffffffffffffffffffff16036200026c576040517f08c379a00000000000000000000000000000000000000000000000000000000081526004016200026390620004b2565b60405180910390fd5b8060015f6101000a81548173ffffffffffffffffffffffffffffffffffffffff021916908373ffffffffffffffffffffffffffffffffffffffff1602179055508073ffffffffffffffffffffffffffffffffffffffff165f8054906101000a900473ffffffffffffffffffffffffffffffffffffffff1673ffffffffffffffffffffffffffffffffffffffff167fed8889f560326eb138920d842192f0eb3dd22b4f139c87a2c57538e05bae127860405160405180910390a350565b5f80fd5b5f73ffffffffffffffffffffffffffffffffffffffff82169050919050565b5f62000357826200032c565b9050919050565b62000369816200034b565b811462000374575f80fd5b50565b5f8151905062000387816200035e565b92915050565b5f805f60608486031215620003a757620003a662000328565b5b5f620003b68682870162000377565b9350506020620003c98682870162000377565b9250506040620003dc8682870162000377565b9150509250925092565b5f82825260208201905092915050565b7f43616e6e6f7420736574206f776e657220746f207a65726f00000000000000005f82015250565b5f6200042c601883620003e6565b91506200043982620003f6565b602082019050919050565b5f6020820190508181035f8301526200045d816200041e565b9050919050565b7f43616e6e6f74207472616e7366657220746f2073656c660000000000000000005f82015250565b5f6200049a601783620003e6565b9150620004a78262000464565b602082019050919050565b5f6020820190508181035f830152620004cb816200048c565b9050919050565b612a5880620004e05f395ff3fe60806040526004361061009f575f3560e01c80638c790b79116100635780638c790b791461017a5780638da5cb5b146101b657806390e9ca7f146101e05780639249c6991461020857806396d3b83d14610244578063f2fde38b1461026c576100a6565b80630bb106eb146100a85780633aeac4e1146100e457806351cff8d91461010c57806357d17fb61461013457806379ba509714610164576100a6565b366100a657005b005b3480156100b3575f80fd5b506100ce60048036038101906100c99190611ec6565b610294565b6040516100db9190611f0b565b60405180910390f35b3480156100ef575f80fd5b5061010a60048036038101906101059190611f7e565b6102b1565b005b348015610117575f80fd5b50610132600480360381019061012d9190611fbc565b61039d565b005b61014e6004803603810190610149919061201a565b610495565b60405161015b9190612082565b60405180910390f35b34801561016f575f80fd5b50610178610a70565b005b348015610185575f80fd5b506101a0600480360381019061019b91906120c5565b610bff565b6040516101ad9190612138565b60405180910390f35b3480156101c1575f80fd5b506101ca610d03565b6040516101d79190612160565b60405180910390f35b3480156101eb575f80fd5b5061020660048036038101906102019190611fbc565b610d2a565b005b348015610213575f80fd5b5061022e6004803603810190610229919061201a565b610e57565b60405161023b9190612082565b60405180910390f35b34801561024f575f80fd5b5061026a60048036038101906102659190612179565b611738565b005b348015610277575f80fd5b50610292600480360381019061028d9190611fbc565b611780565b005b6002602052805f5260405f205f915054906101000a900460ff1681565b6102b9611794565b5f8173ffffffffffffffffffffffffffffffffffffffff166370a08231306040518263ffffffff1660e01b81526004016102f39190612160565b602060405180830381865afa15801561030e573d5f803e3d5ffd5b505050506040513d601f19601f8201168201806040525081019061033291906121cb565b90505f810361036d576040517f7afafe1e00000000000000000000000000000000000000000000000000000000815260040160405180910390fd5b61039883828473ffffffffffffffffffffffffffffffffffffffff166118239092919063ffffffff16565b505050565b6103a5611794565b5f4790505f81036103e2576040517f7afafe1e00000000000000000000000000000000000000000000000000000000815260040160405180910390fd5b5f8273ffffffffffffffffffffffffffffffffffffffff168260405161040790612223565b5f6040518083038185875af1925050503d805f8114610441576040519150601f19603f3d011682016040523d82523d5f602084013e610446565b606091505b5050905080610490573383836040517fe64cec8e00000000000000000000000000000000000000000000000000000000815260040161048793929190612237565b60405180910390fd5b505050565b5f8360025f8267ffffffffffffffff1667ffffffffffffffff1681526020019081526020015f205f9054906101000a900460ff1661050a57806040517f68f88199000000000000000000000000000000000000000000000000000000008152600401610501919061227b565b60405180910390fd5b835f73ffffffffffffffffffffffffffffffffffffffff168173ffffffffffffffffffffffffffffffffffffffff1603610570576040517f9abc181900000000000000000000000000000000000000000000000000000000815260040160405180910390fd5b60055f9054906101000a900473ffffffffffffffffffffffffffffffffffffffff1673ffffffffffffffffffffffffffffffffffffffff166370a08231336040518263ffffffff1660e01b81526004016105ca9190612160565b602060405180830381865afa1580156105e5573d5f803e3d5ffd5b505050506040513d601f19601f8201168201806040525081019061060991906121cb565b8411156106e75760055f9054906101000a900473ffffffffffffffffffffffffffffffffffffffff1673ffffffffffffffffffffffffffffffffffffffff166370a08231336040518263ffffffff1660e01b815260040161066a9190612160565b602060405180830381865afa158015610685573d5f803e3d5ffd5b505050506040513d601f19601f820116820180604052508101906106a991906121cb565b846040517ff3d71f2c0000000000000000000000000000000000000000000000000000000081526004016106de929190612294565b60405180910390fd5b5f6107158660055f9054906101000a900473ffffffffffffffffffffffffffffffffffffffff16875f6118a9565b90505f60035f9054906101000a900473ffffffffffffffffffffffffffffffffffffffff1673ffffffffffffffffffffffffffffffffffffffff166320487ded89846040518363ffffffff1660e01b81526004016107749291906124c0565b602060405180830381865afa15801561078f573d5f803e3d5ffd5b505050506040513d601f19601f820116820180604052508101906107b391906121cb565b9050348111156107fc5734816040517ff3d71f2c0000000000000000000000000000000000000000000000000000000081526004016107f3929190612294565b60405180910390fd5b60055f9054906101000a900473ffffffffffffffffffffffffffffffffffffffff1673ffffffffffffffffffffffffffffffffffffffff166323b872dd3330896040518463ffffffff1660e01b815260040161085a93929190612237565b6020604051808303815f875af1158015610876573d5f803e3d5ffd5b505050506040513d601f19601f8201168201806040525081019061089a9190612502565b5060055f9054906101000a900473ffffffffffffffffffffffffffffffffffffffff1673ffffffffffffffffffffffffffffffffffffffff1663095ea7b360035f9054906101000a900473ffffffffffffffffffffffffffffffffffffffff16886040518363ffffffff1660e01b815260040161091892919061252d565b6020604051808303815f875af1158015610934573d5f803e3d5ffd5b505050506040513d601f19601f820116820180604052508101906109589190612502565b5060035f9054906101000a900473ffffffffffffffffffffffffffffffffffffffff1673ffffffffffffffffffffffffffffffffffffffff166396f4e9f9828a856040518463ffffffff1660e01b81526004016109b69291906124c0565b60206040518083038185885af11580156109d2573d5f803e3d5ffd5b50505050506040513d601f19601f820116820180604052508101906109f7919061257e565b94508767ffffffffffffffff16857fc15fb748c32ba4eb29c1c311e78533f93b4425eab49ea87c6fe4279ecadca0438960055f9054906101000a900473ffffffffffffffffffffffffffffffffffffffff168a5f87604051610a5d9594939291906125a9565b60405180910390a3505050509392505050565b60015f9054906101000a900473ffffffffffffffffffffffffffffffffffffffff1673ffffffffffffffffffffffffffffffffffffffff163373ffffffffffffffffffffffffffffffffffffffff1614610aff576040517f08c379a0000000000000000000000000000000000000000000000000000000008152600401610af690612654565b60405180910390fd5b5f805f9054906101000a900473ffffffffffffffffffffffffffffffffffffffff169050335f806101000a81548173ffffffffffffffffffffffffffffffffffffffff021916908373ffffffffffffffffffffffffffffffffffffffff1602179055505f60015f6101000a81548173ffffffffffffffffffffffffffffffffffffffff021916908373ffffffffffffffffffffffffffffffffffffffff1602179055503373ffffffffffffffffffffffffffffffffffffffff168173ffffffffffffffffffffffffffffffffffffffff167f8be0079c531659141344cd1fd0a4f28419497f9722a3daafe3b4186f6b6457e060405160405180910390a350565b5f80610c5b8560055f9054906101000a900473ffffffffffffffffffffffffffffffffffffffff168686610c33575f610c56565b60045f9054906101000a900473ffffffffffffffffffffffffffffffffffffffff165b6118a9565b905060035f9054906101000a900473ffffffffffffffffffffffffffffffffffffffff1673ffffffffffffffffffffffffffffffffffffffff166320487ded87836040518363ffffffff1660e01b8152600401610cb99291906124c0565b602060405180830381865afa158015610cd4573d5f803e3d5ffd5b505050506040513d601f19601f82011682018060405250810190610cf891906121cb565b915050949350505050565b5f805f9054906101000a900473ffffffffffffffffffffffffffffffffffffffff16905090565b610d32611794565b5f60045f9054906101000a900473ffffffffffffffffffffffffffffffffffffffff1673ffffffffffffffffffffffffffffffffffffffff166370a08231306040518263ffffffff1660e01b8152600401610d8d9190612160565b602060405180830381865afa158015610da8573d5f803e3d5ffd5b505050506040513d601f19601f82011682018060405250810190610dcc91906121cb565b90505f8103610e07576040517f7afafe1e00000000000000000000000000000000000000000000000000000000815260040160405180910390fd5b610e53828260045f9054906101000a900473ffffffffffffffffffffffffffffffffffffffff1673ffffffffffffffffffffffffffffffffffffffff166118239092919063ffffffff16565b5050565b5f8360025f8267ffffffffffffffff1667ffffffffffffffff1681526020019081526020015f205f9054906101000a900460ff16610ecc57806040517f68f88199000000000000000000000000000000000000000000000000000000008152600401610ec3919061227b565b60405180910390fd5b835f73ffffffffffffffffffffffffffffffffffffffff168173ffffffffffffffffffffffffffffffffffffffff1603610f32576040517f9abc181900000000000000000000000000000000000000000000000000000000815260040160405180910390fd5b60055f9054906101000a900473ffffffffffffffffffffffffffffffffffffffff1673ffffffffffffffffffffffffffffffffffffffff166370a08231336040518263ffffffff1660e01b8152600401610f8c9190612160565b602060405180830381865afa158015610fa7573d5f803e3d5ffd5b505050506040513d601f19601f82011682018060405250810190610fcb91906121cb565b8411156110a95760055f9054906101000a900473ffffffffffffffffffffffffffffffffffffffff1673ffffffffffffffffffffffffffffffffffffffff166370a08231336040518263ffffffff1660e01b815260040161102c9190612160565b602060405180830381865afa158015611047573d5f803e3d5ffd5b505050506040513d601f19601f8201168201806040525081019061106b91906121cb565b846040517f3df95e0d0000000000000000000000000000000000000000000000000000000081526004016110a0929190612294565b60405180910390fd5b5f6110f88660055f9054906101000a900473ffffffffffffffffffffffffffffffffffffffff168760045f9054906101000a900473ffffffffffffffffffffffffffffffffffffffff166118a9565b90505f60035f9054906101000a900473ffffffffffffffffffffffffffffffffffffffff1673ffffffffffffffffffffffffffffffffffffffff166320487ded89846040518363ffffffff1660e01b81526004016111579291906124c0565b602060405180830381865afa158015611172573d5f803e3d5ffd5b505050506040513d601f19601f8201168201806040525081019061119691906121cb565b90505f60045f9054906101000a900473ffffffffffffffffffffffffffffffffffffffff1673ffffffffffffffffffffffffffffffffffffffff166370a08231336040518263ffffffff1660e01b81526004016111f39190612160565b602060405180830381865afa15801561120e573d5f803e3d5ffd5b505050506040513d601f19601f8201168201806040525081019061123291906121cb565b90508181101561126e576040517f0405b7ba00000000000000000000000000000000000000000000000000000000815260040160405180910390fd5b5f60045f9054906101000a900473ffffffffffffffffffffffffffffffffffffffff1673ffffffffffffffffffffffffffffffffffffffff1663dd62ed3e33306040518363ffffffff1660e01b81526004016112cb929190612672565b602060405180830381865afa1580156112e6573d5f803e3d5ffd5b505050506040513d601f19601f8201168201806040525081019061130a91906121cb565b905082811015611346576040517f0405b7ba00000000000000000000000000000000000000000000000000000000815260040160405180910390fd5b60045f9054906101000a900473ffffffffffffffffffffffffffffffffffffffff1673ffffffffffffffffffffffffffffffffffffffff166323b872dd3330866040518463ffffffff1660e01b81526004016113a493929190612237565b6020604051808303815f875af11580156113c0573d5f803e3d5ffd5b505050506040513d601f19601f820116820180604052508101906113e49190612502565b5060055f9054906101000a900473ffffffffffffffffffffffffffffffffffffffff1673ffffffffffffffffffffffffffffffffffffffff166323b872dd33308b6040518463ffffffff1660e01b815260040161144393929190612237565b6020604051808303815f875af115801561145f573d5f803e3d5ffd5b505050506040513d601f19601f820116820180604052508101906114839190612502565b5060045f9054906101000a900473ffffffffffffffffffffffffffffffffffffffff1673ffffffffffffffffffffffffffffffffffffffff1663095ea7b360035f9054906101000a900473ffffffffffffffffffffffffffffffffffffffff16856040518363ffffffff1660e01b815260040161150192919061252d565b6020604051808303815f875af115801561151d573d5f803e3d5ffd5b505050506040513d601f19601f820116820180604052508101906115419190612502565b5060055f9054906101000a900473ffffffffffffffffffffffffffffffffffffffff1673ffffffffffffffffffffffffffffffffffffffff1663095ea7b360035f9054906101000a900473ffffffffffffffffffffffffffffffffffffffff168a6040518363ffffffff1660e01b81526004016115bf92919061252d565b6020604051808303815f875af11580156115db573d5f803e3d5ffd5b505050506040513d601f19601f820116820180604052508101906115ff9190612502565b5060035f9054906101000a900473ffffffffffffffffffffffffffffffffffffffff1673ffffffffffffffffffffffffffffffffffffffff166396f4e9f98b866040518363ffffffff1660e01b815260040161165c9291906124c0565b6020604051808303815f875af1158015611678573d5f803e3d5ffd5b505050506040513d601f19601f8201168201806040525081019061169c919061257e565b96508967ffffffffffffffff16877fc15fb748c32ba4eb29c1c311e78533f93b4425eab49ea87c6fe4279ecadca0438b60055f9054906101000a900473ffffffffffffffffffffffffffffffffffffffff168c60045f9054906101000a900473ffffffffffffffffffffffffffffffffffffffff16896040516117239594939291906125a9565b60405180910390a35050505050509392505050565b611740611794565b8060025f8467ffffffffffffffff1667ffffffffffffffff1681526020019081526020015f205f6101000a81548160ff0219169083151502179055505050565b611788611794565b611791816119e0565b50565b5f8054906101000a900473ffffffffffffffffffffffffffffffffffffffff1673ffffffffffffffffffffffffffffffffffffffff163373ffffffffffffffffffffffffffffffffffffffff1614611821576040517f08c379a0000000000000000000000000000000000000000000000000000000008152600401611818906126e3565b60405180910390fd5b565b6118a48363a9059cbb60e01b848460405160240161184292919061252d565b604051602081830303815290604052907bffffffffffffffffffffffffffffffffffffffffffffffffffffffff19166020820180517bffffffffffffffffffffffffffffffffffffffffffffffffffffffff8381831617835250505050611b0a565b505050565b6118b1611e13565b5f600167ffffffffffffffff8111156118cd576118cc612701565b5b60405190808252806020026020018201604052801561190657816020015b6118f3611e57565b8152602001906001900390816118eb5790505b50905060405180604001604052808673ffffffffffffffffffffffffffffffffffffffff16815260200185815250815f815181106119475761194661272e565b5b60200260200101819052506040518060a001604052808760405160200161196e9190612160565b604051602081830303815290604052815260200160405180602001604052805f81525081526020018281526020018473ffffffffffffffffffffffffffffffffffffffff1681526020016119d2604051806020016040528062030d40815250611bcf565b815250915050949350505050565b3373ffffffffffffffffffffffffffffffffffffffff168173ffffffffffffffffffffffffffffffffffffffff1603611a4e576040517f08c379a0000000000000000000000000000000000000000000000000000000008152600401611a45906127a5565b60405180910390fd5b8060015f6101000a81548173ffffffffffffffffffffffffffffffffffffffff021916908373ffffffffffffffffffffffffffffffffffffffff1602179055508073ffffffffffffffffffffffffffffffffffffffff165f8054906101000a900473ffffffffffffffffffffffffffffffffffffffff1673ffffffffffffffffffffffffffffffffffffffff167fed8889f560326eb138920d842192f0eb3dd22b4f139c87a2c57538e05bae127860405160405180910390a350565b5f611b6b826040518060400160405280602081526020017f5361666545524332303a206c6f772d6c6576656c2063616c6c206661696c65648152508573ffffffffffffffffffffffffffffffffffffffff16611c4e9092919063ffffffff16565b90505f81511115611bca5780806020019051810190611b8a9190612502565b611bc9576040517f08c379a0000000000000000000000000000000000000000000000000000000008152600401611bc090612833565b60405180910390fd5b5b505050565b60606397a657c960e01b82604051602401611bea919061286b565b604051602081830303815290604052907bffffffffffffffffffffffffffffffffffffffffffffffffffffffff19166020820180517bffffffffffffffffffffffffffffffffffffffffffffffffffffffff83818316178352505050509050919050565b6060611c5c84845f85611c65565b90509392505050565b606082471015611caa576040517f08c379a0000000000000000000000000000000000000000000000000000000008152600401611ca1906128f4565b60405180910390fd5b5f808673ffffffffffffffffffffffffffffffffffffffff168587604051611cd29190612942565b5f6040518083038185875af1925050503d805f8114611d0c576040519150601f19603f3d011682016040523d82523d5f602084013e611d11565b606091505b5091509150611d2287838387611d2e565b92505050949350505050565b60608315611d8f575f835103611d8757611d4785611da2565b611d86576040517f08c379a0000000000000000000000000000000000000000000000000000000008152600401611d7d906129a2565b60405180910390fd5b5b829050611d9a565b611d998383611dc4565b5b949350505050565b5f808273ffffffffffffffffffffffffffffffffffffffff163b119050919050565b5f82511115611dd65781518083602001fd5b806040517f08c379a0000000000000000000000000000000000000000000000000000000008152600401611e0a9190612a02565b60405180910390fd5b6040518060a001604052806060815260200160608152602001606081526020015f73ffffffffffffffffffffffffffffffffffffffff168152602001606081525090565b60405180604001604052805f73ffffffffffffffffffffffffffffffffffffffff1681526020015f81525090565b5f80fd5b5f67ffffffffffffffff82169050919050565b611ea581611e89565b8114611eaf575f80fd5b50565b5f81359050611ec081611e9c565b92915050565b5f60208284031215611edb57611eda611e85565b5b5f611ee884828501611eb2565b91505092915050565b5f8115159050919050565b611f0581611ef1565b82525050565b5f602082019050611f1e5f830184611efc565b92915050565b5f73ffffffffffffffffffffffffffffffffffffffff82169050919050565b5f611f4d82611f24565b9050919050565b611f5d81611f43565b8114611f67575f80fd5b50565b5f81359050611f7881611f54565b92915050565b5f8060408385031215611f9457611f93611e85565b5b5f611fa185828601611f6a565b9250506020611fb285828601611f6a565b9150509250929050565b5f60208284031215611fd157611fd0611e85565b5b5f611fde84828501611f6a565b91505092915050565b5f819050919050565b611ff981611fe7565b8114612003575f80fd5b50565b5f8135905061201481611ff0565b92915050565b5f805f6060848603121561203157612030611e85565b5b5f61203e86828701611eb2565b935050602061204f86828701611f6a565b925050604061206086828701612006565b9150509250925092565b5f819050919050565b61207c8161206a565b82525050565b5f6020820190506120955f830184612073565b92915050565b6120a481611ef1565b81146120ae575f80fd5b50565b5f813590506120bf8161209b565b92915050565b5f805f80608085870312156120dd576120dc611e85565b5b5f6120ea87828801611eb2565b94505060206120fb87828801611f6a565b935050604061210c87828801612006565b925050606061211d878288016120b1565b91505092959194509250565b61213281611fe7565b82525050565b5f60208201905061214b5f830184612129565b92915050565b61215a81611f43565b82525050565b5f6020820190506121735f830184612151565b92915050565b5f806040838503121561218f5761218e611e85565b5b5f61219c85828601611eb2565b92505060206121ad858286016120b1565b9150509250929050565b5f815190506121c581611ff0565b92915050565b5f602082840312156121e0576121df611e85565b5b5f6121ed848285016121b7565b91505092915050565b5f81905092915050565b50565b5f61220e5f836121f6565b915061221982612200565b5f82019050919050565b5f61222d82612203565b9150819050919050565b5f60608201905061224a5f830186612151565b6122576020830185612151565b6122646040830184612129565b949350505050565b61227581611e89565b82525050565b5f60208201905061228e5f83018461226c565b92915050565b5f6040820190506122a75f830185612129565b6122b46020830184612129565b9392505050565b5f81519050919050565b5f82825260208201905092915050565b5f5b838110156122f25780820151818401526020810190506122d7565b5f8484015250505050565b5f601f19601f8301169050919050565b5f612317826122bb565b61232181856122c5565b93506123318185602086016122d5565b61233a816122fd565b840191505092915050565b5f81519050919050565b5f82825260208201905092915050565b5f819050602082019050919050565b61237781611f43565b82525050565b61238681611fe7565b82525050565b604082015f8201516123a05f85018261236e565b5060208201516123b3602085018261237d565b50505050565b5f6123c4838361238c565b60408301905092915050565b5f602082019050919050565b5f6123e682612345565b6123f0818561234f565b93506123fb8361235f565b805f5b8381101561242b57815161241288826123b9565b975061241d836123d0565b9250506001810190506123fe565b5085935050505092915050565b5f60a083015f8301518482035f860152612452828261230d565b9150506020830151848203602086015261246c828261230d565b9150506040830151848203604086015261248682826123dc565b915050606083015161249b606086018261236e565b50608083015184820360808601526124b3828261230d565b9150508091505092915050565b5f6040820190506124d35f83018561226c565b81810360208301526124e58184612438565b90509392505050565b5f815190506124fc8161209b565b92915050565b5f6020828403121561251757612516611e85565b5b5f612524848285016124ee565b91505092915050565b5f6040820190506125405f830185612151565b61254d6020830184612129565b9392505050565b61255d8161206a565b8114612567575f80fd5b50565b5f8151905061257881612554565b92915050565b5f6020828403121561259357612592611e85565b5b5f6125a08482850161256a565b91505092915050565b5f60a0820190506125bc5f830188612151565b6125c96020830187612151565b6125d66040830186612129565b6125e36060830185612151565b6125f06080830184612129565b9695505050505050565b5f82825260208201905092915050565b7f4d7573742062652070726f706f736564206f776e6572000000000000000000005f82015250565b5f61263e6016836125fa565b91506126498261260a565b602082019050919050565b5f6020820190508181035f83015261266b81612632565b9050919050565b5f6040820190506126855f830185612151565b6126926020830184612151565b9392505050565b7f4f6e6c792063616c6c61626c65206279206f776e6572000000000000000000005f82015250565b5f6126cd6016836125fa565b91506126d882612699565b602082019050919050565b5f6020820190508181035f8301526126fa816126c1565b9050919050565b7f4e487b71000000000000000000000000000000000000000000000000000000005f52604160045260245ffd5b7f4e487b71000000000000000000000000000000000000000000000000000000005f52603260045260245ffd5b7f43616e6e6f74207472616e7366657220746f2073656c660000000000000000005f82015250565b5f61278f6017836125fa565b915061279a8261275b565b602082019050919050565b5f6020820190508181035f8301526127bc81612783565b9050919050565b7f5361666545524332303a204552433230206f7065726174696f6e20646964206e5f8201527f6f74207375636365656400000000000000000000000000000000000000000000602082015250565b5f61281d602a836125fa565b9150612828826127c3565b604082019050919050565b5f6020820190508181035f83015261284a81612811565b9050919050565b602082015f8201516128655f85018261237d565b50505050565b5f60208201905061287e5f830184612851565b92915050565b7f416464726573733a20696e73756666696369656e742062616c616e636520666f5f8201527f722063616c6c0000000000000000000000000000000000000000000000000000602082015250565b5f6128de6026836125fa565b91506128e982612884565b604082019050919050565b5f6020820190508181035f83015261290b816128d2565b9050919050565b5f61291c826122bb565b61292681856121f6565b93506129368185602086016122d5565b80840191505092915050565b5f61294d8284612912565b915081905092915050565b7f416464726573733a2063616c6c20746f206e6f6e2d636f6e74726163740000005f82015250565b5f61298c601d836125fa565b915061299782612958565b602082019050919050565b5f6020820190508181035f8301526129b981612980565b9050919050565b5f81519050919050565b5f6129d4826129c0565b6129de81856125fa565b93506129ee8185602086016122d5565b6129f7816122fd565b840191505092915050565b5f6020820190508181035f830152612a1a81846129ca565b90509291505056fea2646970667358221220fad08e93f9d75613449bc6a5ecbf0f57ad9a2ad461d4280f6da5bb329b5831eb64736f6c63430008180033",
        "linkReferences": {}
    },
    "methodIdentifiers": {
        "acceptOwnership()": "79ba5097",
        "allowlistDestinationChain(uint64,bool)": "96d3b83d",
        "allowlistedChains(uint64)": "0bb106eb",
        "getEstimatedFee(uint64,address,uint256,bool)": "8c790b79",
        "owner()": "8da5cb5b",
        "transferOwnership(address)": "f2fde38b",
        "transferTokensPayLINK(uint64,address,uint256)": "9249c699",
        "transferTokensPayNative(uint64,address,uint256)": "57d17fb6",
        "withdraw(address)": "51cff8d9",
        "withdrawLink(address)": "90e9ca7f",
        "withdrawToken(address,address)": "3aeac4e1"
    },
    "id": 50
}