{
    "abi": [
        {
            "type": "constructor",
            "inputs": [
                {
                    "name": "_zusd",
                    "type": "address",
                    "internalType": "contract IZephyraStableCoin"
                },
                {
                    "name": "_collateralTokenAddresses",
                    "type": "address[]",
                    "internalType": "address[]"
                },
                {
                    "name": "_priceFeeds",
                    "type": "address[]",
                    "internalType": "address[]"
                }
            ],
            "stateMutability": "nonpayable"
        },
        {
            "type": "function",
            "name": "burnZusd",
            "inputs": [
                {
                    "name": "_amount",
                    "type": "uint256",
                    "internalType": "uint256"
                }
            ],
            "outputs": [],
            "stateMutability": "nonpayable"
        },
        {
            "type": "function",
            "name": "depositCollateral",
            "inputs": [
                {
                    "name": "_collateralTokenAddress",
                    "type": "address",
                    "internalType": "address"
                },
                {
                    "name": "_amount",
                    "type": "uint256",
                    "internalType": "uint256"
                }
            ],
            "outputs": [],
            "stateMutability": "nonpayable"
        },
        {
            "type": "function",
            "name": "depositCollateralAndMintZusd",
            "inputs": [
                {
                    "name": "_collateralTokenAddress",
                    "type": "address",
                    "internalType": "address"
                },
                {
                    "name": "_collateralAmount",
                    "type": "uint256",
                    "internalType": "uint256"
                },
                {
                    "name": "_zusdAmount",
                    "type": "uint256",
                    "internalType": "uint256"
                }
            ],
            "outputs": [],
            "stateMutability": "nonpayable"
        },
        {
            "type": "function",
            "name": "getAccountInformation",
            "inputs": [
                {
                    "name": "_user",
                    "type": "address",
                    "internalType": "address"
                }
            ],
            "outputs": [
                {
                    "name": "collateralAmountInUsd",
                    "type": "uint256",
                    "internalType": "uint256"
                },
                {
                    "name": "totalUsdMinted",
                    "type": "uint256",
                    "internalType": "uint256"
                }
            ],
            "stateMutability": "view"
        },
        {
            "type": "function",
            "name": "getCalculatedHealthFactor",
            "inputs": [
                {
                    "name": "totalDscMinted",
                    "type": "uint256",
                    "internalType": "uint256"
                },
                {
                    "name": "collateralValueInUsd",
                    "type": "uint256",
                    "internalType": "uint256"
                }
            ],
            "outputs": [
                {
                    "name": "",
                    "type": "uint256",
                    "internalType": "uint256"
                }
            ],
            "stateMutability": "pure"
        },
        {
            "type": "function",
            "name": "getCollateralValue",
            "inputs": [
                {
                    "name": "_user",
                    "type": "address",
                    "internalType": "address"
                }
            ],
            "outputs": [
                {
                    "name": "tokenCollateralUsd",
                    "type": "uint256",
                    "internalType": "uint256"
                }
            ],
            "stateMutability": "view"
        },
        {
            "type": "function",
            "name": "getHealthFactor",
            "inputs": [
                {
                    "name": "_user",
                    "type": "address",
                    "internalType": "address"
                }
            ],
            "outputs": [
                {
                    "name": "",
                    "type": "uint256",
                    "internalType": "uint256"
                }
            ],
            "stateMutability": "view"
        },
        {
            "type": "function",
            "name": "getMintedZusd",
            "inputs": [
                {
                    "name": "_user",
                    "type": "address",
                    "internalType": "address"
                }
            ],
            "outputs": [
                {
                    "name": "",
                    "type": "uint256",
                    "internalType": "uint256"
                }
            ],
            "stateMutability": "view"
        },
        {
            "type": "function",
            "name": "getTokenAmountFromUsd",
            "inputs": [
                {
                    "name": "_token",
                    "type": "address",
                    "internalType": "address"
                },
                {
                    "name": "_amount",
                    "type": "uint256",
                    "internalType": "uint256"
                }
            ],
            "outputs": [
                {
                    "name": "",
                    "type": "uint256",
                    "internalType": "uint256"
                }
            ],
            "stateMutability": "view"
        },
        {
            "type": "function",
            "name": "getUsdValue",
            "inputs": [
                {
                    "name": "_token",
                    "type": "address",
                    "internalType": "address"
                },
                {
                    "name": "_amount",
                    "type": "uint256",
                    "internalType": "uint256"
                }
            ],
            "outputs": [
                {
                    "name": "",
                    "type": "uint256",
                    "internalType": "uint256"
                }
            ],
            "stateMutability": "view"
        },
        {
            "type": "function",
            "name": "getUserCollateralBalance",
            "inputs": [
                {
                    "name": "_user",
                    "type": "address",
                    "internalType": "address"
                },
                {
                    "name": "_token",
                    "type": "address",
                    "internalType": "address"
                }
            ],
            "outputs": [
                {
                    "name": "",
                    "type": "uint256",
                    "internalType": "uint256"
                }
            ],
            "stateMutability": "view"
        },
        {
            "type": "function",
            "name": "getUsers",
            "inputs": [],
            "outputs": [
                {
                    "name": "",
                    "type": "address[]",
                    "internalType": "address[]"
                }
            ],
            "stateMutability": "view"
        },
        {
            "type": "function",
            "name": "getZusdGains",
            "inputs": [],
            "outputs": [
                {
                    "name": "",
                    "type": "uint256",
                    "internalType": "uint256"
                }
            ],
            "stateMutability": "view"
        },
        {
            "type": "function",
            "name": "liquidate",
            "inputs": [
                {
                    "name": "_collateralTokenAddress",
                    "type": "address",
                    "internalType": "address"
                },
                {
                    "name": "_user",
                    "type": "address",
                    "internalType": "address"
                },
                {
                    "name": "_debtToCover",
                    "type": "uint256",
                    "internalType": "uint256"
                }
            ],
            "outputs": [],
            "stateMutability": "nonpayable"
        },
        {
            "type": "function",
            "name": "mintZusd",
            "inputs": [
                {
                    "name": "_amount",
                    "type": "uint256",
                    "internalType": "uint256"
                }
            ],
            "outputs": [],
            "stateMutability": "nonpayable"
        },
        {
            "type": "function",
            "name": "owner",
            "inputs": [],
            "outputs": [
                {
                    "name": "",
                    "type": "address",
                    "internalType": "address"
                }
            ],
            "stateMutability": "view"
        },
        {
            "type": "function",
            "name": "redeemCollateral",
            "inputs": [
                {
                    "name": "_collateralTokenAddress",
                    "type": "address",
                    "internalType": "address"
                },
                {
                    "name": "_collateralAmount",
                    "type": "uint256",
                    "internalType": "uint256"
                }
            ],
            "outputs": [],
            "stateMutability": "nonpayable"
        },
        {
            "type": "function",
            "name": "redeemCollateralForZusd",
            "inputs": [
                {
                    "name": "_collateralTokenAddress",
                    "type": "address",
                    "internalType": "address"
                },
                {
                    "name": "_zusdAmount",
                    "type": "uint256",
                    "internalType": "uint256"
                }
            ],
            "outputs": [],
            "stateMutability": "nonpayable"
        },
        {
            "type": "function",
            "name": "renounceOwnership",
            "inputs": [],
            "outputs": [],
            "stateMutability": "nonpayable"
        },
        {
            "type": "function",
            "name": "swapZusdToCollateral",
            "inputs": [
                {
                    "name": "_collateralTokenAddress",
                    "type": "address",
                    "internalType": "address"
                },
                {
                    "name": "_zusdAmount",
                    "type": "uint256",
                    "internalType": "uint256"
                }
            ],
            "outputs": [],
            "stateMutability": "nonpayable"
        },
        {
            "type": "function",
            "name": "transferOwnership",
            "inputs": [
                {
                    "name": "newOwner",
                    "type": "address",
                    "internalType": "address"
                }
            ],
            "outputs": [],
            "stateMutability": "nonpayable"
        },
        {
            "type": "function",
            "name": "withdrawGains",
            "inputs": [
                {
                    "name": "_to",
                    "type": "address",
                    "internalType": "address"
                }
            ],
            "outputs": [],
            "stateMutability": "nonpayable"
        },
        {
            "type": "event",
            "name": "CollateralDeposited",
            "inputs": [
                {
                    "name": "user",
                    "type": "address",
                    "indexed": true,
                    "internalType": "address"
                },
                {
                    "name": "collateralToken",
                    "type": "address",
                    "indexed": true,
                    "internalType": "address"
                },
                {
                    "name": "amount",
                    "type": "uint256",
                    "indexed": false,
                    "internalType": "uint256"
                }
            ],
            "anonymous": false
        },
        {
            "type": "event",
            "name": "OwnershipTransferred",
            "inputs": [
                {
                    "name": "previousOwner",
                    "type": "address",
                    "indexed": true,
                    "internalType": "address"
                },
                {
                    "name": "newOwner",
                    "type": "address",
                    "indexed": true,
                    "internalType": "address"
                }
            ],
            "anonymous": false
        },
        {
            "type": "event",
            "name": "ZusdMinted",
            "inputs": [
                {
                    "name": "user",
                    "type": "address",
                    "indexed": true,
                    "internalType": "address"
                },
                {
                    "name": "amount",
                    "type": "uint256",
                    "indexed": false,
                    "internalType": "uint256"
                }
            ],
            "anonymous": false
        },
        {
            "type": "event",
            "name": "collateralRedeemed",
            "inputs": [
                {
                    "name": "from",
                    "type": "address",
                    "indexed": true,
                    "internalType": "address"
                },
                {
                    "name": "to",
                    "type": "address",
                    "indexed": true,
                    "internalType": "address"
                },
                {
                    "name": "collateralToken",
                    "type": "address",
                    "indexed": true,
                    "internalType": "address"
                },
                {
                    "name": "amount",
                    "type": "uint256",
                    "indexed": false,
                    "internalType": "uint256"
                }
            ],
            "anonymous": false
        },
        {
            "type": "error",
            "name": "OwnableInvalidOwner",
            "inputs": [
                {
                    "name": "owner",
                    "type": "address",
                    "internalType": "address"
                }
            ]
        },
        {
            "type": "error",
            "name": "OwnableUnauthorizedAccount",
            "inputs": [
                {
                    "name": "account",
                    "type": "address",
                    "internalType": "address"
                }
            ]
        },
        {
            "type": "error",
            "name": "ReentrancyGuardReentrantCall",
            "inputs": []
        },
        {
            "type": "error",
            "name": "ZephyraVault__AmountGreaterThanBalance",
            "inputs": [
                {
                    "name": "amount",
                    "type": "uint256",
                    "internalType": "uint256"
                },
                {
                    "name": "balance",
                    "type": "uint256",
                    "internalType": "uint256"
                }
            ]
        },
        {
            "type": "error",
            "name": "ZephyraVault__AmountShouldBeGreaterThanZero",
            "inputs": []
        },
        {
            "type": "error",
            "name": "ZephyraVault__BrokenHealthFactor",
            "inputs": [
                {
                    "name": "healthFactor",
                    "type": "uint256",
                    "internalType": "uint256"
                }
            ]
        },
        {
            "type": "error",
            "name": "ZephyraVault__CollateralTokenAndPricefeedMismatch",
            "inputs": []
        },
        {
            "type": "error",
            "name": "ZephyraVault__DebtToCoverShouldNotBeGreaterThanBalance",
            "inputs": []
        },
        {
            "type": "error",
            "name": "ZephyraVault__HealthFactorNotOkay",
            "inputs": []
        },
        {
            "type": "error",
            "name": "ZephyraVault__HealthFactorOkay",
            "inputs": [
                {
                    "name": "healthFactor",
                    "type": "uint256",
                    "internalType": "uint256"
                }
            ]
        },
        {
            "type": "error",
            "name": "ZephyraVault__InsufficientBalance",
            "inputs": []
        },
        {
            "type": "error",
            "name": "ZephyraVault__InsufficientCollateral",
            "inputs": []
        },
        {
            "type": "error",
            "name": "ZephyraVault__InvalidAddress",
            "inputs": []
        },
        {
            "type": "error",
            "name": "ZephyraVault__InvalidCollateralContractAddress",
            "inputs": []
        },
        {
            "type": "error",
            "name": "ZephyraVault__InvalidZUSDContractAddress",
            "inputs": []
        },
        {
            "type": "error",
            "name": "ZephyraVault__LiquidatorHealthFactorNotOkay",
            "inputs": [
                {
                    "name": "healthFactor",
                    "type": "uint256",
                    "internalType": "uint256"
                }
            ]
        },
        {
            "type": "error",
            "name": "ZephyraVault__MintFailed",
            "inputs": []
        },
        {
            "type": "error",
            "name": "ZephyraVault__NotApprovedToken",
            "inputs": []
        },
        {
            "type": "error",
            "name": "ZephyraVault__TransferFailed",
            "inputs": []
        }
    ],
    "bytecode": {
        "object": "0x60a060405234801562000010575f80fd5b5060405162003d2f38038062003d2f83398181016040528101906200003691906200065b565b335f73ffffffffffffffffffffffffffffffffffffffff168173ffffffffffffffffffffffffffffffffffffffff1603620000aa575f6040517f1e4fbdf7000000000000000000000000000000000000000000000000000000008152600401620000a1919062000703565b60405180910390fd5b620000bb816200037a60201b60201c565b50600180819055508051825114620000ff576040517f5630460c00000000000000000000000000000000000000000000000000000000815260040160405180910390fd5b5f5b8251811015620002d6575f8382815181106200012257620001216200071e565b5b602002602001015190505f8383815181106200014357620001426200071e565b5b602002602001015190505f73ffffffffffffffffffffffffffffffffffffffff168273ffffffffffffffffffffffffffffffffffffffff161480620001b357505f73ffffffffffffffffffffffffffffffffffffffff168173ffffffffffffffffffffffffffffffffffffffff16145b15620001eb576040517fc915e22500000000000000000000000000000000000000000000000000000000815260040160405180910390fd5b600382908060018154018082558091505060019003905f5260205f20015f9091909190916101000a81548173ffffffffffffffffffffffffffffffffffffffff021916908373ffffffffffffffffffffffffffffffffffffffff1602179055508060045f8473ffffffffffffffffffffffffffffffffffffffff1673ffffffffffffffffffffffffffffffffffffffff1681526020019081526020015f205f6101000a81548173ffffffffffffffffffffffffffffffffffffffff021916908373ffffffffffffffffffffffffffffffffffffffff1602179055505050808060010191505062000101565b505f73ffffffffffffffffffffffffffffffffffffffff168373ffffffffffffffffffffffffffffffffffffffff16036200033d576040517f9a4d6f6700000000000000000000000000000000000000000000000000000000815260040160405180910390fd5b8273ffffffffffffffffffffffffffffffffffffffff1660808173ffffffffffffffffffffffffffffffffffffffff16815250505050506200074b565b5f805f9054906101000a900473ffffffffffffffffffffffffffffffffffffffff169050815f806101000a81548173ffffffffffffffffffffffffffffffffffffffff021916908373ffffffffffffffffffffffffffffffffffffffff1602179055508173ffffffffffffffffffffffffffffffffffffffff168173ffffffffffffffffffffffffffffffffffffffff167f8be0079c531659141344cd1fd0a4f28419497f9722a3daafe3b4186f6b6457e060405160405180910390a35050565b5f604051905090565b5f80fd5b5f80fd5b5f73ffffffffffffffffffffffffffffffffffffffff82169050919050565b5f62000477826200044c565b9050919050565b5f6200048a826200046b565b9050919050565b6200049c816200047e565b8114620004a7575f80fd5b50565b5f81519050620004ba8162000491565b92915050565b5f80fd5b5f601f19601f8301169050919050565b7f4e487b71000000000000000000000000000000000000000000000000000000005f52604160045260245ffd5b6200050c82620004c4565b810181811067ffffffffffffffff821117156200052e576200052d620004d4565b5b80604052505050565b5f620005426200043b565b905062000550828262000501565b919050565b5f67ffffffffffffffff821115620005725762000571620004d4565b5b602082029050602081019050919050565b5f80fd5b62000592816200046b565b81146200059d575f80fd5b50565b5f81519050620005b08162000587565b92915050565b5f620005cc620005c68462000555565b62000537565b90508083825260208201905060208402830185811115620005f257620005f162000583565b5b835b818110156200061f57806200060a8882620005a0565b845260208401935050602081019050620005f4565b5050509392505050565b5f82601f83011262000640576200063f620004c0565b5b815162000652848260208601620005b6565b91505092915050565b5f805f6060848603121562000675576200067462000444565b5b5f6200068486828701620004aa565b935050602084015167ffffffffffffffff811115620006a857620006a762000448565b5b620006b68682870162000629565b925050604084015167ffffffffffffffff811115620006da57620006d962000448565b5b620006e88682870162000629565b9150509250925092565b620006fd816200046b565b82525050565b5f602082019050620007185f830184620006f2565b92915050565b7f4e487b71000000000000000000000000000000000000000000000000000000005f52603260045260245ffd5b6080516135a8620007875f395f8181610801015281816108d701528181611a4a01528181611d12015281816120f601526121cc01526135a85ff3fe608060405234801561000f575f80fd5b506004361061013f575f3560e01c80639fa36014116100b6578063c5d313b11161007a578063c5d313b11461035c578063c660d11214610378578063ca8c14b0146103a8578063f2ba5677146103c4578063f2fde38b146103f4578063fe6bcd7c146104105761013f565b80639fa36014146102a8578063a5d5db0c146102c4578063afea2e48146102e0578063b9d2a6b014610310578063bd6639a51461032c5761013f565b8063715018a611610108578063715018a6146101e75780637be564fc146101f15780638da5cb5b1461022257806390e521f31461024057806397904e421461025c5780639acd81b31461028c5761013f565b8062ce8e3e1461014357806302562087146101615780631239876d1461017d57806326c013031461019b57806335221cd3146101b7575b5f80fd5b61014b610440565b6040516101589190612f3f565b60405180910390f35b61017b60048036038101906101769190612fc0565b6104cb565b005b61018561096b565b604051610192919061300d565b60405180910390f35b6101b560048036038101906101b09190613026565b610974565b005b6101d160048036038101906101cc9190613076565b610d6b565b6040516101de919061300d565b60405180910390f35b6101ef610db1565b005b61020b60048036038101906102069190613076565b610dc4565b6040516102199291906130a1565b60405180910390f35b61022a610ddc565b60405161023791906130d7565b60405180910390f35b61025a600480360381019061025591906130f0565b610e03565b005b61027660048036038101906102719190613076565b610e65565b604051610283919061300d565b60405180910390f35b6102a660048036038101906102a19190612fc0565b610f5f565b005b6102c260048036038101906102bd919061311b565b6110db565b005b6102de60048036038101906102d99190612fc0565b611103565b005b6102fa60048036038101906102f59190612fc0565b61163f565b604051610307919061300d565b60405180910390f35b61032a60048036038101906103259190612fc0565b61176e565b005b6103466004803603810190610341919061316b565b611948565b604051610353919061300d565b60405180910390f35b610376600480360381019061037191906130f0565b61195b565b005b610392600480360381019061038d9190612fc0565b611b29565b60405161039f919061300d565b60405180910390f35b6103c260048036038101906103bd9190613076565b611c58565b005b6103de60048036038101906103d991906131a9565b611df2565b6040516103eb919061300d565b60405180910390f35b61040e60048036038101906104099190613076565b611e74565b005b61042a60048036038101906104259190613076565b611ef8565b604051610437919061300d565b60405180910390f35b606060028054806020026020016040519081016040528092919081815260200182805480156104c157602002820191905f5260205f20905b815f9054906101000a900473ffffffffffffffffffffffffffffffffffffffff1673ffffffffffffffffffffffffffffffffffffffff1681526020019060010190808311610478575b5050505050905090565b805f8103610505576040517f65748a2500000000000000000000000000000000000000000000000000000000815260040160405180910390fd5b825f73ffffffffffffffffffffffffffffffffffffffff168173ffffffffffffffffffffffffffffffffffffffff160361056b576040517fc915e22500000000000000000000000000000000000000000000000000000000815260040160405180910390fd5b5f73ffffffffffffffffffffffffffffffffffffffff1660045f8373ffffffffffffffffffffffffffffffffffffffff1673ffffffffffffffffffffffffffffffffffffffff1681526020019081526020015f205f9054906101000a900473ffffffffffffffffffffffffffffffffffffffff1673ffffffffffffffffffffffffffffffffffffffff160361062c576040517f3d2c94b600000000000000000000000000000000000000000000000000000000815260040160405180910390fd5b610634611f09565b8260065f3373ffffffffffffffffffffffffffffffffffffffff1673ffffffffffffffffffffffffffffffffffffffff1681526020019081526020015f205410156106ab576040517f9b875a1c00000000000000000000000000000000000000000000000000000000815260040160405180910390fd5b5f6106b6858561163f565b90508360065f3373ffffffffffffffffffffffffffffffffffffffff1673ffffffffffffffffffffffffffffffffffffffff1681526020019081526020015f205f8282546107049190613214565b925050819055508060055f3373ffffffffffffffffffffffffffffffffffffffff1673ffffffffffffffffffffffffffffffffffffffff1681526020019081526020015f205f8773ffffffffffffffffffffffffffffffffffffffff1673ffffffffffffffffffffffffffffffffffffffff1681526020019081526020015f205f8282546107929190613247565b925050819055508473ffffffffffffffffffffffffffffffffffffffff163373ffffffffffffffffffffffffffffffffffffffff167ff1c0dd7e9b98bbff859029005ef89b127af049cd18df1a8d79f0b7e019911e56836040516107f6919061300d565b60405180910390a35f7f000000000000000000000000000000000000000000000000000000000000000073ffffffffffffffffffffffffffffffffffffffff166323b872dd3330886040518463ffffffff1660e01b815260040161085c9392919061327a565b6020604051808303815f875af1158015610878573d5f803e3d5ffd5b505050506040513d601f19601f8201168201806040525081019061089c91906132e4565b9050806108d5576040517f9fff575200000000000000000000000000000000000000000000000000000000815260040160405180910390fd5b7f000000000000000000000000000000000000000000000000000000000000000073ffffffffffffffffffffffffffffffffffffffff166342966c68866040518263ffffffff1660e01b815260040161092e919061300d565b5f604051808303815f87803b158015610945575f80fd5b505af1158015610957573d5f803e3d5ffd5b505050505050610965611f4f565b50505050565b5f600854905090565b805f81036109ae576040517f65748a2500000000000000000000000000000000000000000000000000000000815260040160405180910390fd5b835f73ffffffffffffffffffffffffffffffffffffffff168173ffffffffffffffffffffffffffffffffffffffff1603610a14576040517fc915e22500000000000000000000000000000000000000000000000000000000815260040160405180910390fd5b5f73ffffffffffffffffffffffffffffffffffffffff1660045f8373ffffffffffffffffffffffffffffffffffffffff1673ffffffffffffffffffffffffffffffffffffffff1681526020019081526020015f205f9054906101000a900473ffffffffffffffffffffffffffffffffffffffff1673ffffffffffffffffffffffffffffffffffffffff1603610ad5576040517f3d2c94b600000000000000000000000000000000000000000000000000000000815260040160405180910390fd5b610add611f09565b5f610ae785611f58565b90505f610af333611f58565b9050670de0b6b3a76400008210610b4157816040517fc93f85ab000000000000000000000000000000000000000000000000000000008152600401610b38919061300d565b60405180910390fd5b670de0b6b3a7640000811015610b8e57806040517f2ccbb613000000000000000000000000000000000000000000000000000000008152600401610b85919061300d565b60405180910390fd5b5f610b99888761163f565b90505f6064600a83610bab919061330f565b610bb5919061337d565b90505f8183610bc49190613247565b90505f60055f8b73ffffffffffffffffffffffffffffffffffffffff1673ffffffffffffffffffffffffffffffffffffffff1681526020019081526020015f205f8c73ffffffffffffffffffffffffffffffffffffffff1673ffffffffffffffffffffffffffffffffffffffff1681526020019081526020015f205490505f8282610c4f9190613214565b90505f610c5c8d83611b29565b90508160085f828254610c6f9190613247565b925050819055508a60065f8e73ffffffffffffffffffffffffffffffffffffffff1673ffffffffffffffffffffffffffffffffffffffff1681526020019081526020015f20541015610ced576040517fe018aead00000000000000000000000000000000000000000000000000000000815260040160405180910390fd5b610cf88b8d33611fdf565b610d048d858e33612256565b5f610d0e8d611f58565b905088811015610d4a576040517fd47e6ea400000000000000000000000000000000000000000000000000000000815260040160405180910390fd5b610d538d61276e565b505050505050505050610d64611f4f565b5050505050565b5f60065f8373ffffffffffffffffffffffffffffffffffffffff1673ffffffffffffffffffffffffffffffffffffffff1681526020019081526020015f20549050919050565b610db96127cb565b610dc25f612852565b565b5f80610dcf83612913565b8092508193505050915091565b5f805f9054906101000a900473ffffffffffffffffffffffffffffffffffffffff16905090565b805f8103610e3d576040517f65748a2500000000000000000000000000000000000000000000000000000000815260040160405180910390fd5b610e45611f09565b610e50823333611fdf565b610e593361276e565b610e61611f4f565b5050565b5f805f90505b600380549050811015610f59575f60038281548110610e8d57610e8c6133ad565b5b905f5260205f20015f9054906101000a900473ffffffffffffffffffffffffffffffffffffffff1690505f60055f8673ffffffffffffffffffffffffffffffffffffffff1673ffffffffffffffffffffffffffffffffffffffff1681526020019081526020015f205f8373ffffffffffffffffffffffffffffffffffffffff1673ffffffffffffffffffffffffffffffffffffffff1681526020019081526020015f20549050610f3d8282611b29565b84610f489190613247565b935050508080600101915050610e6b565b50919050565b805f8103610f99576040517f65748a2500000000000000000000000000000000000000000000000000000000815260040160405180910390fd5b825f73ffffffffffffffffffffffffffffffffffffffff168173ffffffffffffffffffffffffffffffffffffffff1603610fff576040517fc915e22500000000000000000000000000000000000000000000000000000000815260040160405180910390fd5b5f73ffffffffffffffffffffffffffffffffffffffff1660045f8373ffffffffffffffffffffffffffffffffffffffff1673ffffffffffffffffffffffffffffffffffffffff1681526020019081526020015f205f9054906101000a900473ffffffffffffffffffffffffffffffffffffffff1673ffffffffffffffffffffffffffffffffffffffff16036110c0576040517f3d2c94b600000000000000000000000000000000000000000000000000000000815260040160405180910390fd5b6110cc84843333612965565b6110d53361276e565b50505050565b6110e3611f09565b6110ed8383611103565b6110f68161195b565b6110fe611f4f565b505050565b805f810361113d576040517f65748a2500000000000000000000000000000000000000000000000000000000815260040160405180910390fd5b825f73ffffffffffffffffffffffffffffffffffffffff168173ffffffffffffffffffffffffffffffffffffffff16036111a3576040517fc915e22500000000000000000000000000000000000000000000000000000000815260040160405180910390fd5b5f73ffffffffffffffffffffffffffffffffffffffff1660045f8373ffffffffffffffffffffffffffffffffffffffff1673ffffffffffffffffffffffffffffffffffffffff1681526020019081526020015f205f9054906101000a900473ffffffffffffffffffffffffffffffffffffffff1673ffffffffffffffffffffffffffffffffffffffff1603611264576040517f3d2c94b600000000000000000000000000000000000000000000000000000000815260040160405180910390fd5b5f73ffffffffffffffffffffffffffffffffffffffff168473ffffffffffffffffffffffffffffffffffffffff16036112c9576040517fc915e22500000000000000000000000000000000000000000000000000000000815260040160405180910390fd5b5f73ffffffffffffffffffffffffffffffffffffffff1660045f8673ffffffffffffffffffffffffffffffffffffffff1673ffffffffffffffffffffffffffffffffffffffff1681526020019081526020015f205f9054906101000a900473ffffffffffffffffffffffffffffffffffffffff1673ffffffffffffffffffffffffffffffffffffffff160361138a576040517f5630460c00000000000000000000000000000000000000000000000000000000815260040160405180910390fd5b8260055f3373ffffffffffffffffffffffffffffffffffffffff1673ffffffffffffffffffffffffffffffffffffffff1681526020019081526020015f205f8673ffffffffffffffffffffffffffffffffffffffff1673ffffffffffffffffffffffffffffffffffffffff1681526020019081526020015f205f8282546114119190613247565b925050819055508373ffffffffffffffffffffffffffffffffffffffff163373ffffffffffffffffffffffffffffffffffffffff167ff1c0dd7e9b98bbff859029005ef89b127af049cd18df1a8d79f0b7e019911e5685604051611475919061300d565b60405180910390a360075f3373ffffffffffffffffffffffffffffffffffffffff1673ffffffffffffffffffffffffffffffffffffffff1681526020019081526020015f205f9054906101000a900460ff1661158157600233908060018154018082558091505060019003905f5260205f20015f9091909190916101000a81548173ffffffffffffffffffffffffffffffffffffffff021916908373ffffffffffffffffffffffffffffffffffffffff160217905550600160075f3373ffffffffffffffffffffffffffffffffffffffff1673ffffffffffffffffffffffffffffffffffffffff1681526020019081526020015f205f6101000a81548160ff0219169083151502179055505b5f8473ffffffffffffffffffffffffffffffffffffffff166323b872dd3330876040518463ffffffff1660e01b81526004016115bf9392919061327a565b6020604051808303815f875af11580156115db573d5f803e3d5ffd5b505050506040513d601f19601f820116820180604052508101906115ff91906132e4565b905080611638576040517f9fff575200000000000000000000000000000000000000000000000000000000815260040160405180910390fd5b5050505050565b5f8060045f8573ffffffffffffffffffffffffffffffffffffffff1673ffffffffffffffffffffffffffffffffffffffff1681526020019081526020015f205f9054906101000a900473ffffffffffffffffffffffffffffffffffffffff1690505f8173ffffffffffffffffffffffffffffffffffffffff1673__$1f06ac8d622ce42796cee98ba1044ce165$__632ba1c96a90916040518263ffffffff1660e01b81526004016116f09190613435565b60a060405180830381865af415801561170b573d5f803e3d5ffd5b505050506040513d601f19601f8201168201806040525081019061172f91906134d4565b5050509150506402540be40081611746919061330f565b670de0b6b3a76400008561175a919061330f565b611764919061337d565b9250505092915050565b805f81036117a8576040517f65748a2500000000000000000000000000000000000000000000000000000000815260040160405180910390fd5b825f73ffffffffffffffffffffffffffffffffffffffff168173ffffffffffffffffffffffffffffffffffffffff160361180e576040517fc915e22500000000000000000000000000000000000000000000000000000000815260040160405180910390fd5b5f73ffffffffffffffffffffffffffffffffffffffff1660045f8373ffffffffffffffffffffffffffffffffffffffff1673ffffffffffffffffffffffffffffffffffffffff1681526020019081526020015f205f9054906101000a900473ffffffffffffffffffffffffffffffffffffffff1673ffffffffffffffffffffffffffffffffffffffff16036118cf576040517f3d2c94b600000000000000000000000000000000000000000000000000000000815260040160405180910390fd5b5f6118d933610e65565b90505f6118e6868661163f565b905084821015611922576040517f9b875a1c00000000000000000000000000000000000000000000000000000000815260040160405180910390fd5b61192d853333611fdf565b6119378682610f5f565b6119403361276e565b505050505050565b5f6119538383612ddc565b905092915050565b805f8103611995576040517f65748a2500000000000000000000000000000000000000000000000000000000815260040160405180910390fd5b61199d611f09565b8160065f3373ffffffffffffffffffffffffffffffffffffffff1673ffffffffffffffffffffffffffffffffffffffff1681526020019081526020015f205f8282546119e99190613247565b925050819055506119f93361276e565b3373ffffffffffffffffffffffffffffffffffffffff167f63ee2919afdc3cf782e8a6f6397255cc6883d6483cad9cf05949ad4b3ffd0bfc83604051611a3f919061300d565b60405180910390a25f7f000000000000000000000000000000000000000000000000000000000000000073ffffffffffffffffffffffffffffffffffffffff166340c10f1933856040518363ffffffff1660e01b8152600401611aa392919061354b565b6020604051808303815f875af1158015611abf573d5f803e3d5ffd5b505050506040513d601f19601f82011682018060405250810190611ae391906132e4565b905080611b1c576040517fa91645bb00000000000000000000000000000000000000000000000000000000815260040160405180910390fd5b50611b25611f4f565b5050565b5f8060045f8573ffffffffffffffffffffffffffffffffffffffff1673ffffffffffffffffffffffffffffffffffffffff1681526020019081526020015f205f9054906101000a900473ffffffffffffffffffffffffffffffffffffffff1690505f8173ffffffffffffffffffffffffffffffffffffffff1673__$1f06ac8d622ce42796cee98ba1044ce165$__632ba1c96a90916040518263ffffffff1660e01b8152600401611bda9190613435565b60a060405180830381865af4158015611bf5573d5f803e3d5ffd5b505050506040513d601f19601f82011682018060405250810190611c1991906134d4565b505050915050670de0b6b3a7640000846402540be40083611c3a919061330f565b611c44919061330f565b611c4e919061337d565b9250505092915050565b611c606127cb565b611c68611f09565b5f73ffffffffffffffffffffffffffffffffffffffff168173ffffffffffffffffffffffffffffffffffffffff1603611ccd576040517fdbbb569d00000000000000000000000000000000000000000000000000000000815260040160405180910390fd5b5f60085403611d08576040517f9b875a1c00000000000000000000000000000000000000000000000000000000815260040160405180910390fd5b5f6008819055505f7f000000000000000000000000000000000000000000000000000000000000000073ffffffffffffffffffffffffffffffffffffffff1663a9059cbb836008546040518363ffffffff1660e01b8152600401611d6d92919061354b565b6020604051808303815f875af1158015611d89573d5f803e3d5ffd5b505050506040513d601f19601f82011682018060405250810190611dad91906132e4565b905080611de6576040517f9fff575200000000000000000000000000000000000000000000000000000000815260040160405180910390fd5b50611def611f4f565b50565b5f60055f8473ffffffffffffffffffffffffffffffffffffffff1673ffffffffffffffffffffffffffffffffffffffff1681526020019081526020015f205f8373ffffffffffffffffffffffffffffffffffffffff1673ffffffffffffffffffffffffffffffffffffffff1681526020019081526020015f2054905092915050565b611e7c6127cb565b5f73ffffffffffffffffffffffffffffffffffffffff168173ffffffffffffffffffffffffffffffffffffffff1603611eec575f6040517f1e4fbdf7000000000000000000000000000000000000000000000000000000008152600401611ee391906130d7565b60405180910390fd5b611ef581612852565b50565b5f611f0282611f58565b9050919050565b600260015403611f45576040517f3ee5aeb500000000000000000000000000000000000000000000000000000000815260040160405180910390fd5b6002600181905550565b60018081905550565b5f805f611f6484612913565b915091505f8103611f99577fffffffffffffffffffffffffffffffffffffffffffffffffffffffffffffffff92505050611fda565b5f6064603284611fa9919061330f565b611fb3919061337d565b905081670de0b6b3a764000082611fca919061330f565b611fd4919061337d565b93505050505b919050565b8260065f8473ffffffffffffffffffffffffffffffffffffffff1673ffffffffffffffffffffffffffffffffffffffff1681526020019081526020015f205410156120a0578260065f8473ffffffffffffffffffffffffffffffffffffffff1673ffffffffffffffffffffffffffffffffffffffff1681526020019081526020015f20546040517fd406a3e70000000000000000000000000000000000000000000000000000000081526004016120979291906130a1565b60405180910390fd5b8260065f8473ffffffffffffffffffffffffffffffffffffffff1673ffffffffffffffffffffffffffffffffffffffff1681526020019081526020015f205f8282546120ec9190613214565b925050819055505f7f000000000000000000000000000000000000000000000000000000000000000073ffffffffffffffffffffffffffffffffffffffff166323b872dd8330876040518463ffffffff1660e01b81526004016121519392919061327a565b6020604051808303815f875af115801561216d573d5f803e3d5ffd5b505050506040513d601f19601f8201168201806040525081019061219191906132e4565b9050806121ca576040517f9fff575200000000000000000000000000000000000000000000000000000000815260040160405180910390fd5b7f000000000000000000000000000000000000000000000000000000000000000073ffffffffffffffffffffffffffffffffffffffff166342966c68856040518263ffffffff1660e01b8152600401612223919061300d565b5f604051808303815f87803b15801561223a575f80fd5b505af115801561224c573d5f803e3d5ffd5b5050505050505050565b825f8103612290576040517f65748a2500000000000000000000000000000000000000000000000000000000815260040160405180910390fd5b845f73ffffffffffffffffffffffffffffffffffffffff168173ffffffffffffffffffffffffffffffffffffffff16036122f6576040517fc915e22500000000000000000000000000000000000000000000000000000000815260040160405180910390fd5b5f73ffffffffffffffffffffffffffffffffffffffff1660045f8373ffffffffffffffffffffffffffffffffffffffff1673ffffffffffffffffffffffffffffffffffffffff1681526020019081526020015f205f9054906101000a900473ffffffffffffffffffffffffffffffffffffffff1673ffffffffffffffffffffffffffffffffffffffff16036123b7576040517f3d2c94b600000000000000000000000000000000000000000000000000000000815260040160405180910390fd5b5f73ffffffffffffffffffffffffffffffffffffffff168473ffffffffffffffffffffffffffffffffffffffff16148061241c57505f73ffffffffffffffffffffffffffffffffffffffff168373ffffffffffffffffffffffffffffffffffffffff16145b15612453576040517fdbbb569d00000000000000000000000000000000000000000000000000000000815260040160405180910390fd5b8460055f8573ffffffffffffffffffffffffffffffffffffffff1673ffffffffffffffffffffffffffffffffffffffff1681526020019081526020015f205f8873ffffffffffffffffffffffffffffffffffffffff1673ffffffffffffffffffffffffffffffffffffffff1681526020019081526020015f20541015612505576040517fd760cb1e00000000000000000000000000000000000000000000000000000000815260040160405180910390fd5b8460055f8673ffffffffffffffffffffffffffffffffffffffff1673ffffffffffffffffffffffffffffffffffffffff1681526020019081526020015f205f8873ffffffffffffffffffffffffffffffffffffffff1673ffffffffffffffffffffffffffffffffffffffff1681526020019081526020015f205410156125b7576040517fd760cb1e00000000000000000000000000000000000000000000000000000000815260040160405180910390fd5b5f60055f8673ffffffffffffffffffffffffffffffffffffffff1673ffffffffffffffffffffffffffffffffffffffff1681526020019081526020015f205f8873ffffffffffffffffffffffffffffffffffffffff1673ffffffffffffffffffffffffffffffffffffffff1681526020019081526020015f20819055508573ffffffffffffffffffffffffffffffffffffffff168373ffffffffffffffffffffffffffffffffffffffff168573ffffffffffffffffffffffffffffffffffffffff167f71caac3cadab3f31a4ec2f424206de4367424868286b0b5ece091096b250ef82886040516126a8919061300d565b60405180910390a45f8673ffffffffffffffffffffffffffffffffffffffff1663a9059cbb85886040518363ffffffff1660e01b81526004016126ec92919061354b565b6020604051808303815f875af1158015612708573d5f803e3d5ffd5b505050506040513d601f19601f8201168201806040525081019061272c91906132e4565b905080612765576040517f9fff575200000000000000000000000000000000000000000000000000000000815260040160405180910390fd5b50505050505050565b5f61277882611f58565b9050670de0b6b3a76400008110156127c757806040517fb0f04c310000000000000000000000000000000000000000000000000000000081526004016127be919061300d565b60405180910390fd5b5050565b6127d3612e51565b73ffffffffffffffffffffffffffffffffffffffff166127f1610ddc565b73ffffffffffffffffffffffffffffffffffffffff161461285057612814612e51565b6040517f118cdaa700000000000000000000000000000000000000000000000000000000815260040161284791906130d7565b60405180910390fd5b565b5f805f9054906101000a900473ffffffffffffffffffffffffffffffffffffffff169050815f806101000a81548173ffffffffffffffffffffffffffffffffffffffff021916908373ffffffffffffffffffffffffffffffffffffffff1602179055508173ffffffffffffffffffffffffffffffffffffffff168173ffffffffffffffffffffffffffffffffffffffff167f8be0079c531659141344cd1fd0a4f28419497f9722a3daafe3b4186f6b6457e060405160405180910390a35050565b5f8061291e83610e65565b915060065f8473ffffffffffffffffffffffffffffffffffffffff1673ffffffffffffffffffffffffffffffffffffffff1681526020019081526020015f20549050915091565b825f810361299f576040517f65748a2500000000000000000000000000000000000000000000000000000000815260040160405180910390fd5b845f73ffffffffffffffffffffffffffffffffffffffff168173ffffffffffffffffffffffffffffffffffffffff1603612a05576040517fc915e22500000000000000000000000000000000000000000000000000000000815260040160405180910390fd5b5f73ffffffffffffffffffffffffffffffffffffffff1660045f8373ffffffffffffffffffffffffffffffffffffffff1673ffffffffffffffffffffffffffffffffffffffff1681526020019081526020015f205f9054906101000a900473ffffffffffffffffffffffffffffffffffffffff1673ffffffffffffffffffffffffffffffffffffffff1603612ac6576040517f3d2c94b600000000000000000000000000000000000000000000000000000000815260040160405180910390fd5b5f73ffffffffffffffffffffffffffffffffffffffff168473ffffffffffffffffffffffffffffffffffffffff161480612b2b57505f73ffffffffffffffffffffffffffffffffffffffff168373ffffffffffffffffffffffffffffffffffffffff16145b15612b62576040517fdbbb569d00000000000000000000000000000000000000000000000000000000815260040160405180910390fd5b8460055f8573ffffffffffffffffffffffffffffffffffffffff1673ffffffffffffffffffffffffffffffffffffffff1681526020019081526020015f205f8873ffffffffffffffffffffffffffffffffffffffff1673ffffffffffffffffffffffffffffffffffffffff1681526020019081526020015f20541015612c14576040517fd760cb1e00000000000000000000000000000000000000000000000000000000815260040160405180910390fd5b8460055f8673ffffffffffffffffffffffffffffffffffffffff1673ffffffffffffffffffffffffffffffffffffffff1681526020019081526020015f205f8873ffffffffffffffffffffffffffffffffffffffff1673ffffffffffffffffffffffffffffffffffffffff1681526020019081526020015f205f828254612c9b9190613214565b925050819055508573ffffffffffffffffffffffffffffffffffffffff168373ffffffffffffffffffffffffffffffffffffffff168573ffffffffffffffffffffffffffffffffffffffff167f71caac3cadab3f31a4ec2f424206de4367424868286b0b5ece091096b250ef8288604051612d16919061300d565b60405180910390a45f8673ffffffffffffffffffffffffffffffffffffffff1663a9059cbb85886040518363ffffffff1660e01b8152600401612d5a92919061354b565b6020604051808303815f875af1158015612d76573d5f803e3d5ffd5b505050506040513d601f19601f82011682018060405250810190612d9a91906132e4565b905080612dd3576040517f9fff575200000000000000000000000000000000000000000000000000000000815260040160405180910390fd5b50505050505050565b5f808203612e0c577fffffffffffffffffffffffffffffffffffffffffffffffffffffffffffffffff9050612e4b565b5f6064603285612e1c919061330f565b612e26919061337d565b905082670de0b6b3a764000082612e3d919061330f565b612e47919061337d565b9150505b92915050565b5f33905090565b5f81519050919050565b5f82825260208201905092915050565b5f819050602082019050919050565b5f73ffffffffffffffffffffffffffffffffffffffff82169050919050565b5f612eaa82612e81565b9050919050565b612eba81612ea0565b82525050565b5f612ecb8383612eb1565b60208301905092915050565b5f602082019050919050565b5f612eed82612e58565b612ef78185612e62565b9350612f0283612e72565b805f5b83811015612f32578151612f198882612ec0565b9750612f2483612ed7565b925050600181019050612f05565b5085935050505092915050565b5f6020820190508181035f830152612f578184612ee3565b905092915050565b5f80fd5b612f6c81612ea0565b8114612f76575f80fd5b50565b5f81359050612f8781612f63565b92915050565b5f819050919050565b612f9f81612f8d565b8114612fa9575f80fd5b50565b5f81359050612fba81612f96565b92915050565b5f8060408385031215612fd657612fd5612f5f565b5b5f612fe385828601612f79565b9250506020612ff485828601612fac565b9150509250929050565b61300781612f8d565b82525050565b5f6020820190506130205f830184612ffe565b92915050565b5f805f6060848603121561303d5761303c612f5f565b5b5f61304a86828701612f79565b935050602061305b86828701612f79565b925050604061306c86828701612fac565b9150509250925092565b5f6020828403121561308b5761308a612f5f565b5b5f61309884828501612f79565b91505092915050565b5f6040820190506130b45f830185612ffe565b6130c16020830184612ffe565b9392505050565b6130d181612ea0565b82525050565b5f6020820190506130ea5f8301846130c8565b92915050565b5f6020828403121561310557613104612f5f565b5b5f61311284828501612fac565b91505092915050565b5f805f6060848603121561313257613131612f5f565b5b5f61313f86828701612f79565b935050602061315086828701612fac565b925050604061316186828701612fac565b9150509250925092565b5f806040838503121561318157613180612f5f565b5b5f61318e85828601612fac565b925050602061319f85828601612fac565b9150509250929050565b5f80604083850312156131bf576131be612f5f565b5b5f6131cc85828601612f79565b92505060206131dd85828601612f79565b9150509250929050565b7f4e487b71000000000000000000000000000000000000000000000000000000005f52601160045260245ffd5b5f61321e82612f8d565b915061322983612f8d565b9250828203905081811115613241576132406131e7565b5b92915050565b5f61325182612f8d565b915061325c83612f8d565b9250828201905080821115613274576132736131e7565b5b92915050565b5f60608201905061328d5f8301866130c8565b61329a60208301856130c8565b6132a76040830184612ffe565b949350505050565b5f8115159050919050565b6132c3816132af565b81146132cd575f80fd5b50565b5f815190506132de816132ba565b92915050565b5f602082840312156132f9576132f8612f5f565b5b5f613306848285016132d0565b91505092915050565b5f61331982612f8d565b915061332483612f8d565b925082820261333281612f8d565b91508282048414831517613349576133486131e7565b5b5092915050565b7f4e487b71000000000000000000000000000000000000000000000000000000005f52601260045260245ffd5b5f61338782612f8d565b915061339283612f8d565b9250826133a2576133a1613350565b5b828204905092915050565b7f4e487b71000000000000000000000000000000000000000000000000000000005f52603260045260245ffd5b5f819050919050565b5f6133fd6133f86133f384612e81565b6133da565b612e81565b9050919050565b5f61340e826133e3565b9050919050565b5f61341f82613404565b9050919050565b61342f81613415565b82525050565b5f6020820190506134485f830184613426565b92915050565b5f69ffffffffffffffffffff82169050919050565b61346c8161344e565b8114613476575f80fd5b50565b5f8151905061348781613463565b92915050565b5f819050919050565b61349f8161348d565b81146134a9575f80fd5b50565b5f815190506134ba81613496565b92915050565b5f815190506134ce81612f96565b92915050565b5f805f805f60a086880312156134ed576134ec612f5f565b5b5f6134fa88828901613479565b955050602061350b888289016134ac565b945050604061351c888289016134c0565b935050606061352d888289016134c0565b925050608061353e88828901613479565b9150509295509295909350565b5f60408201905061355e5f8301856130c8565b61356b6020830184612ffe565b939250505056fea2646970667358221220d1d289cf959c2dd653ce55e8f60b79ff13b8d7e7fbec2be61e243bd0e97cf08c64736f6c63430008180033",
        "linkReferences": {
            "src/libraries/OracleLib.sol": {
                "OracleLib": [
                    {
                        "start": 7745,
                        "length": 20
                    },
                    {
                        "start": 9003,
                        "length": 20
                    }
                ]
            }
        }
    },
    "methodIdentifiers": {
        "burnZusd(uint256)": "90e521f3",
        "depositCollateral(address,uint256)": "a5d5db0c",
        "depositCollateralAndMintZusd(address,uint256,uint256)": "9fa36014",
        "getAccountInformation(address)": "7be564fc",
        "getCalculatedHealthFactor(uint256,uint256)": "bd6639a5",
        "getCollateralValue(address)": "97904e42",
        "getHealthFactor(address)": "fe6bcd7c",
        "getMintedZusd(address)": "35221cd3",
        "getTokenAmountFromUsd(address,uint256)": "afea2e48",
        "getUsdValue(address,uint256)": "c660d112",
        "getUserCollateralBalance(address,address)": "f2ba5677",
        "getUsers()": "00ce8e3e",
        "getZusdGains()": "1239876d",
        "liquidate(address,address,uint256)": "26c01303",
        "mintZusd(uint256)": "c5d313b1",
        "owner()": "8da5cb5b",
        "redeemCollateral(address,uint256)": "9acd81b3",
        "redeemCollateralForZusd(address,uint256)": "b9d2a6b0",
        "renounceOwnership()": "715018a6",
        "swapZusdToCollateral(address,uint256)": "02562087",
        "transferOwnership(address)": "f2fde38b",
        "withdrawGains(address)": "ca8c14b0"
    },
    "id": 40
}