{
    "abi": [
        {
            "type": "constructor",
            "inputs": [
                {
                    "name": "_zusd",
                    "type": "address",
                    "internalType": "address"
                },
                {
                    "name": "_wrappedZusd",
                    "type": "address",
                    "internalType": "address"
                },
                {
                    "name": "_ccipTransfer",
                    "type": "address",
                    "internalType": "address"
                },
                {
                    "name": "_treasury",
                    "type": "address",
                    "internalType": "address"
                }
            ],
            "stateMutability": "nonpayable"
        },
        {
            "type": "function",
            "name": "i_ccipTransfer",
            "inputs": [],
            "outputs": [
                {
                    "name": "",
                    "type": "address",
                    "internalType": "contract ICCIPTransfer"
                }
            ],
            "stateMutability": "view"
        },
        {
            "type": "function",
            "name": "i_treasury",
            "inputs": [],
            "outputs": [
                {
                    "name": "",
                    "type": "address",
                    "internalType": "address"
                }
            ],
            "stateMutability": "view"
        },
        {
            "type": "function",
            "name": "i_wrappedZusd",
            "inputs": [],
            "outputs": [
                {
                    "name": "",
                    "type": "address",
                    "internalType": "contract IWrappedZUSD"
                }
            ],
            "stateMutability": "view"
        },
        {
            "type": "function",
            "name": "i_zusd",
            "inputs": [],
            "outputs": [
                {
                    "name": "",
                    "type": "address",
                    "internalType": "contract IERC20"
                }
            ],
            "stateMutability": "view"
        },
        {
            "type": "function",
            "name": "processAndSend",
            "inputs": [
                {
                    "name": "destinationChainSelector",
                    "type": "uint64",
                    "internalType": "uint64"
                },
                {
                    "name": "receiverOnDestChain",
                    "type": "address",
                    "internalType": "address"
                },
                {
                    "name": "amount",
                    "type": "uint256",
                    "internalType": "uint256"
                }
            ],
            "outputs": [],
            "stateMutability": "nonpayable"
        }
    ],
    "bytecode": {
        "object": "0x610100604052348015610010575f80fd5b50604051610a95380380610a9583398181016040528101906100329190610169565b8373ffffffffffffffffffffffffffffffffffffffff1660808173ffffffffffffffffffffffffffffffffffffffff16815250508273ffffffffffffffffffffffffffffffffffffffff1660a08173ffffffffffffffffffffffffffffffffffffffff16815250508173ffffffffffffffffffffffffffffffffffffffff1660c08173ffffffffffffffffffffffffffffffffffffffff16815250508073ffffffffffffffffffffffffffffffffffffffff1660e08173ffffffffffffffffffffffffffffffffffffffff1681525050505050506101cd565b5f80fd5b5f73ffffffffffffffffffffffffffffffffffffffff82169050919050565b5f6101388261010f565b9050919050565b6101488161012e565b8114610152575f80fd5b50565b5f815190506101638161013f565b92915050565b5f805f80608085870312156101815761018061010b565b5b5f61018e87828801610155565b945050602061019f87828801610155565b93505060406101b087828801610155565b92505060606101c187828801610155565b91505092959194509250565b60805160a05160c05160e0516108656102305f395f8181610198015261044c01525f818160ef0152818161031b015261039b01525f818161011301528181610257015281816102df01526103d901525f8181610137015261015b01526108655ff3fe608060405234801561000f575f80fd5b5060043610610055575f3560e01c806303b9f06e14610059578063091d72c914610077578063142a0ee5146100955780632545865c146100b3578063a89f50ca146100cf575b5f80fd5b6100616100ed565b60405161006e91906104e8565b60405180910390f35b61007f610111565b60405161008c9190610521565b60405180910390f35b61009d610135565b6040516100aa919061055a565b60405180910390f35b6100cd60048036038101906100c89190610622565b610159565b005b6100d761044a565b6040516100e49190610681565b60405180910390f35b7f000000000000000000000000000000000000000000000000000000000000000081565b7f000000000000000000000000000000000000000000000000000000000000000081565b7f000000000000000000000000000000000000000000000000000000000000000081565b7f000000000000000000000000000000000000000000000000000000000000000073ffffffffffffffffffffffffffffffffffffffff166323b872dd337f0000000000000000000000000000000000000000000000000000000000000000846040518463ffffffff1660e01b81526004016101d6939291906106a9565b6020604051808303815f875af11580156101f2573d5f803e3d5ffd5b505050506040513d601f19601f820116820180604052508101906102169190610713565b610255576040517f08c379a000000000000000000000000000000000000000000000000000000000815260040161024c90610798565b60405180910390fd5b7f000000000000000000000000000000000000000000000000000000000000000073ffffffffffffffffffffffffffffffffffffffff166340c10f1930836040518363ffffffff1660e01b81526004016102b09291906107b6565b5f604051808303815f87803b1580156102c7575f80fd5b505af11580156102d9573d5f803e3d5ffd5b505050507f000000000000000000000000000000000000000000000000000000000000000073ffffffffffffffffffffffffffffffffffffffff1663095ea7b37f0000000000000000000000000000000000000000000000000000000000000000836040518363ffffffff1660e01b81526004016103589291906107b6565b6020604051808303815f875af1158015610374573d5f803e3d5ffd5b505050506040513d601f19601f820116820180604052508101906103989190610713565b507f000000000000000000000000000000000000000000000000000000000000000073ffffffffffffffffffffffffffffffffffffffff166395e1402c84847f0000000000000000000000000000000000000000000000000000000000000000856040518563ffffffff1660e01b815260040161041894939291906107ec565b5f604051808303815f87803b15801561042f575f80fd5b505af1158015610441573d5f803e3d5ffd5b50505050505050565b7f000000000000000000000000000000000000000000000000000000000000000081565b5f73ffffffffffffffffffffffffffffffffffffffff82169050919050565b5f819050919050565b5f6104b06104ab6104a68461046e565b61048d565b61046e565b9050919050565b5f6104c182610496565b9050919050565b5f6104d2826104b7565b9050919050565b6104e2816104c8565b82525050565b5f6020820190506104fb5f8301846104d9565b92915050565b5f61050b826104b7565b9050919050565b61051b81610501565b82525050565b5f6020820190506105345f830184610512565b92915050565b5f610544826104b7565b9050919050565b6105548161053a565b82525050565b5f60208201905061056d5f83018461054b565b92915050565b5f80fd5b5f67ffffffffffffffff82169050919050565b61059381610577565b811461059d575f80fd5b50565b5f813590506105ae8161058a565b92915050565b5f6105be8261046e565b9050919050565b6105ce816105b4565b81146105d8575f80fd5b50565b5f813590506105e9816105c5565b92915050565b5f819050919050565b610601816105ef565b811461060b575f80fd5b50565b5f8135905061061c816105f8565b92915050565b5f805f6060848603121561063957610638610573565b5b5f610646868287016105a0565b9350506020610657868287016105db565b92505060406106688682870161060e565b9150509250925092565b61067b816105b4565b82525050565b5f6020820190506106945f830184610672565b92915050565b6106a3816105ef565b82525050565b5f6060820190506106bc5f830186610672565b6106c96020830185610672565b6106d6604083018461069a565b949350505050565b5f8115159050919050565b6106f2816106de565b81146106fc575f80fd5b50565b5f8151905061070d816106e9565b92915050565b5f6020828403121561072857610727610573565b5b5f610735848285016106ff565b91505092915050565b5f82825260208201905092915050565b7f5a555344207472616e73666572206661696c65640000000000000000000000005f82015250565b5f61078260148361073e565b915061078d8261074e565b602082019050919050565b5f6020820190508181035f8301526107af81610776565b9050919050565b5f6040820190506107c95f830185610672565b6107d6602083018461069a565b9392505050565b6107e681610577565b82525050565b5f6080820190506107ff5f8301876107dd565b61080c6020830186610672565b6108196040830185610672565b610826606083018461069a565b9594505050505056fea2646970667358221220dc5ad7e7854af1036700cfd3f2c5f6b6712878f9c8f5c74066990cb9a650de5264736f6c63430008180033",
        "linkReferences": {}
    },
    "methodIdentifiers": {
        "i_ccipTransfer()": "03b9f06e",
        "i_treasury()": "a89f50ca",
        "i_wrappedZusd()": "091d72c9",
        "i_zusd()": "142a0ee5",
        "processAndSend(uint64,address,uint256)": "2545865c"
    },
    "id": 17
}